:100000000C9485030C94CC030C94CC030C94CC037B
:100010000C94CC030C94CC030C94CC030C94CC0324
:100020000C94CC030C94CC030C94DC290C949829EC
:100030000C94CE320C94CC030C94CC030C94CC03D3
:100040000C94CC030C94CC030C94CC030C94CC03F4
:100050000C94CC030C94AA320C94CC030C94CC03D7
:100060000C94CC030C94CC030C94CC030C94CC03D4
:100070000C94CC030C94CC030C94CC030C94CC03C4
:100080000C94CC030C94CC030C94CC030C94CC03B4
:100090000C94CC030C94CC030C94CC030C94CC03A4
:1000A0000C94CC030C94CC030C94CC0305010902F2
:1000B000A10185020901A100050919012905150001
:1000C00025019505750181029501750381010501E1
:1000D000093009311581257F950275088106093897
:1000E0001581257F950175088106050C0A380215D2
:1000F00081257F950175088106C0C005010980A191
:1001000001850319012AB700150126B7009501756D
:10011000108100C0050C0901A101850419012AA064
:1001200002150126A002950175108100C00660FF2E
:100130000961A1010962150026FF0095207508815B
:10014000020963150026FF00952075089102C0057D
:10015000010906A101050719E029E7150025019508
:1001600008750181029501750881010507190029AB
:10017000FF150026FF009506750881000508190186
:100180002905950575019102950175039101C0003E
:10019000000000000000000000000000000000005F
:1001A000000000000000000000000000000000004F
:1001B0000000007E0F00D4FFFFFFC70000007800A2
:1001C000000000000000002A2B28000000000000B2
:1001D0000000000000000000000029000000002CCA
:1001E0001E3420212224342627252E362D37382769
:1001F0001E1F202122232425263333362E37381F75
:100200000405060708090A0B0C0D0E0F1011121336
:100210001415161718191A1B1C1D2F3130232D35D4
:100220000405060708090A0B0C0D0E0F1011121316
:100230001415161718191A1B1C1D2F3130354C298F
:10024000001E001F002000210022002300240025A2
:1002500000260027002D002E022B0014001A000893
:1002600000150017001C0018000C00120013002FCE
:1002700000390004001600070009000A000B000DF9
:10028000000E000F00330034000000E1001D001BD1
:100290000006001900050010003744374400000034
:1002A000000000000000000000000000000000004E
:1002B000000000000000000000000000000000003E
:1002C000000000000000000000000000000000002E
:1002D000000000000000000000000000000000001E
:1002E000000000000000000000000000000000000E
:1002F00000000000000000000000000000000000FE
:1003000000000000000000000000000000000000ED
:1003100000000000000000000000000000000000DD
:1003200000000000000000000000000000000000CD
:1003300000000000000000000000000000000000BD
:1003400000000000000000000000000000000000AD
:10035000000000000000000000000000000000009D
:10036000000000000000000000000000000000008D
:10037000000000000000000000000000000000007D
:10038000000000000000000000000000000000006D
:10039000000000000000000000000000000000005D
:1003A000000000000000000000000000000000004D
:1003B000000000000000000000000000000000013C
:1003C00000010083020000020002007F020000031F
:1003D00000010084020000040002006902160A0500
:1003E00000010085020000060002006B0200000709
:1003F00000020081020000080001008602000009DE
:100400000002006D02F1090A0002006F02F1090BFF
:100410000002007102F1090C0002007302F1090DE3
:100420000002007502F1090E0002007702F1090FC7
:100430000002007902F109100002007B02F10911AB
:100440000002007D02F10912000200870200001381
:1004500000020089020000FD377A585A000004E6C5
:10046000D6B4460200210116000000742FE5A3E077
:10047000034D015F5D003D8889C65436C3174FE4C4
:10048000DCCAC5334D2B2DFEB20681653BA83397E0
:10049000157F04534C4D199062AC43C0DEEF41838D
:1004A000F4F7EB61947C2DF51BF48D72828CE8419E
:1004B000C7BA9A5F308A1E5DE81A789D579D60958D
:1004C000AF2553AB7E8829A518175ACA2572AFDC11
:1004D0004D5BCF2BAFBB3A44767568A5052FC8009E
:1004E0004781C50405E9FA44A995DD1E58EC25C0ED
:1004F0007F8D922B6661AC6977B45C24AA2D5FA8CE
:10050000C6135AFEA2F047121202489C27DBBFCA4C
:1005100089A3C5D9832D65649E2606EF1355360839
:100520009F7441F3D5E21320CFD7A639793F6DE50B
:10053000A70ED0F257A5963215182F0F827751606B
:100540007D969E7CC87AD38DDB09A8696E650B34D5
:10055000200969E515EA09DCE3D790A34339100FB8
:1005600041C7AEEAD472753BE8B240D5FB5906F1FB
:1005700007793AF1240F3B4E8B11934D43302B08F2
:100580004B62CF824D847D5A63BAD0A3B55ADD7FCA
:10059000434DBC4AA93B5B1752B86902508CA30873
:1005A0003F40A3932CFDC43A56007D76AE861A894F
:1005B0005D68DFC7E61F9102D5FC953895EBC45204
:1005C0005E4F04FE41CC507EE563AF804930DC973E
:1005D000066154B6690000CC0E857BCB4D2A7C00A9
:1005E00001FB02CE060000E08BDF54B1C467FB02C2
:1005F0000000000004595A0902BF00050100A0FADA
:100600000904000001030101000921110100012278
:1006100040000705810308000A09040100020300E5
:100620000000092111010001222200070582032098
:100630000001070503032000010904020001030073
:100640000000092111010001228100070584032017
:10065000000A080B03020101000009040300000165
:10066000010000092401000109000104090404003B
:1006700002010300000724010001410006240201D9
:100680000100062402020200092403010301020101
:1006900000092403020401010100090506024000CB
:1006A000050000052501010109058502400005003E
:1006B0000005250101031201100100000008444B50
:1006C00034630100010203011C037600690061002C
:1006D0006C003A00660036003400630032006200AD
:1006E0003300630000000E0343006F006C007400D1
:1006F0003400350000000E037200700069006700CE
:100700007500790000000403090411241FBECFEF17
:10071000DAE0DEBFCDBF04B603FE27C080910B0434
:1007200090910C04A0910D04B0910E048730904B71
:10073000A740B04BD1F410920B0410920C0410920D
:100740000D0410920E0414BE84B7877F84BF0FB6C9
:10075000F894A89580916000886180936000109261
:1007600060000FBEE0E0F8E3099511E0A0E0B1E021
:10077000ECEBF7E602C005900D92AA38B107D9F765
:1007800024E0AAE8B1E001C01D92AB30B207E1F766
:100790000E94B32A0C949D330C940000CF92DF92F8
:1007A000EF92FF920F931F93CF93DF9300D00F929E
:1007B000CDB7DEB77C01162FD42EC22E80913F0319
:1007C0008430B9F5E0913403F0913503309709F4A2
:1007D00040C0C701019763E070E00E94F532CB0191
:1007E000880F991F860F971F19834A83CB824E2D3E
:1007F000481B9E012F5F3F4FBC018AE193E00995A2
:10080000E0913803F0913903309739F00C2D2D2DFC
:10081000412FB7018AE193E009950F900F900F9057
:10082000DF91CF911F910F91FF90EF90DF90CF90CC
:10083000089582E0E816F10409F45AC083E0E8164E
:10084000F104A9F081E0E816F10409F484C0F12C68
:10085000E12CE0913603F0913703309789F20C2DAB
:100860002D2D412FB7018AE193E00995C9CF862F3D
:10087000807F803A11F188F48038D1F0E0911E0336
:10088000F0911F03803929F7309719F3123F49F18E
:100890002C2D4D2D612F6F7027C0803E99F0803F29
:1008A000B1F0E0911C03F0911D03803B91F6ECCF79
:1008B000E0912003F0912103E7CFE0912203F09132
:1008C0002303E2CFE0912403F0912503DDCF623FC3
:1008D00009F0BFCFE0912603F0912703309709F488
:1008E000B8CF2C2D4D2D62EF8AE193E0099588CF8A
:1008F000862F807F803DB9F0803FD1F0E0912803C2
:10090000F0912903803C09F0A4CF309709F4A1CFDE
:10091000812F8D7F4D2D612F6F70813FC9F08AE14E
:1009200093E009956DCFE0912A03F0912B03EDCF71
:10093000E0912C03F0912D03633F39F0613F09F002
:1009400088CFE0912E03F0912F03309709F481CFE7
:100950004D2D612FE4CFE0913003F0913103683FDA
:1009600038F4663F09F075CFE0913203F09133031C
:10097000309709F46ECF612F8AE193E0099540CF5B
:10098000E8EDF0E080818E7F80831092E20010928B
:10099000DA001092E100A0EEB0E08C9181608C93BF
:1009A00080818F77808319BCA7EDB0E08C918E7F1A
:1009B0008C9380818F7E8083109203030895209111
:1009C000E4003091E50095E6A9012091EC00822F2A
:1009D000817020FF06C08091E80080FF06C080E0A3
:1009E00008952091E80022FD1AC080911903882300
:1009F00089F0853089F08091EB0085FD0FC0209152
:100A0000E4003091E50042175307F9F29150E1F606
:100A100084E0089582E0089583E0089581E00895D8
:100A2000EF92FF920F931F93CF937C018B010E9453
:100A3000DF04C82F811117C08091E80085FD0BC02D
:100A40008091E8008E778093E8000E94DF0488237D
:100A500099F3C82F08C0F70181917F018093F100BD
:100A60000150110949F78C2FCF911F910F91FF90E1
:100A7000EF900895CF93FC0180911903843001F524
:100A8000C091E900CF702091EC00922F917020FD71
:100A900090E8C92B82E08093E9008091E80080FF14
:100AA0000CC050E040E060E270E0CF010E94100511
:100AB0008091E8008E778093E800CF70C093E900C2
:100AC000CF910895EF92FF920F931F93CF937C01E4
:100AD0008B010E94DF04C82F811117C08091E800AC
:100AE00085FD0BC08091E8008B778093E8000E9421
:100AF000DF04882399F3C82F08C08091F100F70123
:100B000081937F010150110949F78C2FCF911F91DB
:100B10000F91FF90EF9008958091110387FF13C00C
:100B20008091E80082FF06C08091E8008B77809377
:100B3000E80004C0809119038111F2CF08958091DB
:100B400019038823D9F38091E80080FFF8CF8091C2
:100B5000E8008E77ECCF982F9093E900242F762F22
:100B600050E0891731F07091EC002091ED00509128
:100B7000F00021FD07C09F5F973071F78093E90077
:100B800081E008953091EB003E7F3093EB0030918F
:100B9000ED003D7F3093ED003091EB0031603093FC
:100BA000EB007093EC002093ED005093F000209147
:100BB000EE0027FDE0CF80E00895CF92DF92EF9224
:100BC000FF920F931F93CF93DF93C8EDD0E08881FE
:100BD0008F7E8883E7EDF0E080818160808384E010
:100BE00082BF81E08093030388818E7F888302EE39
:100BF00010E0F80110821092DA0081EEC82ED12C9C
:100C0000F601108288818F77888388818068888345
:100C100088818F7D888319BC10921903109210036C
:100C200010920F0310920E0390EEE92EF12CF701B3
:100C300080818B7F808388818160888342E060E04F
:100C400080E00E94AB05F60180818E7F8083F801F1
:100C5000808181608083808188608083F7018081CA
:100C60008E7F8083888180618883DF91CF911F91FF
:100C70000F91FF90EF90DF90CF900895FC0180914D
:100C800017039091180386179707A0F06115710557
:100C900029F49091E8009E779093E80090E0611528
:100CA000710551F4911108C08091E80082FF34C0B1
:100CB00080E00895BC01F2CF809119038823C1F12F
:100CC0008530C1F18091E80083FD30C08091E8005B
:100CD00082FDEACF8091E80080FFE1CF8091F300B0
:100CE0002091F200382F6115710519F02830310577
:100CF00058F091E02830310509F090E02091E800AB
:100D00002E772093E800CBCF81918093F100615042
:100D100071092F5F3F4FE7CF80911903882341F07E
:100D2000853041F08091E80083FFBECF81E00895D7
:100D300082E0089583E0089580E00895089508957D
:100D4000809105030895982F907F903BE9F040F43F
:100D50009039D1F0903AC1F09038B1F080E0089528
:100D6000903D19F020F4903CC9F782E00895903E40
:100D700059F0903F99F7815F8F3080F7E82FF0E0CE
:100D8000E35AFE4F8081089583E00895DF92EF9249
:100D9000FF920F931F93CF93DF9300D000D0CDB776
:100DA000DEB77B01142FD22E4A832B830C83842F32
:100DB0000E94A306811141C082E0E816F104C1F14E
:100DC00083E0E816F10439F0EA94EF2829F5173F9B
:100DD00029F485E004C087E0073F09F084E08983B7
:100DE000809119038430C1F480910E018F7080933B
:100DF000E90050E040E064E070E0CE0101960E941E
:100E00001005811109C08091E80085FD05C0809121
:100E1000E8008E778093E8000F900F900F900F906E
:100E2000DF91CF911F910F91FF90EF90DF90089588
:100E300087EFD812D3CF86E0D2CF12951F701983D7
:100E4000CFCFFF920F931F93CF93DF9300D000D0AB
:100E500000D00F92CDB7DEB78C0108511F4F8091A3
:100E60001903843009F06CC0809113018F70809356
:100E7000E9008091E80082FF63C08091E80085FF6F
:100E80005FC050E040E064E070E0CE0101960E9457
:100E900062058091E80085FD05C08091E8008B77B0
:100EA0008093E800FA808F2D0E94A306282FFD82F0
:100EB0008B818E838C818F8321110AC0898184303C
:100EC00039F1873029F1863029F121E0853039F672
:100ED00030E0E5E0F0E0EC0FFD1FE30FF11DF080E6
:100EE0004FB7F894D8011196EC911197F0E0CF012B
:100EF000019612966C9170E00E940933D8015C91C2
:100F00005817190649F44FBF3F5F321710F3A7CFA8
:100F100023E0DECF22E0DCCF13968D919C911497D5
:100F2000E80FF91FF08211968C91119790E00196CD
:100F300012966C9170E00E940933F8018183E3CF2F
:100F400027960FB6F894DEBF0FBECDBFDF91CF91CD
:100F50001F910F91FF90089587E797E790930108FD
:100F60008093000888E19AE00FB6F894A8958093E2
:100F700060000FBE90936000FFCF9C014FB7F894C4
:100F80008091FB029091FC02A091FD02B091FE02C3
:100F90004FBF821B930B08952FB7F8948091FB02EB
:100FA0009091FC02A091FD02B091FE022FBF089526
:100FB0009C01FC0132969FEF80E04191461751F071
:100FC0009F3F19F4411101C0982F8F5F8630A9F718
:100FD0009F3F09F40895290F311D97FD3A95F901B6
:100FE0006283089580919002882331F010929002DC
:100FF00010928F0210928E020895809590918D022A
:10100000982390938D020895809590918C02982357
:1010100090938C02089510926802109267021092C9
:101020006602089580916B0290916C02892B89F081
:101030000E94CC0720918E0230918F02AC01421B9E
:10104000530B81E020916B0230916C0242175307E1
:1010500008F480E08170089580918C0290918D0257
:10106000892B90918B02892B80938C018091900227
:10107000882309F180916B0290916C02892B29F0F1
:101080000E94120881110E94F20780918C019091B8
:101090009002892B80938C0120E08EE891E0FC0186
:1010A0003191CF0131112F5FF1E084399F07B9F7FA
:1010B00021110E94F207E091DA02F091DB023097F1
:1010C00031F00280F381E02D8CE891E009940895DD
:1010D0008091650281111092650208959E3F49F149
:1010E000990F990F990FE92FE80F9E2F9770E695AA
:1010F000E695E69585E0E89FF0011124E95BFD4F58
:1011000050E040E080E0219130E0092E02C03695A9
:1011100027950A94E2F721703327042E01C0220F8D
:101120000A94EAF7822B4F5F5F4F4530510559F71C
:10113000089580E008959E3F69F1990F990F990FE6
:10114000E92FE80F8E2F877041E001C0440F8A9588
:10115000EAF7E695E695E69585E0E89FF00111242B
:10116000E95BFD4F30E020E070E05191DF01119725
:10117000CB01022E02C0969587950A94E2F7817002
:1011800081958527842385278C932F5F3F4F2530BA
:10119000310559F70895209146029091150256E0C5
:1011A000291302C080E0089530E0529FF001539F60
:1011B000F00D1124EA5EFD4F7181761306C0708137
:1011C000781303C07281741304C02F5F3F4F2770E0
:1011D000E7CF81E00895452B39F0682381E06F3F28
:1011E00009F080E08170089581E0FCCF8091460293
:1011F00090911502981301C008958F5F8770FACF00
:10120000E92FE295EF70E250EE3070F4F0E0E15635
:10121000FC4C0C941D33803F19F020F4883E20F4E0
:1012200081E00895843FE1F380E00895883EC0F3B3
:10123000813FD1F7F5CF93FB882780F90895882364
:1012400021F00E94FD070C942C080895882339F0A2
:1012500090918D02982B90938D020C942C080895F8
:10126000882321F00E9404080C942C0808958823F8
:1012700039F090918C02982B90938C020C942C084E
:1012800008952091AA013091AB012817390771F018
:101290009093AB018093AA01E091DA02F091DB0216
:1012A000309721F00084F185E02D09940895209174
:1012B000A8013091A9012817390771F09093A9016D
:1012C0008093A801E091DA02F091DB02309721F0DF
:1012D0000680F781E02D09940895E091DA02F091FB
:1012E000DB02309721F00190F081E02D099480E03D
:1012F0000895CF93DF93EC0181E0898B80918C027C
:101300009F81892B80938C0280918D029885892BF7
:1013100080938D020E942C08EA81FB81309739F07E
:101320006C897D89CE010696DF91CF910994DF917A
:10133000CF910895EF92FF920F931F93CF93DF9376
:10134000EC018A85811134C0EB80FC8087E5F81AB6
:1013500026E12E9DC0012F9D900D1124DC01A25588
:10136000BE4F1496ED91FC911597309731F054963D
:101370006D917C918C549E4F099586E18E9D8001E4
:101380008F9D100D112402551E4FF80187810E9478
:101390000408F80180850E94FD070E942C0818822D
:1013A00019861B861E821D821092AD011092AC011F
:1013B000DF91CF911F910F91FF90EF900895EAEB8D
:1013C000F2E082E0EE3CF80739F484E090E090939C
:1013D0000502809304020895848187FF1482359664
:1013E000F0CFE9E6F2E0848195812AE030E0B901AE
:1013F0000E94F53260930B01868180930C018285F7
:101400008093030184858093020186859785B901C5
:101410000E94F53260930901808980930A018289D4
:10142000809301018489809300010895809169026D
:1014300090916A02909305018093040108950E949F
:10144000CC079C019091E5028091E602982B21F057
:101450003093E2022093E1029091E7028091E8024A
:10146000982B21F03093DF022093DE02E091DA0224
:10147000F091DB02309749F082E08093E302048030
:10148000F581E02D83EE92E00994089590E080E0EC
:101490000E94570990E080E00E94410910928D025D
:1014A00010928B020E942C0886E0E3EEF2E0DF014E
:1014B0001D928A95E9F71092E0021092DD021092D7
:1014C0000E020C941F0A6093070470930804809323
:1014D000090490930A040C94460A0F931F93609199
:1014E0000704709108048091090490910A048B010B
:1014F0009C0106701127222733270630110521058C
:10150000310529F468601F910F910C94630A677F7D
:10151000FACF0F931F9341E050E060E070E004C009
:10152000440F551F661F771F8A95D2F7CB01BA016A
:10153000609570958095909500910704109108042E
:101540002091090430910A0460237123822393239C
:101550001F910F910C94630A9091680280958923E2
:1015600080936802282F277039F4282F082E000C4A
:10157000330B9217130621F49091CF0292FF07C00C
:101580008595859585950E94890A0C940B08089588
:101590000F931F9341E050E060E070E004C0440FFF
:1015A000551F661F771F8A95D2F780910704909187
:1015B0000804A0910904B0910A048A019B01082B38
:1015C000192B2A2B3B2BC901B8011F910F910C94A9
:1015D000630A9091CF0292FD10C098E0899F90011C
:1015E0001124622B609368020E94C80A0E94CC07F3
:1015F000909367028093660208950C94C80A6093E2
:1016000091027093920280939302909394020C94AF
:10161000460A9091E502803F59F48091E60287FFE7
:101620000DC01092E60291110BC01092E00208C0AA
:10163000813F81F48091E60218169CF3992381F092
:101640008091E7029091E802892B09F064C0109222
:10165000DD020895823F49F497FFF0CF1092E50232
:101660008091E6028111ECCFE0CF833F19F4191687
:10167000ACF3E4CF2091E702893F29F41216F4F687
:101680001092E702DBCF8A3F19F427FFD7CFF8CFBC
:101690002091E8028B3F29F427FFD0CF1092E80277
:1016A000CDCF8C3F19F41216CCF3C8CF843F31F460
:1016B0008091E4028E7F8093E402C0CF853F21F4C5
:1016C0008091E4028D7FF7CF863F21F48091E40280
:1016D0008B7FF1CF873F21F48091E402877FEBCFAE
:1016E000883F21F48091E4028F7EE5CF8D3F31F475
:1016F00080910E028E7F80930E02A0CF8E3F21F448
:1017000080910E028D7FF7CF8F3F09F097CF8091A8
:101710000E028B7FF0CF08958823B1F19CEF980FD4
:10172000913A70F4EEE8F1E09191891303C0DF0182
:1017300011971C9291E0E439F907B1F70C942C0849
:1017400090E2980F983050F4877091E001C0990FA3
:101750008A95EAF7892F0E940408F0CF9BE5980F3D
:10176000933020F490E080E00C94570998E5980FAE
:10177000973120F490E080E00C944109803F20F004
:101780000E94090B0C941F0A089580910E0280FF9D
:101790000CC06091010170E075956795759567952E
:1017A0006115710549F1862F089581FF06C060918A
:1017B000010170E075956795F3CF6091010182FD9D
:1017C0000BC09091DD029923A1F0609100018091FE
:1017D0000101961738F0682F70E06038710500F34A
:1017E0008FE70895899FC001112470E00E9409339A
:1017F000F4CF61E070E0D7CF81E0089580910E02D0
:10180000609171027091720280FF16C020910301F5
:10181000269FC001279F900D1124BC0176956795E6
:10182000769567956038710508F043C061157105BC
:1018300009F441C0862F089581FF0BC02091030158
:10184000269FC001279F900D1124BC0176956795B6
:10185000E9CF82FF09C0809103019B01829FB00103
:10186000839F700D1124DECF2091E0022223D1F25C
:101870009091020180910301482F50E0291748F010
:10188000CB01849FB001859F700D949F700D112432
:10189000C9CF289F90011124269FA001279F500D9A
:1018A000369F500D1124692F70E0CA010E94F53255
:1018B000B9CF8FE7089581E00895803F31F40E9409
:1018C000FE0B81958093E6020895813F19F40E94F2
:1018D000FE0BF8CF823F31F40E94FE0B819580937E
:1018E000E5020895833F19F40E94FE0BF8CF893F6B
:1018F00029F40E94C50B8093E70208958A3F21F4E2
:101900000E94C50B8195F7CF8B3F31F40E94C50B28
:1019100081958093E80208958C3F19F40E94C50BCD
:10192000F8CF843F31F48091E40281608093E40237
:101930000895853F21F48091E4028260F7CF863FCD
:1019400021F48091E4028460F1CF873F21F48091FB
:10195000E4028860EBCF883F21F48091E40280614B
:10196000E5CF8D3F31F480910E02816080930E02AD
:1019700008958E3F21F480910E028260F7CF8F3F51
:10198000B9F780910E028460F1CFCF93C82F8823DE
:1019900009F456C08CEF8C0F813AF8F4EEE8F1E0D0
:1019A00084E991E0DF012D91C21759F08A179B0756
:1019B000D1F76C2F8CE891E00E94D807CF910C945E
:1019C0002C082191C21303C0DF0111971C928E17BE
:1019D0009F07B9F70E942C08ECCF80E28C0F88306B
:1019E00068F4C77021E030E001C0220FCA95EAF721
:1019F00080918C02822B80938C02E0CFEBE5EC0F80
:101A0000E33040F4F0E0E45DFE4F808190E0CF9160
:101A10000C945709E8E5EC0FE73150F4F0E0EE0FD5
:101A2000FF1FE15DFE4F80819181CF910C944109B0
:101A3000C03F30F08C2F0E945D0CCF910C941F0A98
:101A4000CF910895F894E82FE295EF70F0E031A17E
:101A5000282F2F7081E090E001C0880F2A95EAF7C7
:101A6000982F9095932391A392A1892B82A3789488
:101A700008959091CE0292FF06C0282F2871283039
:101A8000F9F4877F846093FF06C0282F28712831DE
:101A9000F1F4877E84612091CF0220FF06C0382FA9
:101AA00038713830D9F4877F816021FF06C0282F34
:101AB00028712831D1F4877E816194FD877E089555
:101AC000282F24712430F9F68B7F8860DCCF282FF3
:101AD0002471243101F78B7E8861DDCF382F31717D
:101AE000313019F78E7F8860E0CF282F21712131A6
:101AF00021F78E7E8861E1CFCF93DF939C013A95E9
:101B000021153F4168F5EC01CC27D170DC01AA27F3
:101B1000B270AC01442754709C012227387094FFA6
:101B200011C080E1CD2B09F480E0AB2B09F080627D
:101B3000452B09F08064232B09F08068FB01DF91BD
:101B4000CF91099481E0CD2B09F480E0AB2B09F013
:101B50008260452B09F08460232B81F38860EECFEF
:101B6000DF91CF910895CF93DF93EC010E948C0B0E
:101B7000CE01805E9109089720F06FE179E020970F
:101B800011F460E379E0CE01DF91CF910C947C0DEC
:101B9000CF93DF93EC01805E9109089720F066E215
:101BA00079E0209711F467E379E0CE010E947C0D83
:101BB0008C2FDF91CF910C94C50CCF9390910002A4
:101BC000992321F0811116C010920002CF9108953F
:101BD000EC2FF0E0EE0FFF1FEE50FE4F8081918161
:101BE0000E94C80D0E942C08CF5F80910002C81788
:101BF00078F3EACFC0E0F9CFCF93DF9300D00F9214
:101C0000CDB7DEB790911903943011F589837B83AA
:101C10006A839093E9008FEF9091E800815095FDE1
:101C200006C095ED9A95F1F700008111F5CF8091EE
:101C3000E80085FF0DC050E040E063E070E0CE01B9
:101C400001960E9410058091E8008E778093E8004D
:101C50000F900F900F90DF91CF910895BC0184E019
:101C60000C94FC0DBC0183E00C94FC0D9C0184E001
:101C70008093E9009FEF8091E800915085FD06C0B8
:101C800085ED8A95F1F700009111F5CF8091E8007C
:101C900085FF0CC050E040E066E070E0C9010E94A2
:101CA00010058091E8008E778093E8000895CF9327
:101CB000DF93EC0181E08093E9008FEF9091E800E1
:101CC000815095FD06C095ED9A95F1F700008111C0
:101CD000F5CF8091E80085FF14C050E040E068E057
:101CE00070E0CE010E9410058091E8008E7780930D
:101CF000E80088E0FE01A6E0B3E001900D928A952D
:101D0000E1F7DF91CF9108951F93CF93DF93182FC1
:101D1000C0918902D0918A02893321F0C091870253
:101D2000D0918802812F0E94C50C209731F4812F19
:101D3000DF91CF911F910C948C0B8FE99FE001975D
:101D4000F1F700C000002197F0CF0F931F93CF93BE
:101D5000DF93C42FD22FFC0182818823A1F040930E
:101D60000A020E94CC079093A7018093A601C77036
:101D700081E001C0880FCA95EAF7DF91CF911F91EA
:101D80000F910C94370910910A02141339C08091F5
:101D9000A6019091A7010E94BD0720918102309178
:101DA00082028217930760F5C0E2CD0F1D17B9F0CC
:101DB00080E2810F883040F4177081E001C0880F05
:101DC0001A95EAF70E943009C83048F481E09D2F47
:101DD000977001C0880F9A95EAF70E943709802F03
:101DE0000E94840EC83098F4D77081E001C0880F3B
:101DF000DA95EAF7DF91CF911F910F910C9430099A
:101E0000C77081E001C0880FCA95EAF7F3CFDF9170
:101E1000CF911F910F910895DF92EF92FF920F9350
:101E20001F93CF93DF93E82FF0E0E154FE4FD4905F
:101E3000282F26952695269530E0F901E155FE4F8D
:101E40000491877010E0082E02C0159507950A943A
:101E5000E2F701701127F901E156FE4FE490F12CF1
:101E6000082E02C0F594E7940A94E2F791E0E92283
:101E7000FF24F901E157FE4FC491D0E002C0D5958F
:101E8000C7958A95E2F7C170DD270115110519F094
:101E900081EE0E94C50CE114F10419F086EE0E9457
:101EA000C50C8D2D0E94840EEF2819F086EE0E943D
:101EB0008C0B012B19F081EE0E948C0BCD2B51F075
:101EC0008CE2DF91CF911F910F91FF90EF90DF9007
:101ED0000C94840EDF91CF911F910F91FF90EF90A2
:101EE000DF900895019708F40895EFE9FFE0319736
:101EF000F1F700C00000F6CFFF920F931F93CF932E
:101F0000DF938C01EB01F42E8091080182FF43C026
:101F10008B7F809308018091060220910802309106
:101F20000902AB01421B530B9A01409104015091ED
:101F3000050124173507A8F40E94C50C80910801FB
:101F40008D7F8093080180918702909188020E9482
:101F5000720F809106020E948C0B82E00E94FD07A6
:101F600024C090918D02926090938D020E94C50CC6
:101F7000809108018260809308018091840285FF2E
:101F8000E2CF86FDE0CFFF20F1F2DF91CF911F91EC
:101F90000F91FF900895802F0E948C0B8091060274
:101FA0009091070280179107C1F20E942C08D093EC
:101FB0000902C0930802E9CFAF92BF92CF92DF929D
:101FC000EF92FF920F931F93CF93DF93CCE6D1E074
:101FD00084EDC82E82E0D82E92E7E92E91E0F92E0A
:101FE000B12C01E010E08991F894E82FE295EF70B0
:101FF000F0E021A18F70A80102C0440F551F8A95FF
:10200000E2F7CA01922F982B91A392A18095892380
:1020100082A3789400C0E2E7F1E030E020E0A12C58
:102020004191A42FA295AF70B0E090968C9190E072
:102030004F7002C0959587954A95E2F780FD50C094
:10204000802F022E01C0880F0A94EAF7A82A2F5F7A
:102050003F4F2830310521F7FE01319780810E94E2
:10206000220D50EA5A95F1F7F6018081A816D1F1B8
:10207000A08281E0B82AFFEFCF1ADF0AEC16FD0636
:1020800009F0B1CFBB2081F181E0809396010E94DD
:10209000CC07909395018093940180919401909145
:1020A00095010E94BD07069718F18091D402809394
:1020B000F5028091D5028093F6028091D60280933A
:1020C000F7028091D7028093F8028091D802809322
:1020D000F9028091D9028093FA021092960108C009
:1020E00080E0B4CF80E0C6CF809196018111D5CF3A
:1020F0008091060110E006E18F3F09F062C08091F7
:102100000701811169C08091840280FF1CC0809109
:10211000080182FF18C00E94CC072091080230916C
:102120000902AC01421B530B2091040130910501BF
:102130004217530740F041E0BC01809106029091A4
:1021400007020E947C0F8B2DDF91CF911F910F9181
:10215000FF90EF90DF90CF90BF90AF900895029FD7
:10216000F001039FF00D1124E255FE4FE288F38841
:10217000E114F10421F4E0908102F0908202029FC8
:10218000E001039FD00D1124C255DE4F8E818823BC
:10219000B9F08D859E850E94BD07E816F90680F48A
:1021A000109F700111248989811105C0C7018255D2
:1021B0009E4F0E947909C7018C549E4F0E949A0934
:1021C0001F5F212F30E080910601082E000C990B33
:1021D0008217930724F693CF809101029091020217
:1021E000009709F490CF0E94BD0720917F023091A3
:1021F00080022817390708F086CF81E00E94DD0DA4
:102200000E94DF0980CF1F93CF93DF93EC011AE088
:102210008881882309F43EC08130C9F599818A817B
:10222000913029F422960E94840E2196F1CF9230AB
:1022300021F422960E94C50CF8CF933021F4229607
:102240000E948C0BF2CF943011F02196EECF2296A3
:1022500030E020E0AE014F5F5F4F8053990B8A3032
:10226000910550F02150310900F38FE99FE001976B
:10227000F1F700C00000F6CF129FB001139F700D60
:1022800011249C01260F371F8981EA01E3CF0E94A8
:102290000C0FCBCFDF91CF911F910895CF9384E0A6
:1022A00090E00E945333C82F82E290E00E945333A3
:1022B000982F8C2FCF9108950F931F93CF93DF9377
:1022C00009E612E0C7EAD1E0CE010E945333F801DB
:1022D00081938F012196C93CF1E0DF07A9F7C5EC96
:1022E000D3E0FE0185919491009711F0FC010995CE
:1022F0002896F4E0CD35DF07A1F7DF91CF911F914C
:102300000F9108950F931F93CF93DF93843030F58F
:10231000663020F5483010F520E1629F80011124DD
:1023200050E0440F551F040F151F30E6839F000D2A
:10233000111D1124C80187960E945333C82FD0E085
:10234000DC2FCC27C80188960E9453339E01282B8E
:10235000C901DF91CF911F910F91089590E080E026
:10236000F8CF462F2091010330910203232B91F4E3
:102370007E3F39F46E3F71F48091A4019091A501E4
:102380000895843038F4763028F4683018F4672FD4
:102390000C94821190E080E00895CF93DF930E9427
:1023A000B111EC0182389105A9F1D8F5813391057D
:1023B00009F496C048F58932910509F48AC08A97D4
:1023C00009F495C0C11521E5D20708F0BCC0C115BC
:1023D00030E5D30708F014C1C83ED10508F09CC011
:1023E000C03ED10560F5C83AD10508F087C0C53AAE
:1023F000D10508F0FDC0C130D10509F12097F9F0F1
:10240000C430D105E0F440C08533910509F45AC0C9
:10241000C997C1F68091CE02837089F0C0EED0E0FA
:102420000EC0833E910599F170F4803E910501F153
:10243000823E910539F68091CE0282FD21C0CE0107
:10244000DF91CF910895863E910561F1873E910518
:1024500071F1843E910509F0B5CF8091CF0281FFE3
:10246000EECF8091CE02C7EED0E084FD0DC0E7CF65
:102470008091CE0280FD12C19091CF0290FFDFCFFC
:10248000C3EED0E084FFDBCFD0E0C0E0D8CF8091B6
:10249000CE0282FD06C19091CF0290FDBFCF84FF96
:1024A000CECFF2CF8091CE0283FDDDCFC8CF809119
:1024B000CE0283FDF9C09091CF0291FFF0CFC4EE20
:1024C000D0E0BDCF8091CE0285FFB9CFC9E2D0E088
:1024D000B6CF8091CE0285FFB2CFC5E3D0E0AFCFBB
:1024E0008091CE0286FFABCFCAE2D0E0A8CF809128
:1024F000CE0286FFA4CFC1E3D0E0A1CFCF3BD10570
:1025000018F6C85AD0E0CC0FDD1FC15DDE4F099030
:10251000D881C02DD46493CFC11540E2D40758F4BC
:10252000C11581E0D80708F08ACFC03FD10508F473
:10253000ABCFD06584CFC11590E4D90708F4A4CF00
:10254000DF70D06A7CCFC11525E5D20700F5C11533
:1025500034E5D30708F08AC0C11543E5D40708F075
:1025600071C0C11582E5D80708F467C0CE01837039
:10257000992721E030E002C0220F331F8A95E2F74D
:10258000C695C69580E2C89FE001112452C0C115CE
:1025900099E5D907A8F4C11528E5D20708F06BC062
:1025A000C11536E5D30708F06FCF8C2F0E94390D87
:1025B000C82FD0E0DC2FCC27CC27DF71D0623FCFF3
:1025C000C1154AE5D40708F45BC0CE0190568115C9
:1025D000904208F059CF8D2F8F710E94390D90E0F5
:1025E000982F882788279F719C012C2BE901E6CF23
:1025F000C55AD0E0C45DDE4FC881D0E0D0641FCFA3
:10260000CE01E4E096958795EA95E1F783702C2F4B
:1026100026952695237040E2249F90011124382BA3
:102620008C2F8370C1E0D0E002C0CC0FDD1F8A95F3
:10263000E2F7C22BD32BDC6802CFDC2FCC27C16F93
:10264000D06AFDCECE018370992721E030E002C030
:10265000220F331F8A95E2F7C695C69590E2C99F6F
:10266000E0011124C22BD32BDA68E9CEDC2FCC2772
:10267000C46FD06AE4CEDC2FCC27C06FD06ADFCE27
:102680008C2F8F700E94390D34E0D695C7953A95FE
:10269000E1F7CF709C2FEC01D069D1CEC9E3D0E037
:1026A000CECEC2EED0E0CBCEC6EED0E0C8CEBF924A
:1026B000CF92DF92EF92FF920F931F93CF93DF930E
:1026C0008C01C0900704D0900804E0900904F090B9
:1026D0000A048091910290919202A0919302B0918C
:1026E0009402C82AD92AEA2AFB2ACFE1D0E0BC2EDC
:1026F000D701C6010C2E04C0B695A795979587956E
:102700000A94D2F780FD0EC0219788F7B12C8B2D4B
:10271000DF91CF911F910F91FF90EF90DF90CF90BD
:10272000BF900895B8018C2F0E94CD11019761F3DD
:10273000EECFCF93DF93EC010E945713BE01DF91E0
:10274000CF910C94CD110E9499130C9400091F9302
:10275000CF93DF9300D000D00F92CDB7DEB749837F
:102760005A8389819A816623B9F02223A9F00E94B5
:102770005713182F682F89819A810E949B086981BD
:102780007A81812F0F900F900F900F900F90DF9113
:10279000CF911F910C94B1110E946E08182FEFCFAA
:1027A000CF93C92F682F84E090E00E9461336C2F93
:1027B00082E290E0CF910C9461339091CF0292FB32
:1027C000222720F9281751F080FB92F99093CF022D
:1027D0008091CE029091CF020C94D01308950F9364
:1027E0001F93CF93DF9309E612E0C7EAD1E0CE0151
:1027F0000E945333F80161918F01681719F0CE01DF
:102800000E9461332196C93CF1E0DF0781F7DF9137
:10281000CF911F910F910895E9E6F2E0128E138E89
:102820008FEA90E09183808385E0848F88E893E14C
:10283000938382832CE231E03583248382E390E02A
:102840009783868385E090E0918780878AE090E097
:102850009387828744E150E05587448737872687EE
:1028600024E630E0318B208B28E030E0338B228B64
:1028700028E230E0358B248B28EC30E0378B268B38
:10288000318F208F158E978F868F80E590E091A3F2
:1028900080A30E94EF130C945C11CF93DF93CFE0E1
:1028A000D2E060E0CE010E9461332196C11584E040
:1028B000D807B9F7DF91CF9108950F931F93CF9366
:1028C000DF938901843048F5663038F5483028F5C3
:1028D00021153C4531F42091FF0230910003232B58
:1028E000E1F090E1699FE001112450E0440F551F91
:1028F000C40FD51F90E6899FC00DD11D1124612FF3
:10290000CE0187960E946133602FCE018896DF91B9
:10291000CF911F910F910C946133DF91CF911F9153
:102920000F91089510928C02EEE8F1E086E0DF014D
:102930001D928A95E9F70C94460A1F93CF93DF9373
:10294000CDB7DEB7AA970FB6F894DEBF0FBECDBFE6
:1029500081E193E02091F100DC012D93CD01B3E002
:1029600089319B07B9F780911203833009F471C054
:10297000B8F4813009F448C0823009F4B2C08091C3
:10298000E80083FF3AC180911103909112039A30BD
:1029900008F033C1E92FF0E0E355FC4C0C941D33F3
:1029A0008A3009F48DC08B3009F470C0893039F752
:1029B00080911103813219F78091150390911603CC
:1029C000009711F00297D9F68091E800877F8093F5
:1029D000E8008091E80082FF37C09091F300809179
:1029E000F200029729F48091F1008B7F813021F46D
:1029F0008091F100809305038091E8008B778093AC
:102A0000E8000E948C05BBCF80911103813A09F048
:102A1000B6CF8091E800877F8093E800809115030E
:102A200090911603892B61F468E086E093E070E0F2
:102A30000E943E068091E8008B778093E8009FCF4C
:102A400060E090E080E0F3CF809119038111C1CF65
:102A500096CF80911103813A09F091CF80911503AF
:102A600090911603892B09F08ACF8091E800877F27
:102A70008093E8008091E80080FFFCCF80912301E3
:102A80008093F1008091E8008E77B9CF8091110397
:102A9000813209F074CF8091150390911603892B30
:102AA00009F06DCF8091E800877F8093E8000E9455
:102AB0008C0580911303809323010E9492145FCFB1
:102AC00080911103813209F05ACF8091E800877F0D
:102AD0008093E8000E948C05809114038093040386
:102AE0004ECF80911103813A09F049CF8091E800DF
:102AF000877F8093E8008091E80080FFFCCF809181
:102B00000403BECF803899F0823809F076C08091F6
:102B100015038F70873008F070C08093E9008091B2
:102B2000EB0085FB882780F91092E90006C08091B0
:102B30000E0390910F03911182609091E800977FAE
:102B40009093E8008093F1001092F1008091E800EA
:102B50008E77CAC1882309F4B7C1823009F04DC00D
:102B6000809113038111BBC1809115038F702FEFEA
:102B7000280F263008F041C08093E9002091EB0037
:102B800020FFADC1933031F48091EB0080628093DF
:102B9000EB00A5C19091EB0090619093EB0021E0D8
:102BA00030E001C0220F8A95EAF72093EA001092E4
:102BB000EA008091EB008860EACF81111EC010917D
:102BC00013031F778091E3008078812B8093E300CB
:102BD0008091E800877F8093E8000E948C058091B7
:102BE000E80080FFFCCF8091E30080688093E300E1
:102BF00082E0111183E0809319038091E80083FF44
:102C00000AC08091E800877F8093E8008091EB0004
:102C100080628093EB00AA960FB6F894DEBF0FBED9
:102C2000CDBFDF91CF911F9108958058823028F752
:102C300020911303309114032C3DE3E03E07A1F5EE
:102C400083E08A838AE289834FB7F894DE01139682
:102C500020E03EE051E2E32FF0E050935700E49192
:102C600020FF03C0E295EF703F5FEF708E2F90E082
:102C7000EA30C0F0C7968D939D932F5F243159F7AA
:102C80004FBF8091E800877F8093E8006AE270E0A0
:102C9000CE0101960E943E068091E8008B778093DA
:102CA000E800ABCFC096E7CF809115039091160353
:102CB000432F55274330510509F44AC078F5413078
:102CC000510509F485C08FEB90E0E7EFF5E0423065
:102CD000510509F092CF2091E800277F2093E8006A
:102CE00020911703309118038217930708F49C0171
:102CF00040E02115310509F070C041116EC080918E
:102D0000E80082FDC9CF80911903882329F285301C
:102D100019F28091E80083FFF2CFBECF4132510516
:102D200009F447C04232510509F067CF833091055D
:102D300008F063CFFC01EE0FFF1FE358FE4F019038
:102D4000F081E02D86589E4FDC018C9190E01DC0F3
:102D5000332721303105E9F02115310579F0223092
:102D60003105F9F02330310509F047CFE8ECF6E002
:102D7000E4918E2F90E0E8ECF6E007C0E6E0F7E0A3
:102D8000E4918E2F90E0E6E0F7E0009709F435CF6C
:102D9000A2CFE6EFF6E0E4918E2F90E0E6EFF6E0CA
:102DA000F4CFE6EEF6E0E4918E2F90E0E6EEF6E06A
:102DB000ECCF8330910508F020CF880F991FFC01DC
:102DC000ED57FE4F0190F081E02D89E090E083CF38
:102DD00082E190E0E6EBF6E07ECF80911903882354
:102DE00009F45ACF853009F457CF8091E80083FD6C
:102DF00053CF8091E80082FD82CF8091E80080FF70
:102E000078CF9091F3008091F2002115310519F0EF
:102E10008830910550F041E0089709F040E080913A
:102E2000E8008E778093E80064CF44914093F100EE
:102E30003196215031090196E8CF803809F0DDCE76
:102E40008091E800877F8093E80080911003809351
:102E5000F1007CCE8111D1CE10911303123008F015
:102E6000CCCE8091E800877F8093E8001093100318
:102E70000E948C05112311F084E005C08091E300CD
:102E800087FDFACF81E08093190342E061EC81E095
:102E90000E94AB0542E261EC84E00E94AB0542E295
:102EA00061EC82E00E94AB0542E260EC83E00E94AC
:102EB000AB0542E361E885E00E94AB0542E361E8CF
:102EC00086E00E94AB0599CE80911303813009F012
:102ED00094CE81E0933009F080E080930F0310924C
:102EE000E9008091E800877F8093E8000E948C05CC
:102EF00084CE7F928F929F92AF92BF92CF92DF92B9
:102F0000EF92FF920F931F93CF93DF93CDB7DEB76E
:102F100064970FB6F894DEBF0FBECDBFA090FF023E
:102F2000B090000381E090E0909300038093FF0253
:102F30008FE3C82E82E0D82E00E0760110E015C0A5
:102F4000F40125913491472D612F802F0E945D144B
:102F500082E0880E911C7394E8E07E12F1CFF0E1DC
:102F6000EF0EF11C1F5F163019F04701712CE8CFEE
:102F70000F5F80E6C80ED11C0430F9F60E940C14D5
:102F80001A8219821C821B821E821D8218861F8251
:102F900088EC90E09A8789874AE050E069EC71E01C
:102FA000CE0101960E9485334AE050E063ED71E066
:102FB000CE0101960E9485334AE050E06DED71E04C
:102FC000CE0101960E9485338E01055F1F4F8AE076
:102FD000F80111928A95E9F74AE050E067EE71E056
:102FE000C8010E9485334AE050E061EF71E0C801FA
:102FF0000E9485334AE050E06BEF71E0C8010E9407
:1030000085334AE050E065E072E0C8010E948533F4
:10301000B0920003A092FF0264960FB6F894DEBF50
:103020000FBECDBFDF91CF911F910F91FF90EF9019
:10303000DF90CF90BF90AF909F908F907F9008953A
:103040006AEE7EEF90E080E00E947F3360E082E0F5
:1030500090E00E94613360E083E090E00E94613381
:103060001092910210929202109293021092940286
:1030700060E084E090E00E94613360E082E290E0F2
:103080000E94613360E085E090E00E94613360E07F
:1030900086E090E00E9461336FEF87E090E00E944D
:1030A000613340E050E0BA0188E090E00E94733361
:1030B00060E08DE090E00E94613340E050E0BA01B2
:1030C00088E190E00E94733360E087E190E00E9425
:1030D000613340E050E0BA018CE190E00E9473332C
:1030E00070E060E080E290E00E947F3340E050E0DA
:1030F000BA0188E190E00E94733340E050E0BA01E9
:103100008FE090E00E94733340E050E0BA0183E129
:1031100090E00C9473339B01843070F49AE0899FA3
:10312000B001112469517E4F4AE050E0C9010E946C
:10313000433390E080E008958FEF9FEF08952F9242
:103140003F924F925F926F927F928F929F92AF9237
:10315000BF92CF92DF92EF92FF920F931F93CF9384
:10316000DF93CDB7DEB764970FB6F894DEBF0FBE1E
:10317000CDBF7C01DC0113964D915C9114971196A3
:103180006C9111978C910E94EB08811165C121E02F
:10319000F701408151816281738184810E94A7136C
:1031A0008C01D70112968C918111F9C0F7014281EF
:1031B000411135C10031BFE51B0709F4DDC1013103
:1031C000EFE51E0709F4DCC1C80197558F3F910553
:1031D00011F008F03FC020910601022E000C330BC5
:1031E0002817390714F48093060126E1289F50011F
:1031F000299FB00C1124F501E255FE4F6F01408B61
:10320000D70112969C918681992309F4BBC112873C
:1032100001878F5F86830E94CC07F601968785879A
:1032200080919002878380918D0290918C02892BEE
:1032300080870190F081E02D309741F0D6015496BF
:103240006D917C91C5018C549E4F09951093AD01F1
:103250000093AC01D70112968C91882369F0C801C4
:10326000815E9C45059740F46FE1600F6093D0024A
:103270008CE090E00E94613317FFC4C1F7018281A6
:10328000882309F462C0E091DA02F091DB0280E069
:10329000309721F00190F081E02D0995869581709D
:1032A0008093F1019091D002913029F4882319F094
:1032B00089E30E94840E80918C028093F001109229
:1032C0008C028091D002813009F46DC1882309F409
:1032D00066C1823009F476C1843009F47AC18FE383
:1032E0009CE90197F1F700C000005801E894B7F895
:1032F000ECE0CE2ED12CC5010C2C02C09695879502
:103300000A94E2F78F7096EF980F963008F466C132
:10331000805D0E940C0F94E0C91AD108ACEFCA1668
:10332000AFEFDA0641F78091D002813009F45CC139
:10333000882309F455C1823009F452C1843009F45C
:103340005FC18091F00180938C024090070144207E
:1033500009F465C11092050210920402512C65E037
:10336000362E88248394912C22242394A090040246
:10337000B0900502F4E0AF16B10408F4BDC180912D
:103380000302882309F470C20E94CC0790930202C2
:103390008093010210920302511052C040C18091EB
:1033A00006018F3F09F402CFAEEACA2EA1E0DA2E61
:1033B000B12CA12C9924939480910601082E000C25
:1033C000990B8A159B050CF4F1CED60116968C91BB
:1033D00016978823E9F019968D919C910817190783
:1033E00039F48091AC019091AD010817190781F073
:1033F000F6019786148703878189811103C0C6016E
:103400000E947909C60106960E949A0910928D02BF
:10341000FFEFAF1ABF0A26E1C20ED11CCDCFC80103
:1034200082519F45409708F04BC78FEF93E00E9471
:103430005333FEEEDF2ED00E0FE012E0882389F129
:1034400080916802877041F0D70112968C91882391
:1034500019F082E00E94AC0A64960FB6F894DEBFC1
:103460000FBECDBFDF91CF911F910F91FF90EF90D5
:10347000DF90CF90BF90AF909F908F907F906F9094
:103480005F904F903F902F900895011534E01307FF
:10349000B9F2C8010E945333811101C0DA940F5F61
:1034A0001F4FD110F2CF19821A821B821C82CC24AA
:1034B000CA9448014FEF841A940AC8010E945333FA
:1034C00089831A82882309F4BBCF813009F048C070
:1034D000580152E0A50EB11CC4010E945333982E2E
:1034E0008A83882309F4ACCFC5010E945333D82EB8
:1034F0008FEF890D833068F4580183E0A80EB11C6A
:10350000DB82DD2021F0CE0101960E9403118501AE
:10351000D0CF94E09912FBCF5801A4E0AA0EB11CC1
:10352000C80103960E945333DD2009F489CF882314
:1035300009F486CF8150990BC89E9001C99E300D29
:103540001124ED2DE150FF0BCF01820F931F019746
:10355000F0F2AFE9BFE01197F1F700C00000F7CF3C
:10356000CE0101960E9403115401D1CF81E00E9447
:10357000C80A0E946D0A64CF81E00E94890AF9CFCF
:1035800082E0FBCF882309F465CE8189882309F482
:1035900061CEC5018C549E4F0E949A095BCE82EE8B
:1035A0000E94C50C9CCE88E193E00E94C80D8091DA
:1035B0008702909188020E94720F88E193E00E9436
:1035C000B30D8DCE82EE0E94C50C87E50E94840E5D
:1035D00086CE86EE0E94840E88E1F8CF895A99CE75
:1035E00082EE0E948C0BADCE8CE20E94840E809104
:1035F000F101882309F4A5CE89E30E94840EA1CEAF
:1036000088E2FBCF073FBCE51B0709F060C0F7016C
:103610008281882309F499CE81E08093070180910B
:10362000840280FF35C00E94CC076C01F7018281C3
:10363000882311F18091080182FF06C040E0B601A5
:1036400090E080E00E947C0F82E00E94FD070B3139
:10365000FCE51F0709F42DC10C312CE5120709F414
:1036600073C190910801892F8E7F90FF81600A318C
:103670003CE5130709F46BC10832110508F06DC170
:103680000E31110508F0AFC10430110508F078C102
:10369000033FFCE51F0709F4DEC108F0C6C1083D81
:1036A0003CE5130709F4D1C1093D4CE5140709F4C1
:1036B000E4C1073D5CE5150709F000C106E221EE13
:1036C00041EE67ED7CE5C7010E94A50EB9CE083F2B
:1036D000FCE51F0709F001C6D70112968C918823DB
:1036E00009F433CE109207011092020210920102E7
:1036F00081E00E94DD0D93CF3A9CF0013B9CF00DE0
:103700001124E654FD4FBE01655F7F4F80810E940A
:103710008B18892B61F0712C5728809104029091AD
:103720000502019690930502809304021FCEFE01CC
:103730003B9690E080E066246A94282F4191519155
:103740004115510589F10417150709F4682E0196F2
:103750008430910591F724E0FFEF6F16E1F2D70175
:1037600012967C903A9CC0013B9C900D1124FC0168
:10377000E654FD4F6F018481A40102C0440F551F20
:103780002A95E2F79A01215031097720A1F1A4018D
:1037900001C0440F6A94EAF7842B84838F778217E1
:1037A000130631F0742CB8CF823008F4B4CFD4CFE4
:1037B00080E00E94DD0DD60114968C9114978068EC
:1037C00014968C93149712968D919C91009729F0E2
:1037D0000E94C80D209203029FCFBE016F5F7F4FF2
:1037E000809104020E948B18892BA1F789859A8504
:1037F0000E949625EFCF8F778217130631F48281CE
:103800009381009719F10E94B30D3A9CF0013B9C03
:10381000F00D1124E654FD4F4481242F30E0062C96
:1038200002C0359527950A94E2F720FF74CFC401B2
:1038300001C0880F6A94EAF780958423848387FF08
:103840006ACF803809F0AECF1482ACCFBE016F5F73
:103850007F4F809104020E948B18892BB1F68985D5
:103860009A850E946725D1CF511006C081E00E9441
:10387000DD0D0E94DF09D3CED70112968C918823EB
:1038800009F4DECD0E94CC079093020280930102DE
:10389000E0910002E73008F0D3CD81E08E0F8093F5
:1038A0000002F0E0EE0FFF1FEE50FE4F1183008389
:1038B000C7CD80910801816080930801F7013281B2
:1038C000332309F419C510920A020230FCE51F07E0
:1038D00008F446C506312CE5120730F0C8018A5FAE
:1038E0009C45099708F03CC50E944E119093CF0269
:1038F0008093CE0200313CE5130709F46CC108F057
:10390000FFC008305CE5150709F45BC108F0CEC0C4
:1039100004309CE5190709F44CC108F0B4C002302A
:10392000BCE51B0709F43FC18091CE0282600330E1
:103930001C4509F43BC18091CE029091CF020E94B8
:10394000D0130E9492147CCD809108018E7F8093C9
:10395000080182E00E94FD07B1CF0933110560F430
:103960000D32110520F40B32110509F091CE809132
:10397000840282FD8DCE08C004361105C1F388CEC5
:103980008091840284FD84CED70112968C91882385
:1039900009F445C08091080180FF7ACE909184029D
:1039A00091FD04C020918C02211172CE95FF26C09A
:1039B00096FD02C081FD22C02091080230910902CB
:1039C000F601E21BF30BE83CF105C0F4209106027E
:1039D000309107020217130789F481FD09C0802F77
:1039E0000E94C50C2DCD8091840283FD51CECCCF99
:1039F00080918D02826080938D02F1CF1093070237
:103A000000930602D0920902C09208028091080138
:103A100084608093080182E00E94AC0A11CD40E0EE
:103A2000B601C8010E947C0F0BCD053F8CE518073D
:103A3000F1F0B8F0063FACE51A0709F03FCF07E216
:103A400025EE46EE66EF7CE53ECE07E225EE45EE3E
:103A500068ED7CE538CE06E221EE40EE63EF7CE5D2
:103A600032CE07E225EE44EE64EF7CE52CCE06E292
:103A700021EE42EE65EF7CE526CE08E221E045EE40
:103A800069ED7CE520CE8091CE0280610630FCE5B8
:103A90001F0709F48BC08091CE02886007301C4557
:103AA00008F484C08091CE02806280C08091CE02F2
:103AB0008D7F0C303CE5130709F478C070F48091D9
:103AC000CE028C600A305CE5150709F46FC008F47B
:103AD0007CC08091CE028E7F69C08091CE02877FAC
:103AE0000E309CE5190709F461C08091CE028B7FEE
:103AF0000F301C4508F45AC08091CE028F7E56C00C
:103B00000B3FBCE51B0709F458C030F50331FCE559
:103B10001F0709F468C078F401313CE5130709F484
:103B20005EC002311C4509F006CF0E9492148091BC
:103B3000CE028F773BC005315CE5150709F45BC009
:103B400008F46FC08091CF0281600A3F1C4509F0E4
:103B5000F2CE8093CF02EFCE0F3FACE51A0709F407
:103B600046C088F48091CF028D7F0D3FECE51E07A3
:103B700081F38091CF028E7F0E3F1C4550F38091E0
:103B8000CF028360E6CF01302DE5120709F452C061
:103B9000F0F160E002301D4509F0CDCE8EE090E0FE
:103BA0000E946133C8CE8091CE0281608093CE02A4
:103BB000C2CE8091CE028460F9CF8091CF02826024
:103BC000C8CF8091CE028064F1CF0E949214809180
:103BD000CE028068EBCF8091CE028F7DE7CF8091BF
:103BE000CE028F7BE3CF8091CE02837FDFCF8091A7
:103BF000CF028C7FAECF8091CE0282FB992790F9C5
:103C000021E0922790FB82F990FB83F9CFCF80913E
:103C1000CF02982F909591708E7F892B90FB81F920
:103C200098CF0E9492149091CE02892F97FB87F92A
:103C30008058BCCF61E0B2CF80910B0281110FC0E0
:103C400089E2EEE8F1E024E931E09191891303C0C3
:103C5000DF0111971C922E173F07B9F77EC385E34A
:103C6000F0CF0B35BDE51B0701F10C351D4509F003
:103C70008BC38091CF0282FB882780F991E089274E
:103C80000E94DD1381C30E949214FFEF24E33CE005
:103C9000F15020403040E1F700C000000E94AC0726
:103CA0000E942018CDCB81E0EBCF80E0E9CFC801A6
:103CB0000E946E08D82E77C3E12FEF70BE2E812FA1
:103CC000807F19F0B29420EFB222CC20C9F0BB2043
:103CD00069F080E2800F883010F081100BC0809175
:103CE0008C02B82AB0928C020E942C08802F0E946D
:103CF000C50C16C080918D02B82AB0928D02F4CF07
:103D0000802F0E948C0BBB2059F080E2800F8830FE
:103D100010F081103EC08B2D0E9404080E942C08D8
:103D2000492D4850550B4430510510F40E946D093F
:103D3000C8010E94000981119DC210920D021092CB
:103D40000C02AA20A9F08091680280FD11C0F70141
:103D500012828595859585950E94C80AC7010E94A3
:103D60009F18809168028595859585950E94890A9E
:103D700020E0D7014C9111965C91119712966C91AD
:103D8000129713967C91139714968C910E94A71307
:103D900063CB8B2D0E94FD07C1CFF12FFF70BF2E8B
:103DA000812F807F803219F0B29490EFB922882061
:103DB00031F144244394841409F46FC0CC2009F4F5
:103DC00079C0DD2009F449C020E0D7014C9111965B
:103DD0005C91119712966C91129713967C911397A0
:103DE00014968C910E94A7138091860281FD7ECF4C
:103DF000F701858180FF7ACF8F7085832EC0CC201C
:103E000071F1D11006C0809190028B290E94370970
:103E100087CF55245394D51013C08091CF0282FDD3
:103E20007FCF80919002B82AB81609F479CF0E940A
:103E3000CC0790938F0280938E02B092900270CF45
:103E4000809185028230F8F2D812DDCF0E94F2070D
:103E500080916502B812B09265028B2DD7CFD11038
:103E600006C00E94F2078B2D0E94300959CF809125
:103E7000850266246394D6100BC0823008F450CFBC
:103E800080918C028B2109F44BCF0E946808E9CF06
:103E9000823038F3D812E5CF43CFCC2031F085E023
:103EA000782E7D1408F43CCFD8CF24E02D1508F4EB
:103EB00037CFD9CFDD20B9F2F9E38F12D3C180918A
:103EC000890290918A020E94720F802F0E948C0BAF
:103ED00027CF812F86958695837061F0813009F018
:103EE0001FCFC8019370C11002C090E080E00E9413
:103EF000410916CFC8019370C11002C090E080E064
:103F00000E9457090DCF802FCC2039F00E945D0C04
:103F10000E941F0A0E941F0A03CF0E94090BFACFBA
:103F2000812F837009F067C0C110FACE202F22952F
:103F300026952770220F220F402F4F7050E070E01F
:103F400060E0022E04C0440F551F661F771F0A94BD
:103F5000D2F780E090E0DC0104FF0FC08FE090E03A
:103F6000A0E0B0E004C0880F991FAA1FBB1F2A95CC
:103F7000D2F780959095A095B095212F26952695FE
:103F80002370223029F1D8F440909102509092028F
:103F90006090930270909402213069F0842B952BED
:103FA000A62BB72BBC01CD01642175218621972159
:103FB0000E94FF0AB5CE44295529662977292A018E
:103FC0003B01482A592A6A2A7B2AC301B201F0CF51
:103FD000842B952BA62BB72B4090910250909202E8
:103FE0006090930270909402BC01CD016425752508
:103FF00086259725DDCF8695CC2011F0812F817005
:10400000882309F48DCE202F229526952770220F24
:10401000220F402F4F7050E070E060E0022E04C08D
:10402000440F551F661F771F0A94D2F780E090E077
:10403000DC0104FF0FC08FE090E0A0E0B0E004C01E
:10404000880F991FAA1FBB1F2A95D2F780959095BC
:10405000A095B095212F269526952370223029F121
:10406000D8F44090070450900804609009047090C0
:104070000A04213069F0842B952BA62BB72BBC01A9
:10408000CD0164217521862197210E94630A48CEC3
:1040900044295529662977292A013B01482A592AAA
:1040A0006A2A7B2AC301B201F0CF842B952BA62B61
:1040B000B72B40900704509008046090090470905A
:1040C0000A04BC01CD016425752586259725DDCF21
:1040D000212F2F70B22ECC2029F0822F0E94C80AE7
:1040E000802F94CE802F0E9430098B2D0E94890A48
:1040F00017CE802F32EF831609F45BC0381578F0A5
:1041000040EF841669F151EF851609F44AC0CC20BE
:1041100009F4A3C0D110EACD812F8F7147C093EF6E
:10412000891609F44BC0A4EF8A12F1CF20918502C1
:10413000223008F47AC080916502CC2009F462C074
:104140000E940408809168028770843009F04AC098
:104150000E940B08812F8F710E94890AA12CE0CD4B
:10416000CC20D1F0B4E0BD1508F4DACD212F2F71A9
:1041700061E070E080E090E004C0660F771F881F68
:10418000991F2A95D2F74090070450900804609038
:10419000090470900A0497CFE5E0ED1508F4C0CD4E
:1041A000E5CF812F8F71CC2009F4A0CF0E94C80ADF
:1041B000B7CD812F8F71CC20C9F398CF60E070E02C
:1041C000CB01CC2009F461CF212F2F7161E070E089
:1041D00080E090E004C0660F771F881F991F2A9522
:1041E000D2F753CF80918502D81608F0B7CFF12FC0
:1041F000FF71BF2E8F2F0E94C80A63E08B2D0E9493
:10420000E90AACCF90918C02982B90938C02D21635
:1042100040F00E940B080E94680864E0812F8F71B3
:10422000EECF81E00E94AC0A99CFCC2059F0212F2B
:104230002F71B22E822F0E94C80A63E08B2D0E943C
:10424000E90A6ECD81E00E94AC0A31E03D1508F02C
:1042500067CD82E00E94AC0A63CDDD2041F0893356
:1042600009F42DCE80918702909188022CCE812F67
:104270008F713CCFCC2019F0D1105FCD62CDD11021
:104280005CCD20E0D7014C9111965C91119712966C
:104290006C91129713967C91139714968C910E94AF
:1042A000A7138091860283FF48CD80910C029091E4
:1042B0000D02029709F041CD802F0E94840E3DCD62
:1042C0000031FFE51F0709F451C901312FE512073D
:1042D00011F00C94E41882E04AC9093F3CE5130749
:1042E00009F033C8F7018281882309F42EC8809130
:1042F00007018111F7C990C906311C4509F044C076
:1043000080918C02982F9A7A2091830220FF04C01A
:10431000482F447409F090E021FF04C0482F4171F8
:1043200009F090E022FF04C0482F487809F090E09F
:1043300023FF03C0827209F090E0332309F47CCCA0
:1043400081E0911101C080E080930B0269E291113C
:1043500065E38CE891E00E94D8070E942C0870C8A1
:1043600006315CE5150761F20A355DE5150709F4CC
:104370009ACC08F076CC01159CE5190709F483CC9A
:104380000E3D1C4509F48CCCF7018281008111811E
:10439000882309F48CCCC8010E945713D82E682FAB
:1043A000C8010E949B08B8018D2D0E94CD118C017F
:1043B000882ED7011296CC9012971596DC90D29445
:1043C0004FE0D422809168028770A1F0AC2CCC2001
:1043D00091F0812F807F803421F080E2800F88303F
:1043E00048F082E00E94AC0A809168028770AA249B
:1043F000A3948111A12C912E92943FE09322BBE0D3
:10440000B91508F48DCCE92DF0E0E954FC4C0C947E
:104410001D33BF92CF92DF92EF92FF920F931F93C3
:10442000CF93DF9380911402807F61F48091110219
:10443000882341F0C091460286E0B82E8091150293
:104440008C130AC0DF91CF911F910F91FF90EF90D5
:10445000DF90CF90BF900895F0900F02E09010028F
:10446000C0901202D0901302A6016E2D8F2D0E94D3
:10447000EB08D0E0811141C0BC9E8001BD9E100DB3
:104480001124F801EA5EFD4F51815E1136C0408172
:104490004F1133C08281811130C0E380F480EC1869
:1044A000FD0820E0609111027091120280911302C8
:1044B0000E94A7138091810290918202E816F9066A
:1044C000E0F4809114028F70806180931402F801EF
:1044D000E55EFD4F80818F70806180838FE092E088
:1044E0000E949F18DF91CF911F910F91FF90EF9045
:1044F000DF90CF90BF900C94F6082196C7709ECFA6
:104500005F926F927F928F929F92AF92BF92CF9263
:10451000DF92EF92FF920F931F93CF93DF93CDB76C
:10452000DEB761970FB6F894DEBF0FBECDBF8C012A
:1045300085E0F801DE011D9601900D928A95E1F764
:10454000D8017C901196EC90119712966C908FE0A8
:10455000A82E82E0B82E8090120290901302A4013F
:104560006091100280910F020E94EB088111C7C177
:10457000F801C380D480F0901102C601881999090E
:104580004C0120E040910F0250911002FF2009F4ED
:104590005DC16F2D70911202809113020E94A713CA
:1045A000809181029091820250901402881699069F
:1045B00008F00DC14091120250911302B0900F0209
:1045C000A0901002852D807F6A2D09F0B9C08B2D37
:1045D0000E94EB08F62C81112BC0EA1029C07B1039
:1045E00027C0611025C0852D8F70806180931402D3
:1045F0008FE092E00E949F1880911402D8011596D6
:104600008C938F2D61960FB6F894DEBF0FBECDBF91
:10461000DF91CF911F910F91FF90EF90DF90CF909E
:10462000BF90AF909F908F907F906F905F90089514
:1046300020E040910F0250911002609111027091A0
:104640001202809113020E94A7138091810290911F
:104650008202843F9140F8F0A6016E2D872D0E94C2
:10466000EB08811154C081E0862580FF25C0462DCE
:104670006E2D872D0E94CB088823F1F08FE092E009
:104680000E949F1886E0EFE0F2E0DF011D928A951C
:10469000E9F7F12CB6CF20E040910F0250911002C3
:1046A0006091110270911202809113020E94A7136F
:1046B0008091860280FDD0CFA6016E2D872D0E94AD
:1046C000EB08811126C081E08625B82FB170CB2E72
:1046D00080FF2DC0462D6E2D872D0E94CB08D82E31
:1046E000811125C07D86EE868D859E850E94991359
:1046F000292F22952F70223070F0243098F49F706B
:1047000071F0F8019581907F51F4FD2C7ACF80E013
:10471000ACCF80E0DACF9F7011F08823B1F3805ED8
:10472000883098F3C8010E949F18DC2CEECF6620D9
:1047300009F467CF80911402816080931402A9CF9D
:104740008B2D0E94EB08811115C0EA1013C07B105D
:1047500011C061100FC0D80115965C92C8010E946B
:104760009F1886E0F801AFE0B2E001900D928A95C3
:10477000E1F747CF7D86EE868D859E850E94A31347
:10478000882309F16620F9F080911402803270F0DC
:1047900020910F023091100238872F831986DB8613
:1047A000CA868C87CE0107960E949F1886E0F80182
:1047B000AFE0B2E001900D928A95E1F70E940922E4
:1047C000FF24F3941ECFC8010E949F18F9CF852DB6
:1047D000807F09F453CF90900F0280901002409197
:1047E000120250911302682D892D0E94EB0881114D
:1047F00011C0E8100FC079100DC061100BC0F80196
:104800005582C8010E949F1886E0D5011D928A95A5
:10481000E9F7F7CE7D86EE868D859E850E94A313EF
:10482000882389F2662079F280911402803208F49C
:10483000BDCF20910F02309110023A8329831B8251
:10484000DD82CC828E83CE010196AECF60E0709186
:104850001202809113020E94A7138091810290910D
:1048600082028816990680F6F62C662009F4ABCFF2
:10487000D0900F02C090100240911202509113028A
:104880006C2D8D2D0E94EB08811128C0EC1026C0E4
:104890007D1024C020E0472D5E2D609111027091A3
:1048A0001202809113020E94A7138091860282FD5A
:1048B00058CF9091140290FD54CF907F09F451CFBE
:1048C00080911402F8018583903F09F447CF982F17
:1048D000907F905F8F70892B858340CF7D86EE8699
:1048E0008D859E850E94A313811160CF8091140253
:1048F000816080931402C8010E949F1882CE6620B6
:1049000009F461CF7D86EE868D859E850E94A31376
:10491000F82E882309F457CF86E0F801AFE0B2E023
:1049200001900D928A95E1F780910F02909110020B
:104930000E9499130E94092264CECF92DF92FF92C7
:104940000F931F93CF93DF93CDB7DEB767970FB663
:10495000F894DEBF0FBECDBFF42E4B8B052F5C8BC2
:10496000162F6D8B7E8B8F8BCE88DF88A601602FF4
:104970008F2D0E94EB08811109C080910C0290914B
:104980000D02019690930D0280930C02111110926A
:104990008D021A8A198AFD860E871F87D98AC88ACE
:1049A00080916B0290916C02892BC1F00E94CC0720
:1049B0002091660230916702821B930B20916B025B
:1049C00030916C028217930720F08091680282FF79
:1049D0007AC00E94120881110E94F20786E0FE014F
:1049E0003D96DE01179601900D928A95E1F7CE0172
:1049F00007960E948022811111C086E0FE01379641
:104A0000DE01119601900D928A95E1F74A855B854A
:104A100068858F810E94EB088823A9F016E08091B9
:104A200046029091150289133BC067960FB6F89421
:104A3000DEBF0FBECDBFDF91CF911F910F91FF90D1
:104A4000DF90CF9008952091150230E0C9010196C2
:104A500087709927409146024817190699F096E009
:104A6000929FD001939FB00D1124AA5EBD4FFE010D
:104A7000319601900D929A95E1F7809315020E946C
:104A8000F608CCCF0E9492141092150210924602A2
:104A900086E0EFE0F2E0DF011D928A95E9F7BECFF4
:104AA000819FC00111248A5E9D4F0E94802288232D
:104AB00009F4BBCF8091460290E001968770992758
:104AC00080934602ACCF82E00E94AC0A82CFCF93A3
:104AD000DF9300D000D00F92CDB7DEB79093A50141
:104AE0008093A401811520E2920748F40F900F9063
:104AF0000F900F900F90DF91CF910C94B30D8EEF2C
:104B000089838A831B820E94CC078160782F9D83D2
:104B10008C8349815A816B818D810F900F900F900A
:104B20000F900F90DF91CF910C949D24CF93DF9342
:104B300000D000D00F92CDB7DEB79093A50180933F
:104B4000A401811520E2920748F40F900F900F9076
:104B50000F900F90DF91CF910C94C80D8EEF898349
:104B60008A8381E08B830E94CC078160782F9D83AC
:104B70008C8349815A816B818D810F900F900F90AA
:104B80000F900F90DF91CF910C949D24CF93DF93E2
:104B9000EC010E94962580918702909188020E94E4
:104BA000720FCE01DF91CF910C9467259B0183306A
:104BB00070F49AE0899FB001112467537E4F4AE058
:104BC00050E0C9010E94433390E080E008958FEFE8
:104BD0009FEF08958F929F92AF92BF92CF92DF92F4
:104BE000EF92FF920F931F93CF93DF93CDB7DEB772
:104BF0002A970FB6F894DEBF0FBECDBF0EEA11E0C4
:104C0000F12CE12C80E4C82E86E2D82E9AE6A92E5B
:104C100096E2B92E26EE822E26E2922EF801D1825D
:104C2000C082B382A28295828482F58AE48ABE0120
:104C30006F5F7F4F8E2D0E94D625892B29F48985A1
:104C40009A85F801938B828BFFEFEF1AFF0A0A5EB9
:104C50001F4F83E0E816F10409F72A960FB6F8947F
:104C6000DEBF0FBECDBFDF91CF911F910F91FF909F
:104C7000EF90DF90CF90BF90AF909F908F9008956E
:104C80000F931F93CF93DF938C01862F6AE971E016
:104C90000E94D625892BC9F4C0919A01D0919B011D
:104CA000209799F0F8018081833069F4CE010E9449
:104CB000C625CE010E94C625CE01DF91CF911F915E
:104CC0000F910C94C6258430B8F7DF91CF911F91D6
:104CD0000F9108950F931F93CF93DF938C01EB01F6
:104CE0006AE971E08C2F0E94D625892B09F064C0F7
:104CF000FE01FF27D8018C91E956FE4F8130D9F48F
:104D000019969C911997992311F080830CC01A96DB
:104D10009C919923D1F382E0808380919C019091B2
:104D20009D010097D9F480919A0190919B01009781
:104D300009F442C013C08230E9F519968C91199795
:104D400081112DC01A968C9181110EC083E0808351
:104D500080919E0190919F01009719F1DF91CF9171
:104D60001F910F910C94962584E080838091A0017F
:104D70009091A101009791F780919A0190919B01E8
:104D80000097F9F00E94C62580919C0190919D01A9
:104D9000009721F780919A0190919B01DFCF85E0E8
:104DA000808380919A0190919B01009729F00E9445
:104DB000C625F0CF86E08083DF91CF911F910F91C0
:104DC000089580919C0190919D01B1CF0F931F9305
:104DD000CF93DF938C01EB016AE971E08C2F0E9485
:104DE000D625892BA1F480918702909188020E9498
:104DF000720FDD27C956DE4F8881F80110821882B4
:104E0000833009F148F4813059F0823081F0DF912C
:104E1000CF911F910F9108958430D1F08530B9F76B
:104E200080919A0190919B01009789F306C080912F
:104E30009C0190919D01009799F3DF91CF911F9173
:104E40000F910C94672580919E0190919F01F3CF63
:104E50008091A0019091A101009779F720919A018A
:104E600030919B0180919C0190919D01211531050C
:104E7000D9F2009711F7C901E0CF7F928F929F92EC
:104E8000AF92BF92CF92DF92EF92FF920F931F9358
:104E9000CF93DF93CDB7DEB7AF970FB6F894DEBFF1
:104EA0000FBECDBF962FBA012132310508F0AAC03E
:104EB00040EF49831A821B821C82790142E0E40E92
:104EC000F11C0CE210E00E191F09A1E0B0E0AC0FDC
:104ED000BD1F0A0F1B1FF80180839183A901C80120
:104EE00002960E943333C70167E070E00E94F532FA
:104EF0009B01B801FE01319650E040E024173507D0
:104F000009F094C0C70167E070E00E94F532A90182
:104F100063E0440F551F6A95E1F70097B1F1E5E0B2
:104F2000F0E0EC0FFD1FE40FF51F1082A7E0A29F39
:104F3000B001A39F700D1124060F171FDA011596FB
:104F4000CC24C394D12CCC0EDD1ECA0EDB1E70E027
:104F500060E0D801FD908D016F5F7F4F2F2D20788D
:104F600030E0062E02C0359527950A94E2F730818D
:104F7000232B20832F2D2F77D6012D936D0186179C
:104F8000970739F70196480F591F5A01B5E0AB0E44
:104F9000B11CE5E0F0E0EC0FFD1F4E0F5F1F87EF47
:104FA000DA018C93F12CE12C1DA61EA61FA665012B
:104FB000CE18DF08B4E0CB16D10418F083E0C82E79
:104FC000D12C61E070E06C0F7D1F6E0D7F1DA6017E
:104FD000CE018D960E943333E0911A03F0911B03AA
:104FE0000FA52EA54DA5B6018AE193E00995E3E052
:104FF000EE0EF11CEA14FB04B8F20FB6F894DEBF13
:105000000FBECDBFAF960FB6F894DEBF0FBECDBFBB
:10501000DF91CF911F910F91FF90EF90DF90CF9094
:10502000BF90AF909F908F907F90089514825F0102
:1050300085E0A80EB11C6B0190E080E0D6017D9068
:105040006D010196A72DA078B0E0082E02C0B5959D
:10505000A7950A94E2F7B481AB2BA483E89477F880
:10506000D5017D925D018730910541F74F5F5F4F1C
:10507000695F7F4F389642CF2F923F924F925F9257
:105080006F927F928F929F92AF92BF92CF92DF9258
:10509000EF92FF920F931F93CF93DF93CDB7DEB7BD
:1050A000A4970FB6F894DEBF0FBECDBFF9016450D0
:1050B000710990E080E0841708F05AC077FD34C190
:1050C000DF01A80FB91F3C91373F09F025C1462FDA
:1050D0004770542E5B0153E0B694A7945A95E1F7BC
:1050E00027E02A9DC0012B9D900D11249C01442393
:1050F00021F0240F311D215031096230710514F166
:10510000DE01119645E9242E42E0342E10E000E045
:105110003D010A151B0509F04BC0552099F0687F29
:10512000AB014B565D4F7A01DA01860D971D70E099
:1051300060E0E52DE150FF0B8F01119660177107BC
:1051400008F45CC08981823360F5803388F4813152
:1051500079F048F4803109F467C0AE014F5F5F4FCA
:1051600060E080E882C0803209F459C08132A9F73A
:10517000A4960FB6F894DEBF0FBECDBFDF91CF91DE
:105180001F910F91FF90EF90DF90CF90BF90AF9065
:105190009F908F907F906F905F904F903F902F9057
:1051A00008958034D0F2823418F38038B1F6E0CF1D
:1051B000F1018080912C6D0141E050E07101E40E1D
:1051C000F51EF7014080E89447F87401042E01C0F1
:1051D000EE0C0A94EAF7FE2DF078EF2EE428F601A3
:1051E000E1926F014F5F5F4F4830510539F70F5F14
:1051F0001F4F1796F8E02F0E311C8BCF6F5F7F4F3C
:10520000F7014081062E01C0440F0A94EAF7407866
:105210005C915F77452BFC014193CF018ECF8A8152
:10522000823061F08430B1F0EA81E150ED3008F075
:105230009FCFF0E0ED53FC4C0C941D336B8183E069
:1052400090E00E9461336B8170E090E080E00E940A
:10525000FF0AEACF8B8190E00E94D013E5CF30E0C7
:1052600020E050E040E061E081E10E943D2780CFF6
:1052700082E090E00E94533389A321E030E0AE0148
:105280004F5D5F4F68E0F0CF83E090E00E945333C2
:1052900089A321E030E0AE014F5D5F4F62E0E4CFD3
:1052A00060910704709108048091090490910A04A8
:1052B0000E94233369A37AA38BA39CA324E030E04C
:1052C000AE014F5D5F4F63E0CFCF30E020E050E0B4
:1052D00040E069E0C9CF30E020E050E040E065E028
:1052E000C3CF30E020E050E040E066E0BDCF0E9458
:1052F0004E1189A321E030E0AE014F5D5F4F64E0C5
:10530000B3CF86E089A388E08AA322E030E0AE0133
:105310004F5D5F4F6DE0A8CF653271050CF028CF6F
:10532000DB01AB56BD4F3C936F5F7F4F0196C3CE01
:105330001F920F920FB60F9211242F933F934F930A
:105340005F936F937F938F939F93AF93BF93CF930D
:10535000DF93EF93FF93D091E900DF708091EC0031
:10536000C82FC17080FDC0E81092E9008091F00064
:10537000877F8093F00078940E949D141092E9003A
:105380008091F00088608093F000CD2BCF70C093A7
:10539000E900FF91EF91DF91CF91BF91AF919F9184
:1053A0008F917F916F915F914F913F912F910F90CE
:1053B0000FBE0F901F9018951F920F920FB60F926D
:1053C00011242F933F934F935F936F937F938F930A
:1053D0009F93AF93BF93EF93FF938091E10082FF80
:1053E00009C08091E20082FF05C08091E1008B7FBF
:1053F0008093E1008091DA0080FF24C08091D80082
:1054000080FF20C08091DA008E7F8093DA00809147
:10541000D90080FF9BC080E189BD82E189BD09B4CC
:1054200000FEFDCF81E08093190380910303811179
:1054300009C00E94C0040E94DD058091E2008460E2
:105440008093E2008091E10080FF17C08091E2002C
:1054500080FF13C08091E2008E7F8093E2008091F4
:10546000E20080618093E2008091D80080628093A6
:10547000D80019BC85E0809319038091E10084FF76
:1054800029C08091E20084FF25C080E189BD82E1CE
:1054900089BD89B5982F917080FFFBCF8091D8008E
:1054A0008F7D8093D8008091E1008F7E8093E10012
:1054B0008091E2008F7E8093E2008091E200816023
:1054C0008093E20080911003882309F445C084E0B2
:1054D000809319038091E10083FF27C08091E2004F
:1054E00083FF23C08091E100877F8093E10082E009
:1054F00080931903109210038091E1008E7F8093B6
:10550000E1008091E2008E7F8093E2008091E200D2
:1055100080618093E20042E060E080E00E94AB05A1
:105520008091F00088608093F000FF91EF91BF912F
:10553000AF919F918F917F916F915F914F913F912B
:105540002F910F900FBE0F901F90189519BC1092BD
:1055500019031092030376CF8091E30087FD93E057
:1055600090931903B7CFCDB7DEB7E5970FB6F89490
:10557000DEBF0FBECDBF10923F03109241031092C9
:10558000400380EC8093040482E493E0909306044B
:1055900080930504109203041092020410921F03DA
:1055A00010921E03109221031092200310922303E5
:1055B00010922203109225031092240310922703C5
:1055C00010922603109229031092280310922B03A5
:1055D00010922A0310922D0310922C0310922F0385
:1055E00010922E0310923103109230031092330365
:1055F00010923203109239031092380386EC96E031
:1056000090931B0380931A0381E297E090933B03EE
:1056100080933A038EE996E09093370380933603A4
:105620008FE996E090931D0380931C038CE398E22E
:10563000909335038093340384B7877F84BF0FB67C
:10564000F894A89580916000886180936000109222
:1056500060000FBE80E890E00FB6F8948093610080
:10566000909361000FBE85B7806885BF85B780685D
:1056700085BF8CE996E090938B0180938A010E940C
:10568000EA251092BB021092BA0281E090E090935A
:10569000C0028093BF0282E090E09093C5028093A5
:1056A000C40283E090E09093CA028093C9020E94F2
:1056B0005C110E94C0040E94DD058091E2008460BC
:1056C0008093E2007894809119038823A1F01091CF
:1056D000E9001F709091EC00892F817090FD80E8A7
:1056E000182B1092E9008091E80083FD0E949D1420
:1056F0001F701093E90082E084BD93E095BD9AEF9E
:1057000097BD80936E0083E90E94220D82E90E947A
:10571000220D81E90E94220D80E90E94220D84E978
:105720000E94220D86E60E94220D02E711E0D801B8
:105730008D918D010E94220DB1E00A371B07B9F748
:10574000E4EDF2E08AED92E0A5EFB2E011921D9255
:105750008E179F07D9F790E080E00E945B338A3E66
:105760009E4F11F00E94201882E090E00E94533377
:105770008093EA020E944E119093CF028093CE0252
:105780000E94DC0FFFEF26E731E0F150204030406F
:10579000E1F700C000000E94DC0F8091F50280FF5D
:1057A00017C06FEF83E290E00E9461336FEF84E2F5
:1057B00090E00E9461336FEF85E290E00E946133D8
:1057C0006FEF7FEF90E080E00E947F330E94AC0794
:1057D00083E090E00E945333682F70E090E080E017
:1057E0000E94FF0A8CE090E00E94533390E0B0E00A
:1057F000A0E08093D0029093D102A093D202B09304
:10580000D30283E290E00E9453338F3909F080C6BF
:1058100084E290E00E945333893809F079C685E22A
:1058200090E00E945333823809F072C689E191E01A
:105830009093DB028093DA02B8E12B2E312C85EFB6
:1058400092E046E0480F4DAB8091190300E112E170
:10585000853009F458C10E94DC0F882359F08FB7B6
:10586000F8944091FB025091FC026091FD0270910E
:10587000FE028FBFEBEEF2E0A5EFB2E010E000E039
:10588000302F8D919191981709F44CC1292F282719
:1058900090E0FF24F394422F4F2109F43EC19BA7CF
:1058A0003CA78F2191E009F490E09DA70E94CC07CE
:1058B0008160782F9FA78EA74BA55CA56DA58FA5AE
:1058C0000E949D24F801E551FD4F8081F826F08269
:1058D00086E0E3EEF2E08E010F5F1F4FD8010190EA
:1058E0000D928A95E1F7C090E502D090E602E09033
:1058F000E702F090E8021092E5021092E6021092A0
:10590000E7021092E8028C2D8D2991F08091E1023E
:105910009091E2020E94BD07AC019091E0029923B0
:1059200009F417C180910C018417150608F41FC1F2
:105930008E2D8F2991F08091DE029091DF020E94DE
:10594000BD07AC019091DD02992309F44FC180910C
:105950000A018417150608F457C18091E502909159
:10596000E602892B9091E702892B9091E802892B1E
:1059700011F00E941F0A86E0F801A3EEB2E0019048
:105980000D928A95E1F7E0913A03F0913B0330974D
:1059900019F08AE193E009959FB7F894E090030429
:1059A00080910204E81608F46EC1E81A9FBFD12C5A
:1059B000C12CF12CE3E08E2E912CAA24A394B12CBF
:1059C000A4E05A2E44244394CE14DF0408F45FC1AB
:1059D0000E946D099091E902891721F00E946D09DA
:1059E0008093E902809119038430E1F480910E01E3
:1059F0008F708093E9009091E80090FF13C0909120
:105A00001903943079F48093E9009091F300809128
:105A1000F200892B39F08091E8008E778093E800BE
:105A20000E94DF0480911903843009F00DCF83E0D8
:105A30008093E9008091E80082FF06CF8091E80022
:105A400090E085FF08C050E040E060E270E0C801EF
:105A50000E94620591E08091E8008B778093E800D6
:105A6000992309F4F1CEE0900103F09002038981BB
:105A7000E114F10409F4C0C18E3F09F04AC28A81E1
:105A8000833020F08550833008F043C2EA81EE3045
:105A900008F03FC2F0E0E053FC4C0C941D338091C1
:105AA0001903843011F11092DC0280E40FB6F894EF
:105AB000A895209260000FBE8093600083B7817F1D
:105AC000846083BF83B7816083BF7894889583B7F0
:105AD0008E7F83BF0FB6F894A8958091600088618F
