:100000000C9469030C94B0030C94B0030C94B003EB
:100010000C94B0030C94B0030C94B0030C94B00394
:100020000C94B0030C94B0030C948A250C944625D0
:100030000C94772D0C94B0030C94B0030C94B00383
:100040000C94B0030C94B0030C94B0030C94B00364
:100050000C94B0030C94532D0C94B0030C94B00387
:100060000C94B0030C94B0030C94B0030C94B00344
:100070000C94B0030C94B0030C94B0030C94B00334
:100080000C94B0030C94B0030C94B0030C94B00324
:100090000C94B0030C94B0030C94B0030C94B00314
:1000A0000C94B0030C94B0030C94B0030501090246
:1000B000A10185020901A100050919012905150001
:1000C00025019505750181029501750381010501E1
:1000D000093009311581257F950275088106093897
:1000E0001581257F950175088106050C0A380215D2
:1000F00081257F950175088106C0C005010980A191
:1001000001850319012AB700150126B7009501756D
:10011000108100C0050C0901A101850419012AA064
:1001200002150126A002950175108100C00660FF2E
:100130000961A1010962150026FF0095207508815B
:10014000020963150026FF00952075089102C0057D
:10015000010906A101050719E029E7150025019508
:1001600008750181029501750881010507190029AB
:10017000FF150026FF009506750881000508190186
:100180002905950575019102950175039101C0003E
:10019000000000000000000000000000000000005F
:1001A000000000000000000000000000000000004F
:1001B0000000007E0F00D4FFFFFFC70000007800A2
:1001C000000000000000002A2B28000000000000B2
:1001D0000000000000000000000029000000002CCA
:1001E0001E3420212224342627252E362D37382769
:1001F0001E1F202122232425263333362E37381F75
:100200000405060708090A0B0C0D0E0F1011121336
:100210001415161718191A1B1C1D2F3130232D35D4
:100220000405060708090A0B0C0D0E0F1011121316
:100230001415161718191A1B1C1D2F3130354C298F
:10024000001E001F002000210022002300240025A2
:1002500000260027002D002E022B0014001A000893
:1002600000150017001C0018000C00120013002FCE
:1002700000390004001600070009000A000B000DF9
:10028000000E000F00330034000000E1001D001BD1
:100290000006001900050010003744374400000034
:1002A000000000000000000000000000000000004E
:1002B000000000000000000000000000000000003E
:1002C000000000000000000000000000000000002E
:1002D000000000000000000000000000000000001E
:1002E000000000000000000000000000000000000E
:1002F00000000000000000000000000000000000FE
:1003000000000000000000000000000000000000ED
:1003100000000000000000000000000000000000DD
:1003200000000000000000000000000000000000CD
:1003300000000000000000000000000000000000BD
:1003400000000000000000000000000000000000AD
:10035000000000000000000000000000000000009D
:10036000000000000000000000000000000000008D
:10037000000000000000000000000000000000007D
:10038000000000000000000000000000000000006D
:10039000000000000000000000000000000000005D
:1003A000000000000000000000000000000000004D
:1003B000000000000000000000000000000000003D
:1003C000000000000000000000000000000000002D
:1003D000000000000000000000000000000000001D
:1003E000000000000000000000000000000000000D
:1003F00000000000000000000000000000000000FD
:100400000000000000000000000000005C00000090
:10041000000000000000000000000000000000FDDF
:10042000377A585A000004E6D6B446020021011675
:10043000000000742FE5A3E0034D015F5D003D88DF
:1004400089C65436C3174FE4DCCAC5334D2B2DFE85
:10045000B20681653BA83397157F04534C4D199024
:1004600062AC43C0DEEF4183F4F7EB61947C2DF581
:100470001BF48D72828CE841C7BA9A5F308A1E5D88
:10048000E81A789D579D6095AF2553AB7E8829A5C6
:1004900018175ACA2572AFDC4D5BCF2BAFBB3A445D
:1004A000767568A5052FC8004781C50405E9FA449B
:1004B000A995DD1E58EC25C07F8D922B6661AC6935
:1004C00077B45C24AA2D5FA8C6135AFEA2F0471287
:1004D0001202489C27DBBFCA89A3C5D9832D656456
:1004E0009E2606EF135536089F7441F3D5E213207C
:1004F000CFD7A639793F6DE5A70ED0F257A5963232
:1005000015182F0F827751607D969E7CC87AD38D07
:10051000DB09A8696E650B34200969E515EA09DC79
:10052000E3D790A34339100F41C7AEEAD472753BAD
:10053000E8B240D5FB5906F107793AF1240F3B4E5A
:100540008B11934D43302B084B62CF824D847D5AE3
:1005500063BAD0A3B55ADD7F434DBC4AA93B5B17B4
:1005600052B86902508CA3083F40A3932CFDC43AB3
:1005700056007D76AE861A895D68DFC7E61F910258
:10058000D5FC953895EBC4525E4F04FE41CC507EAD
:10059000E563AF804930DC97066154B6690000CC52
:1005A0000E857BCB4D2A7C0001FB02CE060000E0CD
:1005B0008BDF54B1C467FB020000000004595A09E4
:1005C00002BF00050100A0FA0904000001030101B7
:1005D00000092111010001224000070581030800E4
:1005E0000A090401000203000000092111010001B1
:1005F00022220007058203200001070503032000D3
:100600000109040200010300000009211101000199
:100610002281000705840320000A080B0302010160
:100620000000090403000001010000092401000189
:100630000900010409040400020103000007240169
:10064000000141000624020101000624020202000A
:10065000092403010301020100092403020401012A
:100660000100090506024000050000052501010101
:10067000090585024000050000052501010312015E
:10068000100100000008444B346301000102030123
:100690001C037600690061006C003A0066003600B9
:1006A00034006300320062003300630000000E0378
:1006B00043006F006C0074003400350000000E032E
:1006C0007200700069006700750079000000040383
:1006D000090411241FBECFEFDAE0DEBFCDBF04B6A0
:1006E00003FE27C08091DF039091E003A091E10316
:1006F000B091E2038730904BA740B04BD1F41092F9
:10070000DF031092E0031092E1031092E20314BEA3
:1007100084B7877F84BF0FB6F894A8958091600056
:10072000886180936000109260000FBEE0E0F8E303
:10073000099511E0A0E0B1E0EEE0FDE502C0059012
:100740000D92A038B107D9F723E0A0E8B1E001C0CD
:100750001D92AF3DB207E1F70E9461260C94462E30
:100760000C940000CF92DF92EF92FF920F931F93B1
:10077000CF93DF9300D00F92CDB7DEB77C01162F59
:10078000D42EC22E809110038430B9F5E091050378
:10079000F0910603309709F440C0C701019763E068
:1007A00070E00E949E2DCB01880F991F860F971F26
:1007B00019834A83CB824E2D481B9E012F5F3F4FEA
:1007C000BC018BEE92E00995E0910903F0910A03D8
:1007D000309739F00C2D2D2D412FB7018BEE92E083
:1007E00009950F900F900F90DF91CF911F910F916E
:1007F000FF90EF90DF90CF90089582E0E816F1042B
:1008000009F45AC083E0E816F104A9F081E0E81683
:10081000F10409F484C0F12CE12CE0910703F0917C
:100820000803309789F20C2D2D2D412FB7018BEE47
:1008300092E00995C9CF862F807F803A11F188F424
:100840008038D1F0E091EF02F091F002803929F781
:10085000309719F3123F49F12C2D4D2D612F6F70F8
:1008600027C0803E99F0803FB1F0E091ED02F09119
:10087000EE02803B91F6ECCFE091F102F091F202B2
:10088000E7CFE091F302F091F402E2CFE091F502BC
:10089000F091F602DDCF623F09F0BFCFE091F702A1
:1008A000F091F802309709F4B8CF2C2D4D2D62EF5E
:1008B0008BEE92E0099588CF862F807F803DB9F03E
:1008C000803FD1F0E091F902F091FA02803C09F00A
:1008D000A4CF309709F4A1CF812F8D7F4D2D612FAB
:1008E0006F70813FC9F08BEE92E009956DCFE0917A
:1008F000FB02F091FC02EDCFE091FD02F091FE02CF
:10090000633F39F0613F09F088CFE091FF02F09139
:100910000003309709F481CF4D2D612FE4CFE09192
:100920000103F0910203683F38F4663F09F075CF88
:10093000E0910303F0910403309709F46ECF612F27
:100940008BEE92E0099540CFE8EDF0E080818E7F5C
:1009500080831092E2001092DA001092E100A0EE83
:10096000B0E08C9181608C9380818F77808319BCFB
:10097000A7EDB0E08C918E7F8C9380818F7E8083F9
:100980001092D40208952091E4003091E50095E69C
:10099000A9012091EC00822F817020FF06C0809178
:1009A000E80080FF06C080E008952091E80022FD65
:1009B0001AC08091E102882389F0853089F0809106
:1009C000EB0085FD0FC02091E4003091E500421757
:1009D0005307F9F29150E1F684E0089582E008951A
:1009E00083E0089581E00895EF92FF920F931F93A3
:1009F000CF937C018B010E94C304C82F811117C0C3
:100A00008091E80085FD0BC08091E8008E7780938F
:100A1000E8000E94C304882399F3C82F08C0F70197
:100A200081917F018093F1000150110949F78C2FCA
:100A3000CF911F910F91FF90EF900895EF92FF9249
:100A40000F931F93CF937C018B010E94C304C82F87
:100A5000811117C08091E80085FD0BC08091E800EE
:100A60008B778093E8000E94C304882399F3C82FF2
:100A700008C08091F100F70181937F0101501109B5
:100A800049F78C2FCF911F910F91FF90EF90089510
:100A90008091E30287FF13C08091E80082FF06C0C7
:100AA0008091E8008B778093E80004C08091E10298
:100AB0008111F2CF08958091E1028823D9F38091CA
:100AC000E80080FFF8CF8091E8008E77ECCF982F78
:100AD0009093E900242F762F50E0891731F0709120
:100AE000EC002091ED005091F00021FD07C09F5FC8
:100AF000973071F78093E90081E008953091EB0021
:100B00003E7F3093EB003091ED003D7F3093ED0060
:100B10003091EB0031603093EB007093EC00209348
:100B2000ED005093F0002091EE0027FDE0CF80E033
:100B30000895CF92DF92EF92FF920F931F93CF937E
:100B4000DF93C8EDD0E088818F7E8883E7EDF0E009
:100B500080818160808384E082BF81E08093D402C1
:100B600088818E7F888302EE10E0F8011082109257
:100B7000DA0081EEC82ED12CF601108288818F77A1
:100B8000888388818068888388818F7D888319BC69
:100B90001092E1021092E2021092E0021092DF0243
:100BA00090EEE92EF12CF70180818B7F8083888184
:100BB0008160888342E060E080E00E946705F60182
:100BC00080818E7F8083F801808181608083808135
:100BD00088608083F70180818E7F80838881806137
:100BE0008883DF91CF911F910F91FF90EF90DF905D
:100BF000CF900895FC018091E9029091EA02861756
:100C00009707A0F06115710529F49091E8009E778F
:100C10009093E80090E06115710551F4911108C0BE
:100C20008091E80082FF34C080E00895BC01F2CFDB
:100C30008091E1028823C1F18530C1F18091E80003
:100C400083FD30C08091E80082FDEACF8091E8000A
:100C500080FFE1CF8091F3002091F200382F6115E1
:100C6000710519F02830310558F091E02830310530
:100C700009F090E02091E8002E772093E800CBCF98
:100C800081918093F100615071092F5F3F4FE7CF51
:100C90008091E102882341F0853041F08091E800A5
:100CA00083FFBECF81E0089582E0089583E0089538
:100CB00080E00895089508958091D6020895982FB0
:100CC000907F903BE9F040F49039D1F0903AC1F038
:100CD0009038B1F080E00895903D19F020F4903CF8
:100CE000C9F782E00895903E59F0903F99F7815FEF
:100CF0008F3080F7E82FF0E0EC5AFE4F80810895A6
:100D000083E00895DF92EF92FF920F931F93CF93AA
:100D1000DF9300D000D0CDB7DEB77B01142FD22EE9
:100D20004A832B830C83842F0E945F06811141C06C
:100D300082E0E816F104C1F183E0E816F10439F02D
:100D4000EA94EF2829F5173F29F485E004C087E0ED
:100D5000073F09F084E089838091E1028430C1F487
:100D6000809105018F708093E90050E040E064E0DD
:100D700070E0CE0101960E94F404811109C08091B7
:100D8000E80085FD05C08091E8008E778093E8003B
:100D90000F900F900F900F90DF91CF911F910F91B7
:100DA000FF90EF90DF90089587EFD812D3CF86E0C1
:100DB000D2CF12951F701983CFCFFF920F931F933D
:100DC000CF93DF9300D000D000D00F92CDB7DEB725
:100DD0008C0108511F4F8091E102843009F06CC0F2
:100DE00080910A018F708093E9008091E80082FF72
:100DF00063C08091E80085FF5FC050E040E064E0A0
:100E000070E0CE0101960E941E058091E80085FDEC
:100E100005C08091E8008B778093E800FA808F2DE1
:100E20000E945F06282FFD828B818E838C818F83A9
:100E300021110AC08981843039F1873029F1863047
:100E400029F121E0853039F630E0E5E0F0E0EC0F03
:100E5000FD1FE30FF11DF0804FB7F894D8011196F4
:100E6000EC911197F0E0CF01019612966C9170E031
:100E70000E94B22DD8015C915817190649F44FBF52
:100E80003F5F321710F3A7CF23E0DECF22E0DCCFA5
:100E900013968D919C911497E80FF91FF08211968B
:100EA0008C91119790E0019612966C9170E00E94DF
:100EB000B22DF8018183E3CF27960FB6F894DEBFF9
:100EC0000FBECDBFDF91CF911F910F91FF9008957D
:100ED00087E797E7909301088093000888E19AE0FC
:100EE0000FB6F894A895809360000FBE90936000B1
:100EF000FFCF9C014FB7F8948091CE029091CF0222
:100F0000A091D002B091D1024FBF821B930B0895E4
:100F10002FB7F8948091CE029091CF02A091D00289
:100F2000B091D1022FBF08959C01FC0132969FEF32
:100F300080E04191461751F09F3F19F4411101C0E3
:100F4000982F8F5F8630A9F79F3F09F40895290FE6
:100F5000311D97FD3A95F9016283089580915B02F6
:100F6000882331F010925B0210925A0210925902BB
:100F7000089580959091580298239093580208956F
:100F80008091580290915702892B90915602892B9B
:100F90008093820180915B02882319F10E94880767
:100FA0002091590230915A02821B930B8838934149
:100FB00010F00E94AE078091820190915B02892B14
:100FC0008093820120E084E891E0FC013191CF011F
:100FD00031112F5FF1E08A389F07B9F721110E9484
:100FE000AE07E091AF02F091B002309731F002808D
:100FF000F381E02D82E891E0099408951092550262
:10100000109254021092530208958091520281115D
:101010001092520208959E3F49F1990F990F990F2E
:10102000E92FE80F9E2F9770E695E695E69585E007
:10103000E89FF0011124EC5CFD4F50E040E080E0BF
:10104000219130E0092E02C0369527950A94E2F7E7
:1010500021703327042E01C0220F0A94EAF7822B55
:101060004F5F5F4F4530510559F7089580E008956F
:101070009E3F69F1990F990F990FE92FE80F8E2F75
:10108000877041E001C0440F8A95EAF7E695E6953E
:10109000E69585E0E89FF0011124EC5CFD4F30E01F
:1010A00020E070E05191DF011197CB01022E02C0C8
:1010B000969587950A94E2F7817081958527842318
:1010C00085278C932F5F3F4F2530310559F70895C1
:1010D0008091330290910202981301C008958F5FAE
:1010E0008770FACF882341F0809590915702892329
:1010F000809357020C94C0070895882339F090918B
:101100005702982B909357020C94C0070895882398
:1011100021F00E94B9070C94C0070895882339F084
:1011200090915802982B909358020C94C007089500
:1011300020919E0130919F012817390771F09093FB
:101140009F0180939E01E091AF02F091B002309731
:1011500021F00084F185E02D0994089520919C01EF
:1011600030919D012817390771F090939D0180936C
:101170009C01E091AF02F091B002309721F006801F
:10118000F781E02D09940895E091AF02F091B0024B
:10119000309721F00190F081E02D099480E00895CE
:1011A000CF93DF93EC0181E0898B809158029F817E
:1011B000892B80935802809157029885892B8093C0
:1011C00057020E94C007EA81FB81309739F06C8991
:1011D0007D89CE010696DF91CF910994DF91CF9161
:1011E0000895EF92FF920F931F93CF93DF93EC013B
:1011F0008A85811139C0EB80FC8087E5F81A26E1E9
:101200002E9DC0012F9D900D1124DC01AE55BE4FC7
:101210001496ED91FC911597309731F054966D919D
:101220007C9188559E4F099586E18E9D80018F9D0A
:10123000100D11240E551E4FF80187810E94B90729
:10124000F8018085982F909580915702892380938B
:1012500057020E94C007188219861B861E821D82B3
:101260001092A1011092A001DF91CF911F910F91D7
:10127000FF90EF900895E5E8F2E082E0E33AF807A6
:1012800039F486E090E09093F9018093F801089595
:10129000848187FF14823596F0CF0E9488079C01D5
:1012A0009091BA028091BB02982B21F03093B70243
:1012B0002093B6029091BC028091BD02982B21F040
:1012C0003093B4022093B302E091AF02F091B002E8
:1012D000309749F082E08093B8020480F581E02DD8
:1012E00088EB92E00994089590E080E00E94AE08B7
:1012F00090E080E00E9498081092570210925602E7
:101300000E94C00786E0E8EBF2E0DF011D928A95BB
:10131000E9F71092B5021092B2021092FB010C9400
:101320004D096093DB037093DC038093DD0390939E
:10133000DE030C9474090F931F936091DB0370918B
:10134000DC038091DD039091DE038B019C0106702C
:10135000112722273327063011052105310529F4ED
:1013600068601F910F910C949109677FFACF0F93DA
:101370001F9341E050E060E070E004C0440F551F4F
:10138000661F771F8A95D2F7CB01BA0160957095D9
:10139000809590950091DB031091DC032091DD0393
:1013A0003091DE0360237123822393231F910F91D9
:1013B0000C94910990915502809589238093550250
:1013C000282F277039F4282F082E000C330B921782
:1013D000130621F49091A40292FF07C0859585958C
:1013E00085950E94B7090C94FE0708950F931F93EB
:1013F00041E050E060E070E004C0440F551F661FFC
:10140000771F8A95D2F78091DB039091DC03A0913E
:10141000DD03B091DE038A019B01082B192B2A2BD7
:101420003B2BC901B8011F910F910C949109909128
:10143000A40292FD10C098E0899F90011124622BB4
:10144000609355020E94F6090E9488079093540207
:101450008093530208950C94F60960935C02709394
:101460005D0280935E0290935F020C9474099091E8
:10147000BA02803F59F48091BB0287FF0DC01092E1
:10148000BB0291110BC01092B50208C0813F81F4DC
:101490008091BB0218169CF3992381F08091BC02C5
:1014A0009091BD02892B09F064C01092B202089598
:1014B000823F49F497FFF0CF1092BA028091BB02AD
:1014C0008111ECCFE0CF833F19F41916ACF3E4CFD0
:1014D0002091BC02893F29F41216F4F61092BC0246
:1014E000DBCF8A3F19F427FFD7CFF8CF2091BD0279
:1014F0008B3F29F427FFD0CF1092BD02CDCF8C3F78
:1015000019F41216CCF3C8CF843F31F48091B9029C
:101510008E7F8093B902C0CF853F21F48091B902BC
:101520008D7FF7CF863F21F48091B9028B7FF1CF79
:10153000873F21F48091B902877FEBCF883F21F468
:101540008091B9028F7EE5CF8D3F31F48091FB0110
:101550008E7F8093FB01A0CF8E3F21F48091FB0111
:101560008D7FF7CF8F3F09F097CF8091FB018B7F65
:10157000F0CF08958823B1F19CEF980F913A70F461
:10158000E4E8F1E09191891303C0DF0111971C9207
:1015900091E0EA38F907B1F70C94C00790E2980F90
:1015A000983050F4877091E001C0990F8A95EAF75E
:1015B000892F0E94B907F0CF9BE5980F933020F454
:1015C00090E080E00C94AE0898E5980F973120F4F5
:1015D00090E080E00C949808803F20F00E94370A49
:1015E0000C944D0908958091FB0180FD16C081FD8A
:1015F00016C082FD16C08091B2028823A1F0883205
:1016000080F428E0829FC001112468E270E00E940B
:10161000B22D862F672B39F0089582E0089584E07B
:10162000089588E0089581E008958091FB0180FD90
:1016300014C081FD14C082FD16C08091B5028823BC
:1016400081F0843180F422E3829FC001112464E19F
:1016500070E00E94B22D862F08958CE0089589E1F4
:10166000089585E0089582E30895803F31F40E9453
:10167000150B81958093BB020895813F19F40E9458
:10168000150BF8CF823F31F40E94150B81958093A2
:10169000BA020895833F19F40E94150BF8CF893FD1
:1016A00029F40E94F30A8093BC0208958A3F21F432
:1016B0000E94F30A8195F7CF8B3F31F40E94F30A21
:1016C00081958093BD0208958C3F19F40E94F30A1E
:1016D000F8CF843F31F48091B90281608093B902E0
:1016E0000895853F21F48091B9028260F7CF863F4B
:1016F00021F48091B9028460F1CF873F21F4809179
:10170000B9028860EBCF883F21F48091B9028061F3
:10171000E5CF8D3F31F48091FB0181608093FB0127
:1017200008958E3F21F48091FB018260F7CF8F3FB7
:10173000B9F78091FB018460F1CFCF93C82F882344
:1017400009F456C08CEF8C0F813AF8F4E4E8F1E02C
:101750008AE891E0DF012D91C21759F08A179B07A3
:10176000D1F76C2F82E891E00E949407CF910C94FE
:10177000C0072191C21303C0DF0111971C928E177D
:101780009F07B9F70E94C007ECCF80E28C0F88302A
:1017900068F4C77021E030E001C0220FCA95EAF773
:1017A00080915802822B80935802E0CFEBE5EC0F3A
:1017B000E33040F4F0E0ED5DFE4F808190E0CF91AA
:1017C0000C94AE08E8E5EC0FE73150F4F0E0EE0FD2
:1017D000FF1FEA5DFE4F80819181CF910C949808A4
:1017E000C03F30F08C2F0E94350BCF910C944D09E7
:1017F000CF910895F894E82FE295EF70F0E031A1D1
:10180000282F2F7081E090E001C0880F2A95EAF719
:10181000982F9095932391A392A1892B82A37894DA
:1018200008959091A30292FF06C0282F28712830B6
:10183000F9F4877F846093FF06C0282F2871283130
:10184000F1F4877E84612091A40220FF06C0382F26
:1018500038713830D9F4877F816021FF06C0282F86
:1018600028712831D1F4877E816194FD877E0895A7
:10187000282F24712430F9F68B7F8860DCCF282F45
:101880002471243101F78B7E8861DDCF382F3171CF
:10189000313019F78E7F8860E0CF282F21712131F8
:1018A00021F78E7E8861E1CFCF93DF939C013A953B
:1018B00021153F4168F5EC01CC27D170DC01AA2746
:1018C000B270AC01442754709C012227387094FFF9
:1018D00011C080E1CD2B09F480E0AB2B09F08062D0
:1018E000452B09F08064232B09F08068FB01DF9110
:1018F000CF91099481E0CD2B09F480E0AB2B09F066
:101900008260452B09F08460232B81F38860EECF41
:10191000DF91CF910895CF93DF93EC010E94BA0A33
:10192000CE01805E9109089720F062E778E0209769
:1019300011F467E878E0CE01DF91CF910C94540C5C
:10194000CF93DF93EC01805E9109089720F06DE75B
:1019500078E0209711F46EE878E0CE010E94540CF4
:101960008C2FDF91CF910C949D0BCF939091F4012C
:10197000992321F0811116C01092F401CF9108959E
:10198000EC2FF0E0EE0FFF1FEA51FE4F80819181B6
:101990000E94A00C0E94C007CF5F8091F401C8177D
:1019A00078F3EACFC0E0F9CFCF9384E090E00E94D3
:1019B000FC2DC82F82E290E00E94FC2D982F8C2FE6
:1019C000CF9108950F931F93CF93DF93853030F518
:1019D000663020F5483010F520E1629F8001112427
:1019E00050E0440F551F040F151F30E6839F000D74
:1019F000111D1124C80187960E94FC2DC82FD0E02C
:101A0000DC2FCC27C80188960E94FC2D9E01282B34
:101A1000C901DF91CF911F910F91089590E080E06F
:101A2000F8CF462F2091D2023091D302232B91F48C
:101A30007E3F39F46E3F71F480919A0190919B0141
:101A40000895853038F4763028F4683018F4672F1C
:101A50000C94E20C90E080E00895CF93DF930E9415
:101A6000110DEC0182389105A9F1D8F5813391056A
:101A700009F496C048F58932910509F48AC08A971D
:101A800009F495C0C11521E5D20708F0BCC0C11505
:101A900030E5D30708F014C1C83ED10508F09CC05A
:101AA000C03ED10560F5C83AD10508F087C0C53AF7
:101AB000D10508F0FDC0C130D10509F12097F9F03A
:101AC000C430D105E0F440C08533910509F45AC013
:101AD000C997C1F68091A302837089F0C0EED0E06F
:101AE0000EC0833E910599F170F4803E910501F19D
:101AF000823E910539F68091A30282FD21C0CE017C
:101B0000DF91CF910895863E910561F1873E910561
:101B100071F1843E910509F0B5CF8091A40281FF57
:101B2000EECF8091A302C7EED0E084FD0DC0E7CFD9
:101B30008091A30280FD12C19091A40290FFDFCF9B
:101B4000C3EED0E084FFDBCFD0E0C0E0D8CF8091FF
:101B5000A30282FD06C19091A40290FDBFCF84FF35
:101B6000CECFF2CF8091A30283FDDDCFC8CF80918D
:101B7000A30283FDF9C09091A40291FFF0CFC4EEBF
:101B8000D0E0BDCF8091A30285FFB9CFC9E2D0E0FC
:101B9000B6CF8091A30285FFB2CFC5E3D0E0AFCF2F
:101BA0008091A30286FFABCFCAE2D0E0A8CF80919C
:101BB000A30286FFA4CFC1E3D0E0A1CFCF3BD105E4
:101BC00018F6C85AD0E0CC0FDD1FCA5DDE4F099071
:101BD000D881C02DD46493CFC11540E2D40758F406
:101BE000C11581E0D80708F08ACFC03FD10508F4BD
:101BF000ABCFD06584CFC11590E4D90708F4A4CF4A
:101C0000DF70D06A7CCFC11525E5D20700F5C1157C
:101C100034E5D30708F08AC0C11543E5D40708F0BE
:101C200071C0C11582E5D80708F467C0CE01837082
:101C3000992721E030E002C0220F331F8A95E2F796
:101C4000C695C69580E2C89FE001112452C0C11517
:101C500099E5D907A8F4C11528E5D20708F06BC0AB
:101C6000C11536E5D30708F06FCF8C2F0E94110CF9
:101C7000C82FD0E0DC2FCC27CC27DF71D0623FCF3C
:101C8000C1154AE5D40708F45BC0CE019056811512
:101C9000904208F059CF8D2F8F710E94110C90E067
:101CA000982F882788279F719C012C2BE901E6CF6C
:101CB000C55AD0E0CD5DDE4FC881D0E0D0641FCFE3
:101CC000CE01E4E096958795EA95E1F783702C2F95
:101CD00026952695237040E2249F90011124382BED
:101CE0008C2F8370C1E0D0E002C0CC0FDD1F8A953D
:101CF000E2F7C22BD32BDC6802CFDC2FCC27C16FDD
:101D0000D06AFDCECE018370992721E030E002C079
:101D1000220F331F8A95E2F7C695C69590E2C99FB8
:101D2000E0011124C22BD32BDA68E9CEDC2FCC27BB
:101D3000C46FD06AE4CEDC2FCC27C06FD06ADFCE70
:101D40008C2F8F700E94110C34E0D695C7953A9570
:101D5000E1F7CF709C2FEC01D069D1CEC9E3D0E080
:101D6000CECEC2EED0E0CBCEC6EED0E0C8CEBF9293
:101D7000CF92DF92EF92FF920F931F93CF93DF9357
:101D80008C01C090DB03D090DC03E090DD03F09089
:101D9000DE0380915C0290915D02A0915E02B091A1
:101DA0005F02C82AD92AEA2AFB2ACFE1D0E0BC2E5A
:101DB000D701C6010C2E04C0B695A79597958795B7
:101DC0000A94D2F780FD0EC0219788F7B12C8B2D95
:101DD000DF91CF911F910F91FF90EF90DF90CF9007
:101DE000BF900895B8018C2F0E942D0D019761F3CB
:101DF000EECFCF93DF93EC010E94B70EBE01DF91CF
:101E0000CF910C942D0D0E94F90E292F2F709295D1
:101E10009F7092509E3078F4E92FF0E0E85BF14D2E
:101E20000C94C62D803F19F020F4883E20F481E008
:101E30000895843FE1F380E00895883EC0F3813F38
:101E4000D1F7F5CF822F8695869586950895CF9305
:101E5000C92F682F84E090E00E940A2E6C2F82E246
:101E600090E0CF910C940A2E9091A40292FB22272D
:101E700020F9281751F080FB92F99093A4028091E9
:101E8000A3029091A4020C94270F0895CF93DF939F
:101E9000C1E6D2E060E0CE010E940A2E2196C11573
:101EA00084E0D807B9F7DF91CF9108950F931F937E
:101EB000CF93DF938901853048F5663038F5483097
:101EC00028F521153C4531F42091020130910301A0
:101ED000232BE1F090E1699FE001112450E0440FD1
:101EE000551FC40FD51F90E6899FC00DD11D112429
:101EF000612FCE0187960E940A2E602FCE01889610
:101F0000DF91CF911F910F910C940A2EDF91CF9109
:101F10001F910F91089510925802E4E8F1E086E0D5
:101F2000DF011D928A95E9F70C9474091F93CF93F2
:101F3000DF93CDB7DEB7AA970FB6F894DEBF0FBE1A
:101F4000CDBF83EE92E02091F100DC012D93CD0115
:101F5000B2E08B3E9B07B9F78091E402833009F42D
:101F600071C0B8F4813009F448C0823009F4B2C0BD
:101F70008091E80083FF3AC18091E3029091E402EE
:101F80009A3008F033C1E92FF0E0EA5AF14D0C9491
:101F9000C62D8A3009F48DC08B3009F470C08930A9
:101FA00039F78091E302813219F78091E70290912D
:101FB000E802009711F00297D9F68091E800877F38
:101FC0008093E8008091E80082FF37C09091F30091
:101FD0008091F200029729F48091F1008B7F81308B
:101FE00021F48091F1008093D6028091E8008B77F4
:101FF0008093E8000E944805BBCF8091E302813ABC
:1020000009F0B6CF8091E800877F8093E800809147
:10201000E7029091E802892B61F468E087ED92E095
:1020200070E00E94FA058091E8008B778093E800C9
:102030009FCF60E090E080E0F3CF8091E1028111DA
:10204000C1CF96CF8091E302813A09F091CF809180
:10205000E7029091E802892B09F08ACF8091E8008D
:10206000877F8093E8008091E80080FFFCCF80911B
:102070001A018093F1008091E8008E77B9CF8091AA
:10208000E302813209F074CF8091E7029091E80277
:10209000892B09F06DCF8091E800877F8093E8005D
:1020A0000E9448058091E50280931A010E948B0FDF
:1020B0005FCF8091E302813209F05ACF8091E8002E
:1020C000877F8093E8000E9448058091E602809314
:1020D000D5024ECF8091E302813A09F049CF809139
:1020E000E800877F8093E8008091E80080FFFCCFC4
:1020F0008091D502BECF803899F0823809F076C041
:102100008091E7028F70873008F070C08093E900FB
:102110008091EB0085FB882780F91092E90006C0CA
:102120008091DF029091E002911182609091E8002D
:10213000977F9093E8008093F1001092F1008091D6
:10214000E8008E77CAC1882309F4B7C1823009F04C
:102150004DC08091E5028111BBC18091E7028F7073
:102160002FEF280F263008F041C08093E90020911E
:10217000EB0020FFADC1933031F48091EB00806221
:102180008093EB00A5C19091EB0090619093EB00E0
:1021900021E030E001C0220F8A95EAF72093EA009F
:1021A0001092EA008091EB008860EACF81111EC096
:1021B0001091E5021F778091E3008078812B809356
:1021C000E3008091E800877F8093E8000E94480543
:1021D0008091E80080FFFCCF8091E30080688093CD
:1021E000E30082E0111183E08093E1028091E80036
:1021F00083FF0AC08091E800877F8093E800809188
:10220000EB0080628093EB00AA960FB6F894DEBFD5
:102210000FBECDBFDF91CF911F91089580588230BE
:1022200028F72091E5023091E6022C3DE3E03E07DD
:10223000A1F583E08A838AE289834FB7F894DE01AF
:10224000139620E03EE051E2E32FF0E05093570078
:10225000E49120FF03C0E295EF703F5FEF708E2F97
:1022600090E0EA30C0F0C7968D939D932F5F2431A4
:1022700059F74FBF8091E800877F8093E8006AE2BA
:1022800070E0CE0101960E94FA058091E8008B77FC
:102290008093E800ABCFC096E7CF8091E7029091A2
:1022A000E802432F55274330510509F44AC078F519
:1022B0004130510509F485C08FEB90E0EFEBF5E07C
:1022C0004230510509F092CF2091E800277F2093FA
:1022D000E8002091E9023091EA028217930708F49E
:1022E0009C0140E02115310509F070C041116EC01C
:1022F0008091E80082FDC9CF8091E102882329F214
:10230000853019F28091E80083FFF2CFBECF4132D1
:10231000510509F447C04232510509F067CF8330B7
:10232000910508F063CFFC01EE0FFF1FEC58FE4F44
:102330000190F081E02D8F589E4FDC018C9190E050
:102340001DC0332721303105E9F02115310579F021
:1023500022303105F9F02330310509F047CFE0E9AB
:10236000F6E0E4918E2F90E0E0E9F6E007C0EEECB5
:10237000F6E0E4918E2F90E0EEECF6E0009709F4A1
:1023800035CFA2CFEEEBF6E0E4918E2F90E0EEEBAE
:10239000F6E0F4CFEEEAF6E0E4918E2F90E0EEEA7C
:1023A000F6E0ECCF8330910508F020CF880F991F1D
:1023B000FC01E658FE4F0190F081E02D89E090E0AD
:1023C00083CF82E190E0EEE7F6E07ECF8091E102FC
:1023D000882309F45ACF853009F457CF8091E8005B
:1023E00083FD53CF8091E80082FD82CF8091E80089
:1023F00080FF78CF9091F3008091F2002115310594
:1024000019F08830910550F041E0089709F040E05C
:102410008091E8008E778093E80064CF44914093E8
:10242000F1003196215031090196E8CF803809F04A
:10243000DDCE8091E800877F8093E8008091E20202
:102440008093F1007CCE8111D1CE1091E502123043
:1024500008F0CCCE8091E800877F8093E80010934D
:10246000E2020E944805112311F084E005C080912A
:10247000E30087FDFACF81E08093E10242E061EC66
:1024800081E00E94670542E261EC84E00E946705FA
:1024900042E261EC82E00E94670542E260EC83E088
:1024A0000E94670542E361E885E00E94670542E318
:1024B00061E886E00E94670599CE8091E50281304F
:1024C00009F094CE81E0933009F080E08093E0023F
:1024D0001092E9008091E800877F8093E8000E94D5
:1024E000480584CE7F928F929F92AF92BF92CF92F7
:1024F000DF92EF92FF920F931F93CF93DF93CDB7AD
:10250000DEB764970FB6F894DEBF0FBECDBFA090C4
:102510000201B090030181E090E090930301809369
:1025200002018FE3C82E82E0D82E00E0760110E091
:1025300015C0F40125913491472D612F802F0E9401
:10254000560F82E0880E911C7394E8E07E12F1CF62
:10255000F0E1EF0EF11C1F5F163019F04701712CEE
:10256000E8CF0F5F80E6C80ED11C0530F9F61A825D
:1025700019821C821B821E821D8218861F8288EC93
:1025800090E09A8789874AE050E067E072E0CE01E8
:1025900001960E942E2E4AE050E061E172E0CE01E9
:1025A00001960E942E2E4AE050E06BE172E0CE01CF
:1025B00001960E942E2E7E01EBE0EE0EF11C8AE0C9
:1025C000F70111928A95E9F705E212E04AE050E03E
:1025D000B801C7010E942E2E065F1F4F0136F2E0A0
:1025E0001F07A1F7B0920301A092020164960FB6F3
:1025F000F894DEBF0FBECDBFDF91CF911F910F9139
:10260000FF90EF90DF90CF90BF90AF909F908F9012
:102610007F900895CF93DF9300D00F92CDB7DEB7B0
:102620009091E102943011F589837B836A839093C2
:10263000E9008FEF9091E800815095FD06C095ED7F
:102640009A95F1F700008111F5CF8091E80085FFA0
:102650000DC050E040E063E070E0CE0101960E94C2
:10266000F4048091E8008E778093E8000F900F903B
:102670000F90DF91CF910895BC0184E00C940A1370
:10268000BC0183E00C940A139C0184E08093E90070
:102690009FEF8091E800915085FD06C085ED8A95F9
:1026A000F1F700009111F5CF8091E80085FF0CC093
:1026B00050E040E066E070E0C9010E94F4048091BF
:1026C000E8008E778093E8000895CF93DF93EC01C4
:1026D00081E08093E9008FEF9091E800815095FDB3
:1026E00006C095ED9A95F1F700008111F5CF809124
:1026F000E80085FF14C050E040E068E070E0CE01E3
:102700000E94F4048091E8008E778093E80088E0CE
:10271000FE01A7EDB2E001900D928A95E1F7DF91FD
:10272000CF9108951F93CF93DF93182FCAE0D0E085
:10273000893311F4C0E5D0E0812F0E949D0B8FE911
:102740009FE00197F1F700C000002197C1F7812FAA
:10275000DF91CF911F910C94BA0A0F931F93CF93DF
:10276000DF93C62FD42F022FFC0182818823A1F092
:102770006093DA030E9488079093D9038093D8036B
:10278000C77081E001C0880FCA95EAF7DF91CF9149
:102790001F910F910C948E088091DA03681335C055
:1027A0008091D8039091D9030E947907883C9105C4
:1027B00060F510E21D0FCD17B9F080E28C0F883064
:1027C00040F4C77081E001C0880FCA95EAF70E9403
:1027D0008708183048F481E09D2F977001C0880F5A
:1027E0009A95EAF70E948E08802F0E949213183063
:1027F00098F4D77081E001C0880FDA95EAF7DF918D
:10280000CF911F910F910C948708C77081E001C090
:10281000880FCA95EAF7F3CFDF91CF911F910F91FF
:102820000895DF92EF92FF920F931F93CF93DF9360
:10283000E82FF0E0E154FE4FD490282F26952695FE
:10284000269530E0F901E155FE4F0491877010E0C4
:10285000082E02C0159507950A94E2F7017011271A
:10286000F901E156FE4FE490F12C082E02C0F594D8
:10287000E7940A94E2F791E0E922FF24F901E15795
:10288000FE4FC491D0E002C0D595C7958A95E2F776
:10289000C170DD270115110519F081EE0E949D0B15
:1028A000E114F10419F086EE0E949D0B8D2D0E941B
:1028B0009213EF2819F086EE0E94BA0A012B19F044
:1028C00081EE0E94BA0ACD2B51F08CE2DF91CF91BC
:1028D0001F910F91FF90EF90DF900C949213DF9176
:1028E000CF911F910F91FF90EF90DF900895AF92DD
:1028F000BF92CF92DF92EF92FF920F931F93CF93ED
:10290000DF93C3E6D1E099EAC92E92E0D92E29E6F9
:10291000E22E21E0F22EB12C01E010E08991F89432
:10292000E82FE295EF70F0E021A18F70A80102C0BE
:10293000440F551F8A95E2F7CA01922F982B91A355
:1029400092A18095892382A3789400C0E9E6F1E002
:1029500030E020E0A12C4191A42FA295AF70B0E00F
:1029600090968C9190E04F7002C0959587954A950E
:10297000E2F780FD50C0802F022E01C0880F0A941C
:10298000EAF7A82A2F5F3F4F2830310521F7FE01D3
:10299000319780810E94FA0B50EA5A95F1F7F601BF
:1029A0008081A816D1F1A08281E0B82AFFEFCF1A6A
:1029B000DF0AEC16FD0609F0B1CFBB2081F181E002
:1029C00080938C010E94880790938B0180938A01E9
:1029D00080918A0190918B010E947907069718F1E6
:1029E0008091A9028093C8028091AA028093C902B3
:1029F0008091AB028093CA028091AC028093CB029B
:102A00008091AD028093CC028091AE028093CD0282
:102A100010928C0108C080E0B4CF80E0C6CF8091D6
:102A20008C018111D5CF8091000110E006E18F3F2C
:102A300009F041C080910101811148C08B2DDF91C7
:102A4000CF911F910F91FF90EF90DF90CF90BF90AB
:102A5000AF900895029FF001039FF00D1124EE55F1
:102A6000FE4FE288F388E114F10419F488ECE82EB3
:102A7000F12C029FE001039FD00D1124CE55DE4FB3
:102A80008E818823B9F08D859E850E947907E8168E
:102A9000F90680F4109F700111248989811105C005
:102AA000C7018E559E4F0E94D008C70188559E4F82
:102AB0000E94F1081F5F212F30E080910001082E55
:102AC000000C990B821793072CF6B4CF8091F50177
:102AD0009091F601009709F4B1CF0E947907893CE3
:102AE000910508F4ABCF81E00E94B50C0E943B0930
:102AF000A5CF1F93CF93DF93EC011AE08881882341
:102B000009F43EC08130C9F599818A81913029F458
:102B100022960E9492132196F1CF923021F42296B0
:102B20000E949D0BF8CF933021F422960E94BA0A9E
:102B3000F2CF943011F02196EECF229630E020E0D3
:102B4000AE014F5F5F4F8053990B8A30910550F073
:102B50002150310900F38FE99FE00197F1F700C0A0
:102B60000000F6CF129FB001139F700D11249C013D
:102B7000260F371F8981EA01E3CF0E941114CBCFC2
:102B8000DF91CF911F9108956AEE7EEF90E080E093
:102B90000E94282E60E082E090E00E940A2E60E011
:102BA00083E090E00E940A2E10925C0210925D0277
:102BB00010925E0210925F0260E084E090E00E945A
:102BC0000A2E60E082E290E00E940A2E60E085E03A
:102BD00090E00E940A2E60E086E090E00E940A2EBB
:102BE0006FEF87E090E00E940A2E40E050E0BA01CB
:102BF00088E090E00E941C2E60E08DE090E00E9452
:102C00000A2E40E050E0BA0188E190E00E941C2EBC
:102C100060E087E190E00E940A2E40E050E0BA01B7
:102C20008CE190E00E941C2E70E060E080E290E079
:102C30000E94282E40E050E0BA0188E190E00E9416
:102C40001C2E40E050E0BA018FE090E00E941C2E64
:102C500040E050E0BA0183E190E00C941C2E9B010F
:102C6000863070F49AE0899FB00111246B5D7D4F2E
:102C70004AE050E0C9010E94EC2D90E080E0089508
:102C80008FEF9FEF08952F923F924F925F926F9236
:102C90007F928F929F92AF92BF92CF92DF92EF92EC
:102CA000FF920F931F93CF93DF93CDB7DEB7649757
:102CB0000FB6F894DEBF0FBECDBF7C01DC011396CA
:102CC0008D919C911497892B39F08C9111969C9140
:102CD00089238F3F09F079C764960FB6F894DEBF59
:102CE0000FBECDBFDF91CF911F910F91FF90EF905D
:102CF000DF90CF90BF90AF909F908F907F906F901C
:102D00005F904F903F902F9008950E94B70E182F1C
:102D1000682F89819A810E94380869817A81812F80
:102D20000E94110D8C01F701828181111EC1D70112
:102D300012964C9141115BC10031BFE51B0709F4AC
:102D4000EBC10131EFE51E0709F4EAC1C80197554F
:102D50008F3F910511F008F04BC020910001022E29
:102D6000000C330B2817390714F48093000126E177
:102D7000289F5001299FB00C112495012E553E4FDC
:102D80006901D90150964C935097F701928116969C
:102D90008C911697992309F4C5C11A961C930E932A
:102DA00019978F5F16968C930E948807D6011E96FE
:102DB0009C938E931D9780915B0217968C93179727
:102DC0008091570290915802892B18968C931897EE
:102DD000ED91FC911197309739F054966D917C915B
:102DE000C50188559E4F09951093A1010093A0013C
:102DF000D70112968C91882369F0C801815E9C45A9
:102E0000059740F46FE1600F6093A5028CE090E0BD
:102E10000E940A2E17FFC7C1F7018281882309F497
:102E200062C0E091AF02F091B00280E0309721F0F3
:102E30000190F081E02D0995869581708093E501E0
:102E40009091A502913029F4882319F089E30E941A
:102E50009213809158028093E4011092580280915D
:102E6000A502813009F470C1882309F469C1823058
:102E700009F479C1843009F47DC1AFE3BCE911974D
:102E8000F1F700C000005801E894B7F87CE0C72EC5
:102E9000D12CC5010C2C02C0969587950A94E2F7B7
:102EA0008F7096EF980F963008F469C1805D0E948C
:102EB0001114B4E0CB1AD108ECEFCE16EFEFDE061A
:102EC00041F78091A502813009F45FC1882309F49C
:102ED00058C1823009F455C1843009F462C180912F
:102EE000E4018093580240900101442021F11092A6
:102EF000F9011092F801512C55E0352E8824839465
:102F0000912C22242394A090F801B090F901F6E0CE
:102F1000AF16B10408F4B0C18091F701882309F419
:102F200067C20E9488079093F6018093F501109282
:102F3000F70151106DC0033FBCE51B0709F492C2B5
:102F400008F07BC2083DFCE51F0709F487C2093D74
:102F50002CE5120709F492C2073D3CE5130709F07E
:102F600030C126E241EE61EE75C2809100018F3FD3
:102F700009F4DDCEF2EACF2EF1E0DF2EB12CA12C48
:102F80009924939480910001082E000C990B8A15C6
:102F90009B050CF4CCCEF6018681882309F181854E
:102FA00092850817190739F48091A0019091A10129
:102FB00008171907A9F0D6011F969C921F971C9617
:102FC0001C930E931B9751968C91811103C0C601DF
:102FD0000E94D008C60106960E94F108109257027E
:102FE000BFEFAB1ABB0AE6E1CE0ED11CCBCFC801B6
:102FF00082519F45409708F0DCC58FEF93E00E9417
:10300000FC2DEEEEDE2ED00E01E612E08823D9F084
:1030100080915502877009F45FCED70112968C918A
:10302000882309F459CE82E00E94DA0955CE0115B1
:10303000F4E01F0769F3C8010E94FC2D811101C053
:10304000DA940F5F1F4FD110F2CF19821A821B82C0
:103050001C82CC24CA9448012FEF821A920AC8011C
:103060000E94FC2D89831A82882391F2813009F015
:1030700047C0580132E0A30EB11CC4010E94FC2DD0
:10308000982E8A83882321F2C5010E94FC2DD82E18
:103090008FEF890D833068F4580143E0A40EB11C12
:1030A000DB82DD2021F0CE0101960E947915850199
:1030B000D2CF54E09512FBCF580184E0A80EB11C8A
:1030C000C80103960E94FC2DDD2009F4A1CF8823BE
:1030D00009F49ECF8150990BC89E9001C99E300D76
:1030E0001124AD2DA150BB0BCD01820F931F019771
:1030F000F0F2EFE9FFE03197F1F700C00000F7CF01
:10310000CE0101960E9479155401D1CF81E00E9431
:10311000F6090E949B097CCF81E00E94B709F9CF94
:1031200082E0FBCF882309F463CEF90181898823EB
:1031300009F45ECEC50188559E4F0E94F10858CE15
:1031400082EE0E949D0B99CE88E193E00E94A00C34
:103150008FE39CE90197F1F700C0000088E193E05C
:103160000E948B0C8ACE82EE0E949D0B87E50E9406
:10317000921383CE86EE0E94921388E1F8CF895A8B
:1031800096CE82EE0E94BA0AAACE8CE20E949213D8
:103190008091E501882309F4A2CE89E30E9492136D
:1031A0009ECE88E2FBCF073FFCE51F0709F050C029
:1031B000D70112968C91882309F495CE81E08093F3
:1031C0000101D70112968C91882309F421C5109230
:1031D000DA030230BCE51B0708F42CC20631ECE52B
:1031E0001E0730F0C8018A5F9C45099708F022C28B
:1031F0000E94D40C9093A4028093A3020031FCE5BA
:103200001F0709F4E6C108F074C108303CE5130754
:1032100009F4D1C108F048C104305CE5150709F490
:10322000C2C108F02EC102309CE5190709F4B5C1EE
:103230008091A302826003301C4509F4B1C18091E2
:10324000A3029091A4020E94270F0E948B0FE0CE50
:10325000083FBCE51B0709F0CBC4F7018281882336
:1032600009F441CE109201011092F6011092F5017D
:1032700081E00E94B50CA5CF3A9CF0013B9CF00D7B
:103280001124EB57FD4FBE01655F7F4F80810E9487
:103290002F16892B61F0712C57288091F80190919D
:1032A000F90101969093F9018093F8012CCEFE016B
:1032B0003B9690E080E066246A94282F41915191DA
:1032C00041155105A1F10417150709F4682E01965F
:1032D0008430910591F724E0BFEF6B16E1F2F7011E
:1032E00072803A9CC0013B9C900D1124AC014B575D
:1032F0005D4F6A01DA0114968C911497F40102C0B3
:10330000EE0FFF1F2A95E2F79F0121503109772028
:10331000A9F1A40101C0440F6A94EAF7842B149622
:103320008C938F778217130631F0742CB5CF8230CF
:1033300008F4B1CFD1CF80E00E94B50CD60114962D
:103340008C911497806814968C93149712968D9193
:103350009C91009729F00E94A00C2092F7019CCF2D
:10336000BE016F5F7F4F8091F8010E942F16892B5D
:10337000A1F789859A850E944421EFCF8F77821724
:10338000130639F4FA0182819381009719F10E94A2
:103390008B0C3A9CF0013B9CF00D1124EB57FD4F38
:1033A0004481242F30E0062C02C0359527950A94DD
:1033B000E2F720FF70CFC40101C0880F6A94EAF7DA
:1033C00080958423848387FF66CF803809F0ADCF52
:1033D0001482ABCFBE016F5F7F4F8091F8010E94D6
:1033E0002F16892BB1F689859A850E941521D1CF98
:1033F000511006C081E00E94B50C0E943B099BCD94
:10340000D70112968C91882309F402CE0E94880776
:103410009093F6018093F501E091F401E73008F014
:10342000F7CD81E08E0F8093F401F0E0EE0FFF1FE7
:10343000EA51FE4F11830083EBCD053F4CE51407A5
:10344000C9F0A0F027E245EE66EE063F8CE51807CE
:1034500009F0B7CEC7010E94AD13DACD27E245EEE1
:1034600065EEF8CF26E241EE60EEF4CF27E245EEBE
:1034700064EEF0CF26E241EE62EEECCF28E241E0CE
:10348000EFCF8091A30280610630BCE51B0709F4F1
:1034900087C08091A302886007301C4508F480C073
:1034A0008091A30280627CC08091A3028D7F0C304A
:1034B000FCE51F0709F474C070F48091A3028C60CE
:1034C0000A303CE5130709F46BC008F478C080911A
:1034D000A3028E7F65C08091A302877F0E305CE5DA
:1034E000150709F45DC008F470C08091A3028F7EB7
:1034F00057C00B3F9CE5190709F459C030F503315B
:10350000BCE51B0709F46DC078F40131FCE51F0729
:1035100009F463C002311C4509F091CE0E948B0F63
:103520008091A3028F773CC005313CE5130709F475
:1035300060C008F474C08091A40281600A3F1C45F9
:1035400009F07DCE8093A4027ACE0F3F8CE5180758
:1035500009F44BC088F48091A4028D7F0D3FACE547
:103560001A0781F38091A4028E7F0E3F1C4550F311
:103570008091A4028360E6CF0130EDE51E0709F4D7
:1035800057C008F442C060E002301D4509F057CE34
:103590008EE090E00E940A2E52CE8091A3028160BC
:1035A0008093A3024CCE8091A3028460F9CF8091D6
:1035B000A4028260C7CF8091A3028064F1CF0E94F1
:1035C0008B0F8091A3028068EBCF8091A3028B7F49
:1035D000E7CF8091A3028F7DE3CF8091A3028F7B01
:1035E000DFCF8091A302837FDBCF8091A4028C7F09
:1035F000A9CF8091A30282FB992790F921E092271D
:1036000090FB82F990FB83F9CBCF8091A402982F95
:10361000909591708E7F892B90FB81F993CF0E94BA
:103620008B0F9091A302892F97FB87F98058B8CF11
:1036300061E0AECF06313CE5130709F0FFC280918F
:1036400058028A7A91E009F490E09093FA0169E2D5
:10365000811165E382E891E00E9494070E94C0070F
:10366000D7CC85E3DDC20E948B0F4FEF54E38CE093
:10367000415050408040E1F700C000000E946807C0
:1036800081E0FCC280E0FAC2C8010E940B08D82E7B
:1036900006C3E12FEF70DE2E107F19F0D29490EF69
:1036A000D922BB20C9F0DD2069F080E2800F88308C
:1036B00010F081100BC080915802D82AD092580285
:1036C0000E94C007802F0E949D0B15C08091570259
:1036D000D82AD0925702F4CF802F0E94BA0ADD2058
:1036E00051F0005E083010F0811027C08D2D0E942F
:1036F000B9070E94C007292D2850330B243031050B
:1037000010F40E94C408AA2009F4E6CA8091550268
:1037100080FDE2CAD70112961C9285958595859504
:103720000E94F609C7010E944316809155028595B3
:10373000859585950E94B709CFCAD094809157028C
:10374000D822D0925702D5CFF12FFF70DF2E107FF5
:10375000103219F0D29480EFD822882081F021E035
:10376000821609F450C0BB2009F459C0CC2079F16D
:10377000F701858180FFA6CF8F70858328C0BB208D
:1037800051F1C11004C080915B028D2921C031E04C
:10379000C31213C08091A40282FDADCF80915B0261
:1037A000D82AD81609F4A7CF0E94880790935A0206
:1037B00080935902D0925B029ECF45E0C412E3CFC2
:1037C0000E94AE0780915202D812D09252028D2DE3
:1037D0000E948E0890CFC11006C00E94AE078D2DAA
:1037E0000E94870888CF51E0C51208C08091580216
:1037F0008D2109F480CF0E940508EFCF85E0C8161F
:1038000009F479CFEACFBB2029F095E09C1508F4A4
:1038100072CFDDCFA4E0AC1508F46DCFE0CFCC20A3
:10382000F1F2F9E38F120DC02FEF37EE43E0215094
:1038300030404040E1F700C00000802F0E94BA0AEB
:103840005ACF8FE39CE90197F1F7F5CF812F869549
:103850008695837061F0813009F04DCFC801937077
:10386000B11002C090E080E00E94980844CFC801E7
:103870009370B11002C090E080E00E94AE083BCF90
:10388000802FBB2039F00E94350B0E944D090E9409
:103890004D0931CF0E94370AFACF812F837009F08A
:1038A00066C0B11028CF802F829586958770880FCB
:1038B000880F602F6F70462E512C712C612C082EB2
:1038C00004C0440C551C661C771C0A94D2F740E0D7
:1038D00050E0BA0104FF0FC04FE050E060E070E03C
:1038E00004C0440F551F661F771F8A95D2F7409575
:1038F000509560957095812F86958695837082305E
:1039000019F1D8F400915C0210915D0220915E02E1
:1039100030915F02813069F0442955296629772961
:10392000CB01BA0160237123822393230E942D0AC5
:10393000E2CE402A512A622A732ACB01BA016429B5
:10394000752986299729F2CF44295529662977298F
:1039500000915C0210915D0220915E0230915F0245
:10396000CB01BA016027712782279327DFCF869585
:10397000BB2011F0812F8170882309F4BCCE802FE9
:10398000829586958770880F880F602F6F70462EFE
:10399000512C712C612C082E04C0440C551C661C43
:1039A000771C0A94D2F740E050E0BA0104FF0FC040
:1039B0004FE050E060E070E004C0440F551F661F08
:1039C000771F8A95D2F74095509560957095812F15
:1039D000869586958370823019F1D8F40091DB03C7
:1039E0001091DC032091DD033091DE03813069F01A
:1039F0004429552966297729CB01BA01602371230F
:103A0000822393230E94910976CE402A512A622A6A
:103A1000732ACB01BA016429752986299729F2CF27
:103A200044295529662977290091DB031091DC038D
:103A30002091DD033091DE03CB01BA0160277127AD
:103A400082279327DFCF1F70BB2029F0812F0E9490
:103A5000F609802FBDCE802F0E948708812F0E94FB
:103A6000B70949CE802F92EF891609F455C09815F1
:103A700078F0A0EF8A1641F1B1EF8B1609F444C03B
:103A8000BB2009F482C0C1101DCE812F8F7141C0AF
:103A9000E3EF8E1609F445C0F4EF8F12F1CF809159
:103AA0005202BB2009F45DC00E94B9078091550203
:103AB0008770843009F048C00E94FE07812F8F7103
:103AC0000E94B709A12C17CEBB20C9F024E02C1509
:103AD00008F411CE1F7161E070E080E090E004C056
:103AE000660F771F881F991F1A95D2F70091DB0385
:103AF0001091DC032091DD033091DE039FCF35E090
:103B00003C1508F4F8CDE6CF812F8F71BB2009F466
:103B1000A6CF0E94F609EFCD812F8F71BB20C9F38C
:103B20009ECF60E070E0CB01BB2009F46BCF1F712A
:103B300061E070E080E090E004C0660F771F881FAE
:103B4000991F1A95D2F75ECF44E04C1508F4BACF0E
:103B50001F71812F0E94F60963E0812F0E94170ACE
:103B6000B1CF90915802982B9093580254E05C1575
:103B700040F40E94FE070E94050864E0812F8F71C7
:103B8000EDCF81E00E94DA099DCFCC2079F0893316
:103B900041F48FEF97EEA3E081509040A040E1F711
:103BA0004ACEEFE3FCE93197F1F745CE812F8F71D3
:103BB00056CF0031FFE51F0709F4A8CA01312FE5F0
:103BC000120709F0C3C882E0A2CA85E0F701DE014E
:103BD000119601900D928A95E1F7D70112962C91DA
:103BE00089819A81211191C80E940B08182F95C8CC
:103BF000093FBCE51B0709F076C9D70112968C91E5
:103C0000882309F470C98091010181112BCBD6CA98
:103C100006311C45A9F58091FA01811122CD89E276
:103C2000E4E8F1E02AE831E09191891303C0DF0173
:103C300011971C922E173F07B9F710CD0A35FDE5F5
:103C40001F0709F41DCD58F401153CE5130709F4CD
:103C50000ACD0E3D1C45A1F40E94C415D9C90B35EF
:103C60005DE5150709F40ECD0C351D4549F480912D
:103C7000A40282FB882780F991E089270E94340FF3
:103C8000F701828100811181882309F4FDCCC801EC
:103C90000E94B70ED82E682FC8010E943808B801BC
:103CA0008D2D0E942D0D8C01882ED7011296BC906F
:103CB00012971596CC90C2943FE0C3228091550292
:103CC0008770A1F0AB2CBB2091F0812F807F8034D6
:103CD00021F080E2800F883048F082E00E94DA090B
:103CE000809155028770AA24A3948111A12C912E52
:103CF00092942FE09222BBE0B91508F4FCCCE92D98
:103D0000F0E0E05AF14D0C94C62D1F93CF93DF9352
:103D100080910102807FA9F48091FE01882389F0BF
:103D200080913302D09102026091FC017091FD01FB
:103D3000A091FF01B0910002C62FC72316E0D8134F
:103D400004C0DF91CF911F91089590E0109711F07A
:103D5000CF3F19F401968770F2CF189F9001199FF9
:103D6000300D1124F901ED5FFD4F41814713F2CF72
:103D700040814613EFCF42814111ECCF4381548102
:103D80004A1B5B0B483C510528F7809101028F705C
:103D9000806180930102F901E85FFD4F80818F709F
:103DA000806180838CEF91E00E944316DF91CF9178
:103DB0001F910C946808AF92BF92CF92DF92EF925E
:103DC000FF920F931F93CF93DF93CDB7DEB7619729
:103DD0000FB6F894DEBF0FBECDBF8C0185E0F801B1
:103DE000DE011D9601900D928A95E1F7F801808120
:103DF0009181E2802CEFA22E21E0B22E6091FF0192
:103E0000709100026115710509F43EC13091FC0109
:103E10004091FD01232F24232F3F09F435C1C38096
:103E2000D480F090FE01F601E61BF70BFF2009F4A9
:103E3000FBC020910102522F507FE83CF10508F0B1
:103E4000BBC0511178C0FE2C491321C038131FC0CC
:103E5000E1101DC02F70206120930102C5010E9456
:103E6000431680910102F80185838F2D61960FB66C
:103E7000F894DEBF0FBECDBFDF91CF911F910F91A0
:103E8000FF90EF90DF90CF90BF90AF900895CD2836
:103E900029F0282F29232F3F09F014C120E0F22F09
:103EA000F170DF2E20FF3DC02091330240910202CD
:103EB00056E0241315C08D879E878D859E850E94B0
:103EC000F90E292F22952F702230F8F0243020F59A
:103ED0009F70F9F0F8019581907FD9F4D12C1FC023
:103EE00030E0529FF001539FF00D1124ED5FFD4F24
:103EF0006181961306C06081861303C06281E61259
:103F000010C02F5F3F4F2770D4CF9F7011F08823D0
:103F100029F3805E883010F3C8010E944316FD2CFF
:103F2000A4CFEE2009F4A1CF80910102816080939B
:103F30000102F12C9ACF491312C0381310C0E110BE
:103F40000EC0F8012583C8010E94431686E0F801DF
:103F5000ACEFB1E001900D928A95E1F786CF8D87A5
:103F60009E878D859E850E94030F882309F1EE2090
:103F7000F9F080910102803270F02091FC013091C3
:103F8000FD0138872F831986DB86CA868C87CE0190
:103F900007960E94431686E0F801ACEFB1E001906D
:103FA0000D928A95E1F70E94851EFF24F3945DCF60
:103FB000C8010E944316F9CF51110AC08CEF91E05D
:103FC0000E94431686E0F50111928A95E9F7B1CF78
:103FD00049130FC038130DC0E1100BC0F801258341
:103FE000C8010E94431686E0F50111928A95E9F70F
:103FF0003CCF8D879E878D859E850E94030F8823E9
:10400000B9F2EE20A9F280910102803220F22091D3
:10401000FC013091FD013A8329831B82DD82CC8231
:104020008E83CE010196B5CFE83CF105E0F6FE2C7B
:10403000EE2009F4BDCF491316C0381314C0809187
:10404000010280FD83CF982F907F09F47FCFF80184
:104050008583903F09F477CF982F907F905F8F7082
:10406000892B858370CF8D879E878D859E850E9445
:10407000030F811190CF8091010281608093010232
:10408000C8010E944316F1CEEE2009F491CF8D872E
:104090009E878D859E850E94030FF82E882309F444
:1040A00087CF86E0F801ACEFB1E001900D928A95E0
:1040B000E1F78091FC019091FD010E94F90E0E94B0
:1040C000851ED3CE21E02E25EACE1F93CF93DF931A
:1040D000CDB7DEB767970FB6F894DEBF0FBECDBF82
:1040E000342F4B8B252F5C8B6D8B7E8B8F8B8E892A
:1040F0009F896111109257021A8A198A3D872E876B
:104100006F87998B888B0E9488072091530230918A
:104110005402821B930B8838934120F08091550202
:1041200082FF7FC00E9488072091590230915A0275
:10413000821B930B8838934110F00E94AE0786E0F3
:10414000FE013D96DE01179601900D928A95E1F7EA
:10415000CE0107960E94DB1E882389F016E080912D
:10416000330290910202891349C067960FB6F89402
:10417000DEBF0FBECDBFDF91CF911F91089586E0C6
:10418000FE013796DE01119601900D928A95E1F7B6
:104190008A859B85892B11F388859F8189238F3F91
:1041A000E9F22091020230E0C90101968770992757
:1041B000409133024817190671F40E948B0F109238
:1041C00002021092330286E0ECEFF1E0DF011D9273
:1041D0008A95E9F7C3CF96E0929FD001939FB00DE7
:1041E0001124AD5FBD4FFE01319601900D929A955D
:1041F000E1F7809302020E946808B0CF819FC0015E
:1042000011248D5F9D4F0E94DB1E882309F4ADCFE2
:104210008091330290E00196877099278093330252
:104220009ECF82E00E94DA097DCFCF93DF9300D04A
:1042300000D00F92CDB7DEB790939B0180939A0187
:10424000811520E2920748F40F900F900F900F9085
:104250000F90DF91CF910C948B0C8EEF89838A8322
:104260001B820E9488078160782F9D838C834981FF
:104270005A816B818D810F900F900F900F900F904E
:10428000DF91CF910C946520CF93DF9300D000D0C5
:104290000F92CDB7DEB790939B0180939A01811561
:1042A00020E2920748F40F900F900F900F900F901C
:1042B000DF91CF910C94A00C8EEF89838A8381E0EB
:1042C0008B830E9488078160782F9D838C8349812E
:1042D0005A816B818D810F900F900F900F900F90EE
:1042E000DF91CF910C946520CF93DF93EC010E9476
:1042F00044218FE39CE90197F1F700C00000CE0153
:10430000DF91CF910C9415219B01833070F49AE0DA
:10431000899FB0011124695F7D4F4AE050E0C901D7
:104320000E94EC2D90E080E008958FEF9FEF0895BC
:104330008F929F92AF92BF92CF92DF92EF92FF92B5
:104340000F931F93CF93DF93CDB7DEB72A970FB6A6
:10435000F894DEBF0FBECDBF02EA11E0F12CE12CD4
:104360008EEEC82E81E2D82E98E1A92E92E2B92EC7
:1043700024E9822E22E2922EF801D182C082B382F9
:10438000A28295828482F58AE48ABE016F5F7F4FA4
:104390008E2D0E948421892B29F489859A85F80124
:1043A000938B828BFFEFEF1AFF0A0A5E1F4F83E0A9
:1043B000E816F10409F72A960FB6F894DEBF0FBE8F
:1043C000CDBFDF91CF911F910F91FF90EF90DF90C4
:1043D000CF90BF90AF909F908F9008950F931F93B1
:1043E000CF93DF938C01862F60E971E00E948421D6
:1043F000892BC9F4C0919001D0919101209799F037
:10440000F8018081833069F4CE010E947421CE01CD
:104410000E947421CE01DF91CF911F910F910C94D6
:1044200074218430B8F7DF91CF911F910F910895D7
:104430000F931F93CF93DF938C01EB0160E971E041
:104440008C2F0E948421892B09F064C0FE01FF2774
:10445000D8018C91E357FE4F8130D9F419969C9185
:104460001997992311F080830CC01A969C91992377
:10447000D1F382E080838091920190919301009723
:10448000D9F48091900190919101009709F442C074
:1044900013C08230E9F519968C91199781112DC0BE
:1044A0001A968C9181110EC083E0808380919401D3
:1044B00090919501009719F1DF91CF911F910F9184
:1044C0000C94442184E0808380919601909197011F
:1044D000009791F780919001909191010097F9F0E8
:1044E0000E9474218091920190919301009721F78D
:1044F0008091900190919101DFCF85E08083809140
:10450000900190919101009729F00E947421F0CFC1
:1045100086E08083DF91CF911F910F910895809164
:10452000920190919301B1CF0F931F93CF93DF939B
:104530008C01EB0160E971E08C2F0E948421892BB2
:10454000A1F48FE39CE90197F1F700C00000DD279B
:10455000C357DE4F8881F80110821882833009F139
:1045600048F4813059F0823081F0DF91CF911F9172
:104570000F9108958430D1F08530B9F78091900182
:1045800090919101009789F306C0809192019091DA
:104590009301009799F3DF91CF911F910F910C94A4
:1045A00015218091940190919501F3CF809196010E
:1045B00090919701009779F72091900130919101A6
:1045C000809192019091930121153105D9F20097C4
:1045D00011F7C901E0CF7F928F929F92AF92BF9265
:1045E000CF92DF92EF92FF920F931F93CF93DF93BF
:1045F000CDB7DEB7AF970FB6F894DEBF0FBECDBF15
:10460000962FBA012132310508F0AAC040EF498344
:104610001A821B821C82790142E0E40EF11C0CE23A
:1046200010E00E191F09A1E0B0E0AC0FBD1F0A0F8A
:104630001B1FF80180839183A901C80102960E9483
:10464000DC2DC70167E070E00E949E2D9B01B80140
:10465000FE01319650E040E02417350709F094C080
:10466000C70167E070E00E949E2DA90163E0440F3E
:10467000551F6A95E1F70097B1F1E5E0F0E0EC0F26
:10468000FD1FE40FF51F1082A7E0A29FB001A39FBA
:10469000700D1124060F171FDA011596CC24C39450
:1046A000D12CCC0EDD1ECA0EDB1E70E060E0D801FE
:1046B000FD908D016F5F7F4F2F2D207830E0062E0B
:1046C00002C0359527950A94E2F73081232B208389
:1046D0002F2D2F77D6012D936D018617970739F768
:1046E0000196480F591F5A01B5E0AB0EB11CE5E029
:1046F000F0E0EC0FFD1F4E0F5F1F87EFDA018C9388
:10470000F12CE12C1DA61EA61FA66501CE18DF0800
:10471000B4E0CB16D10418F083E0C82ED12C61E0B0
:1047200070E06C0F7D1F6E0D7F1DA601CE018D9672
:104730000E94DC2DE091EB02F091EC020FA52EA57A
:104740004DA5B6018BEE92E00995E3E0EE0EF11C6B
:10475000EA14FB04B8F20FB6F894DEBF0FBECDBF6B
:10476000AF960FB6F894DEBF0FBECDBFDF91CF91ED
:104770001F910F91FF90EF90DF90CF90BF90AF907F
:104780009F908F907F90089514825F0185E0A80E1E
:10479000B11C6B0190E080E0D6017D906D01019627
:1047A000A72DA078B0E0082E02C0B595A7950A9471
:1047B000E2F7B481AB2BA483E89477F8D5017D921E
:1047C0005D018730910541F74F5F5F4F695F7F4F14
:1047D000389642CF2F923F924F925F926F927F9284
:1047E0008F929F92AF92BF92CF92DF92EF92FF9201
:1047F0000F931F93CF93DF93CDB7DEB7A4970FB678
:10480000F894DEBF0FBECDBFF9016450710990E08E
:1048100080E0841708F05AC077FD34C1DF01A80F8B
:10482000B91F3C91373F09F025C1462F4770542EE0
:104830005B0153E0B694A7945A95E1F727E02A9DCF
:10484000C0012B9D900D11249C01442321F0240FC5
:10485000311D215031096230710514F1DE011196CC
:1048600040E6242E42E0342E10E000E03D010A151F
:104870001B0509F04BC0552099F0687FAB01405AE9
:104880005D4F7A01DA01860D971D70E060E0E52D3D
:10489000E150FF0B8F0111966017710708F45CC09F
:1048A0008981823360F5803388F4813179F048F46E
:1048B000803109F467C0AE014F5F5F4F60E080E870
:1048C00082C0803209F459C08132A9F7A4960FB68C
:1048D000F894DEBF0FBECDBFDF91CF911F910F9136
:1048E000FF90EF90DF90CF90BF90AF909F908F9010
:1048F0007F906F905F904F903F902F9008958034FD
:10490000D0F2823418F38038B1F6E0CFF101808024
:10491000912C6D0141E050E07101E40EF51EF701AC
:104920004080E89447F87401042E01C0EE0C0A940C
:10493000EAF7FE2DF078EF2EE428F601E1926F0100
:104940004F5F5F4F4830510539F70F5F1F4F179684
:10495000F8E02F0E311C8BCF6F5F7F4FF701408146
:10496000062E01C0440F0A94EAF740785C915F7705
:10497000452BFC014193CF018ECF8A81823061F0BB
:104980008430B1F0EA81E150ED3008F09FCFF0E0E3
:10499000E459F14D0C94C62D6B8183E090E00E94A8
:1049A0000A2E6B8170E090E080E00E942D0AEACF31
:1049B0008B8190E00E94270FE5CF30E020E050E0AF
:1049C00040E061E081E10E94EB2280CF82E090E054
:1049D0000E94FC2D89A321E030E0AE014F5D5F4FC6
:1049E00068E0F0CF83E090E00E94FC2D89A321E0F5
:1049F00030E0AE014F5D5F4F62E0E4CF6091DB03DA
:104A00007091DC038091DD039091DE030E94CC2D38
:104A100069A37AA38BA39CA324E030E0AE014F5D91
:104A20005F4F63E0CFCF30E020E050E040E069E04E
:104A3000C9CF30E020E050E040E065E0C3CF30E097
:104A400020E050E040E066E0BDCF0E94D40C89A396
:104A500021E030E0AE014F5D5F4F64E0B3CF86E010
:104A600089A388E08AA322E030E0AE014F5D5F4F6A
:104A70006DE0A8CF653271050CF028CFDB01A05A9C
:104A8000BD4F3C936F5F7F4F0196C3CE1F920F9235
:104A90000FB60F9211242F933F934F935F936F9311
:104AA0007F938F939F93AF93BF93CF93DF93EF93B6
:104AB000FF93D091E900DF708091EC00C82FC170A6
:104AC00080FDC0E81092E9008091F000877F80931C
:104AD000F00078940E94960F1092E9008091F00007
:104AE00088608093F000CD2BCF70C093E900FF91D8
:104AF000EF91DF91CF91BF91AF919F918F917F9176
:104B00006F915F914F913F912F910F900FBE0F903A
:104B10001F9018951F920F920FB60F9211242F938A
:104B20003F934F935F936F937F938F939F93AF9335
:104B3000BF93EF93FF938091E10082FF09C08091C2
:104B4000E20082FF05C08091E1008B7F8093E1004D
:104B50008091DA0080FF24C08091D80080FF20C0BF
:104B60008091DA008E7F8093DA008091D90080FFF7
:104B70009BC080E189BD82E189BD09B400FEFDCF03
:104B800081E08093E1028091D402811109C00E94EA
:104B9000A4040E9499058091E20084608093E20061
:104BA0008091E10080FF17C08091E20080FF13C078
:104BB0008091E2008E7F8093E2008091E20080612C
:104BC0008093E2008091D80080628093D80019BC65
:104BD00085E08093E1028091E10084FF29C080910B
:104BE000E20084FF25C080E189BD82E189BD89B5ED
:104BF000982F917080FFFBCF8091D8008F7D80939C
:104C0000D8008091E1008F7E8093E1008091E200E6
:104C10008F7E8093E2008091E20081608093E200C9
:104C20008091E202882309F445C084E08093E10288
:104C30008091E10083FF27C08091E20083FF23C0C1
:104C40008091E100877F8093E10082E08093E10220
:104C50001092E2028091E1008E7F8093E1008091CA
:104C6000E2008E7F8093E2008091E2008061809379
:104C7000E20042E060E080E00E9467058091F00081
:104C800088608093F000FF91EF91BF91AF919F9169
:104C90008F917F916F915F914F913F912F910F90E5
:104CA0000FBE0F901F90189519BC1092E102109240
:104CB000D40276CF8091E30087FD93E09093E102E8
:104CC000B7CFCDB7DEB7E5970FB6F894DEBF0FBE0E
:104CD000CDBF10921003109212031092110380ECBA
:104CE0008093D50383E193E09093D7038093D60319
:104CF0001092D4031092D3031092F0021092EF029C
:104D00001092F2021092F1021092F4021092F30249
:104D10001092F6021092F5021092F8021092F70229
:104D20001092FA021092F9021092FC021092FB0209
:104D30001092FE021092FD02109200031092FF02E8
:104D400010920203109201031092040310920303C5
:104D500010920A031092090382E896E09093EC0205
:104D60008093EB028DED96E090930C0380930B0300
:104D70008AE596E090930803809307038BE596E01D
:104D80009093EE028093ED028AEE93E290930603F5
:104D90008093050384B7877F84BF0FB6F894A895E6
:104DA00080916000886180936000109260000FBE67
:104DB00080E890E00FB6F8948093610090936100D2
:104DC0000FBE85B7806885BF85B7806885BF88E5D9
:104DD00096E090938101809380010E949821109227
:104DE00086021092850281E090E090938B0280937E
:104DF0008A0282E090E09093900280938F0283E099
:104E000090E0909395028093940284E090E09093D8
:104E10009A028093990285E090E090939F0280939C
:104E20009E020E94A4040E9499058091E200846081
:104E30008093E20078948091E1028823A1F01091A0
:104E4000E9001F709091EC00892F817090FD80E83F
:104E5000182B1092E9008091E80083FD0E94960FC4
:104E60001F701093E90082E084BD93E095BD9AEF36
:104E700097BD80936E0083E90E94FA0B82E90E943D
:104E8000FA0B81E90E94FA0B80E90E94FA0B84E98F
:104E90000E94FA0B86E60E94FA0B09E611E0F1E7A0
:104EA000EF2EF1E0FF2ED8018D918D010E94FA0BBB
:104EB000E016F106C1F7E9EAF2E08FEA92E0A8EC29
:104EC000B2E011921D928E179F07D9F790E080E013
:104ED0000E94042E8A3E9E4F11F00E94C41582E06B
:104EE00090E00E94FC2D8093BF020E94D40C90930E
:104EF000A4028093A3020E947714EFEFF6E721E06B
:104F0000E150F0402040E1F700C000000E9477141B
:104F10008091C80280FF17C06FEF83E290E00E948B
:104F20000A2E6FEF84E290E00E940A2E6FEF85E276
:104F300090E00E940A2E6FEF7FEF90E080E00E94E9
:104F4000282E0E94680783E090E00E94FC2D682FC5
:104F500070E090E080E00E942D0A8CE090E00E94DA
:104F6000FC2D90E0B0E0A0E08093A5029093A60213
:104F7000A093A702B093A80283E290E00E94FC2DC8
:104F8000823C09F064C584E290E00E94FC2D883EDA
:104F900009F05DC585E290E00E94FC2D843009F0A7
:104FA00056C580E191E09093B0028093AF02E8E1B2
:104FB0006E2E712C88EC92E046E0480F4DAB80914C
:104FC000E10200E112E1853009F4C6C10E947714C4
:104FD000882359F08FB7F8944091CE025091CF02B8
:104FE0006091D0027091D1028FBFE0ECF2E0A8ECAA
:104FF000B2E010E000E0302F8D919191981709F404
:10500000BAC1292F282790E0FF24F3944F2D422383
:1050100009F4ACC19BA73CA78F2191E009F490E073
:105020009DA70E9488078160782F9FA78EA74BA518
:105030005CA56DA58FA50E946520F801E054FD4F89
:105040008081F826F08286E0E8EBF2E08E010F5FC7
:105050001F4FD80101900D928A95E1F7D090BA02C6
:10506000C090BB02F090BC02E090BD021092BA0268
:105070001092BB021092BC021092BD028D2D8C29A1
:1050800009F448C08091B6029091B7020E94790756
:105090009C019091B502992309F400C52333310591
:1050A000C8F19F3F19F09F5F9093B502DD2059F042
:1050B0000E94150B9FEF1D140CF491E0899F802D29
:1050C00011248093BA02CC2059F00E94150B9FEF57
:1050D0001C140CF491E0899F802D11248093BB0255
:1050E0003091BA023323B1F02091BB02222391F018
:1050F00045EB3403C0011124992309F453C1909363
:10510000BA0245EB240390011124332309F44EC164
:105110003093BB028F2D8E2909F448C08091B302D1
:105120009091B4020E9479079C019091B202992358
:1051300009F4AFC425363105C8F19F3F19F09F5FD0
:105140009093B202FF2059F00E94F30A9FEF1F14C0
:105150000CF491E0899F802D11248093BC02EE20F5
:1051600059F00E94F30A9FEF1E140CF491E0899FFE
:10517000802D11248093BD023091BC023323B1F005
:105180002091BD02222391F045EB3403C00111248C
:10519000992309F40FC19093BC0245EB24039001BD
:1051A0001124332309F40AC13093BD028091BA025D
:1051B0009091BB02892B9091BC02892B9091BD02EA
:1051C000892B11F00E944D0986E0F801A8EBB2E0AE
:1051D00001900D928A95E1F7E0910B03F0910C0399
:1051E000309719F08BEE92E009959FB7F894E09014
:1051F000D4038091D303E81608F4E4C0E81A9FBFF3
:10520000D12CC12CF12C53E0852E912CAA24A394EF
:10521000B12C74E0372E22242394CE14DF0408F43A
:10522000D5C00E94C4089091BE02891721F00E9447
:10523000C4088093BE028091E1028430E1F4809141
:1052400005018F708093E9009091E80090FF13C0F2
:105250009091E102943079F48093E9009091F30009
:105260008091F200892B39F08091E8008E7780934D
:10527000E8000E94C3048091E102843009F09FCECF
:1052800083E08093E9008091E80082FF98CE8091CE
:10529000E80090E085FF08C050E040E060E270E088
:1052A000C8010E941E0591E08091E8008B778093F1
:1052B000E800992309F483CEE090D202F090D30263
:1052C0008981E114F10409F436C18E3F09F07EC1F1
:1052D0008A81833020F08550833008F077C1EA81DD
:1052E000EE3008F073C1F0E0E758F14D0C94C62D94
:1052F0008091E102843011F11092B10280E40FB686
:10530000F894A895609260000FBE8093600083B708
:10531000817F846083BF83B7816083BF78948895E1
:1053200083B78E7F83BF0FB6F894A89580916000F5
:10533000886180936000109260000FBE8091E0024F
:10534000882351F00E947714E8ECF2E081918111FA
:1053500068C39DA99E13FACF8091E102853009F4BC
:10536000C7CF0E948B0F0E94C40830CE9F5FFF0CF6
:10537000983009F04BCE0F5F1F4F0630110509F032
:105380003ACE8FEF88AB89AB1AAA0E94880781605A
:10539000782F9CAB8BAB48A959A96AA98CA90E940C
:1053A000652051CE81E08093BA02ABCE81E080933C
:1053B000BB02B0CE81E08093BC02EFCE81E080934F
:1053C000BD02F4CE2091D503E20E18CF8091D30315
:1053D00090E06091D50370E00E94B22D2091D60339
:1053E0003091D703280F391FD9015C9040901003EA
:1053F000B7EFB515E8F42092100320E040E0652DEA
:1054000081E090E00E94B203409210032FB7F8941D
:105410008091D30390E001966091D50370E00E94E3
:10542000B22D8093D3032FBF8FEFC81AD80AF5CEC1
:1054300057FE52C0E4E04E1631F050920D03B09288
:105440001203A0921103852D0E945F06813069F03E
:105450008823D1F08230A9F0833099F010921003A4
:105460001092120310921103D1CF8093100320E009
:1054700040E0652D81E090E00E94B203109210039D
:10548000C5CF80931003C2CFF0EF5F16E1F027EF96
:105490005212E4CF2091110330911203C901B401DB
:1054A0000E949E2DFC01E551FD4F52A2C9010196BB
:1054B000909312038093110320910F0340910E03E8
:1054C00060910D03D9CF3092100350920D03B0922A
:1054D0001203A09211039ACF442009F497CF209190
:1054E000110330911203C901B4010E949E2DAC0139
:1054F000FC01E551FD4F52A2C901019690931203A0
:10550000809311034130510589F04230510509F073
:105510007DCF20910F0340910E0360910D030E94F7
:10552000B20380911003843091F670CF42E020E006
:1055300044126CCFF0CF8D3009F4B2C0B0F4843097
:1055400009F495C040F4823041F108F081C0813007
:1055500001F18FEF2BC2863009F49FC008F492C08E
:105560008C30B9F780E18A8331C0813109F4F4C00D
:1055700040F48F3009F4C2C008F496C00E94460F70
:1055800025C0833109F413C108F4E8C08E3F09F740
:10559000A6CE1A8289E08B8319C08A81823009F4F1
:1055A0006FC28330E1F18130A1F62FB7F89460919A
:1055B000CE027091CF028091D0029091D1022FBF84
:1055C0000E94CC2D6B837C838D839E838091E1022E
:1055D000843009F0F4CCF090E9002F2D2F70F22EDA
:1055E0009091EC00892F817090FD80E8F82A82E08C
:1055F0008093E9008091E80080FF0CC050E040E01B
:1056000060E270E0C8010E94F4048091E8008E77A7
:105610008093E8008F2D8F708093E900D0CC80912B
:10562000020190910301892B89F28091C8028B833A
:105630008091C9028C838091CA028D838091CB02B4
:105640008E838091CC028F838091CD028887BECFDC
:105650008A81823009F07DCF6B817C818D819E8132
:105660000E94CC2D86E290E00E940A2EAFCF4C81A2
:105670006B818A810E94E20C9827892798279E8354
:105680008D83A4CF2D813E813227232732274C8161
:105690006B818A810E94560F99CF0E94721296CF19
:1056A00081E08A838FE977CFEC80F12C9DE1E916C8
:1056B000F10408F08BCFCA80DB80DC24CD24DC240D
:1056C0005801E00EF11EC6018F599D4FEA14FB04EC
:1056D00009F47CCFAFE9CA16A1E0DA0658F40E94BB
:1056E000FC2DF5018483BFEFCB1ADB0AEFEFAE1A76
:1056F000BE0AE9CFD50114961C92F5CF8091020124
:1057000090910301892B09F461CFEC80F12CFDE12C
:10571000EF16F10408F05ACFCA80DB80DC24CD24D8
:10572000DC245801E00EF11EC6018F599D4FEA148A
:10573000FB0409F44BCF2FE9C21621E0D20628F46E
:10574000D50114966C910E940A2EBFEFAB1ABB0ACA
:10575000EFEFCE1ADE0AE8CF85E005CFEC80F12C22
:10576000FDE1EF16F10408F031CFCA80DB80DC24C4
:10577000CD24DC245801E00EF11EC6018796EA1400
:10578000FB0409F423CF20EEC21621E0D20660F418
:105790000E94FC2DD50114968C93FFEFCF1ADF0ADF
:1057A0002FEFA21AB20AE9CFF5011482F6CFAC802E
:1057B000B12C4DE1A416B10408F008CFCA80DB80FB
:1057C000DC24CD24DC2480EEC81681E0D80608F065
:1057D000FDCE80EE91E08C199D098A159B0508F499
:1057E000F5CE460197E2890E911CF12CE12CC40103
:1057F0008E0D9F1DEA14FB0408F0E8CE97012C0DD6
:105800003D1D203E314030F4F801EE0DFF1D648156
:105810000E940A2EBFEFEB1AFB0AE9CF88E0EBE10A
:10582000F1E0DE01919601900D928A95E1F780E218
:10583000F80111928A95E9F784E0898388E0FE01F6
:10584000B196DE01159601900D928A95E1F7BECED4
:1058500080EA898381E08A831B821C82B7CE8C8197
:10586000682F70E0762F66278B81860F972F911D0A
:10587000092E000CAA0BBB0B45E0880F991FAA1F2D
:10588000BB1F4A95D1F7AC01BD01405E5F4F6F4F22
:105890007F4F481759076A077B0708F497CE803A6D
:1058A000F1E09F07A105B10508F090CE413A21E053
:1058B00052076105710520F040EA51E060E070E0B8
:1058C000481B590BBC01615E7B4FC8010E94D32D60
:1058D0007DCE4EE150E06FEF70E0CE0103960E9466
:1058E000E52D809102018983EA8270CE81E090E00B
:1058F0009093D3028093D20282E390E09093C70208
:105900008093C6020E94880761CE8091020189833C
:10591000EA828091C6023FCE40E250E06FEF70E035
:10592000C8010E94E52D52CE8B81823009F44BC014
:10593000E8F48823E9F1813009F048CE8C812AE02F
:10594000F22E6E01B1E2CB0ED11CF6012F2D119279
:105950002A95E9F7B6010E9484218983F601DE01C8
:10596000129601900D92FA94E1F730CE833009F44B
:1059700048C0843009F02ACE6C818AE0FE01359659
:10598000DE01919601900D928A95E1F7663008F05C
:10599000E0CDFAE06F9FB00111246B5D7D4F4AE0CE
:1059A00050E0CE0181960E942E2E80E089830ECE9B
:1059B000FE0133968EE1DF011D928A95E9F783E0BF
:1059C000898386E0D0CD6C818AE0FE013596DE01C8
:1059D000919601900D928A95E1F78FEF633068F40C
:1059E0004AE0649FB0011124695F7D4F4AE050E0B6
:1059F000CE0181960E942E2E80E089830E949821FC
:105A0000E5CD8C819AE0F92E6E0191E2C90ED11C90
:105A1000D601EF2D1D92EA95E9F7B6010E942F16E7
:105A20009CCF09BD19BD09B400FEFDCF8091D800FF
:105A30008F7D8093D8008091E00082608093E000A9
:105A40008091E00081FDFCCF0E948B0F85CC60E04F
:105A500086E290E00E940A2E0E9472120E94460F77
:105A600062EC83E290E00E940A2E68EE84E290E00D
:105A70000E940A2E64E085E290E00E940A2E91CAFC
:105A800086E290E00E94FC2D1B821C821D828E8388
:105A90009DCD2D32314008F052CB88CB2D32314094
:105AA00008F001CB37CB78941F921FB61F921124B8
:105AB0008F939F93AF93BF938091CE029091CF022B
:105AC000A091D002B091D1020196A11DB11D809389
:105AD000CE029093CF02A093D002B093D102BF9197
