:100000000C9432050C9479050C9479050C947905BF
:100010000C9479050C9479050C9479050C94790568
:100020000C9479050C9479050C946E250C9441265A
:100030000C94811C0C9479050C9479050C94790529
:100040000C9479050C9479050C9479050C94790538
:100050000C9479050C94E21C0C9479050C947905A8
:100060000C9479050C9479050C9479050C94790518
:100070000C9479050C9479050C9479050C94790508
:100080000C9479050C9479050C9479050C947905F8
:100090000C9479050C9479050C9479050C947905E8
:1000A0000C9479050C9479050C94790529001400B9
:1000B0001A000800150017001C0018000C001200A0
:1000C00013002F002A002B0004001600070009006F
:1000D0000A000B000D000E000F0033002800E100A5
:1000E0001D001B000600190005001100100036005D
:1000F00037003800E1000000E000E300E2002C00DF
:1001000000002C00E200E300E0000000010001001C
:1001100001000100010001000100010001000100D7
:1001200001000100010001000100010001000100C7
:1001300001000100010001000100010001000100B7
:1001400001000100010001000100010001000100A7
:100150000100010001000000010001000100010098
:100160000000010001000100010000000100010089
:100170000100010001000100010001000100010077
:100180000100010001000100010001000100010067
:100190000100010001000100010001000100010057
:1001A0000100010001000100010001000100010047
:1001B0000100010001000000010001000100010038
:1001C0000000010001000100010000000100010029
:1001D0000100010001000100010001000100010017
:1001E0000100010001000100010001000100010007
:1001F00001000100010001000100010001000100F7
:1002000001000100010001000100010001000100E6
:1002100001000100010000000100010001000100D7
:1002200000000100010001000100000001000100C8
:1002300001000100010001000100010001000100B6
:1002400001000100010001000100010001000100A6
:100250000100010001000100010001000100010096
:100260000100010001000100010001000100010086
:100270000100010001000000010001000100010077
:100280000000010001000100010000000100010068
:100290000100010001000100010001000100010056
:1002A0000100010001000100010001000100010046
:1002B0000100010001000100010001000100010036
:1002C0000100010001000100010001000100010026
:1002D0000100010001000000010001000100010017
:1002E0000000010001000100010000000100010008
:1002F00001000100010001000100010001000100F6
:1003000001000100010001000100010001000100E5
:1003100001000100010001000100010001000100D5
:1003200001000100010001000100010001000100C5
:1003300001000100010000000100010001000100B6
:1003400000000100010001000100000001000100A7
:100350000100010001000100010001000100010095
:100360000100010001000100010001000100010085
:100370000100010001000100010001000100010075
:100380000100010001000100010001000100010065
:100390000100010001000000010001000100010056
:1003A0000000010001000100010000000100010047
:1003B0000100010001000100010001000100010035
:1003C0000100010001000100010001000100010025
:1003D0000100010001000100010001000100010015
:1003E0000100010001000100010001000100010005
:1003F00001000100010000000100010001000100F6
:1004000000000100010001000100000001000100E6
:1004100001000100010001000100010001000100D4
:1004200001000100010001000100010001000100C4
:1004300001000100010001000100010001000100B4
:1004400001000100010001000100010001000100A4
:100450000100010001000000010001000100010095
:100460000000010001000100010000000100010086
:100470000100010001000100010001000100010074
:100480000100010001000100010001000100010064
:100490000100010001000100010001000100010054
:1004A0000100010001000100010001000100010044
:1004B0000100010001000000010001000100010035
:1004C0000000010001000100010000000100010026
:1004D0000100010001000100010001000100010014
:1004E0000100010001000100010001000100010004
:1004F00001000100010001000100010001000100F4
:1005000001000100010001000100010001000100E3
:1005100001000100010000000100010001000100D4
:1005200000000100010001000100000001000100C5
:1005300001000100010001000100010001000100B3
:1005400001000100010001000100010001000100A3
:100550000100010001000100010001000100010093
:100560000100010001000100010001000100010083
:100570000100010001000000010001000100010074
:100580000000010001000100010000000100010065
:100590000100010001000100010001000100010053
:1005A0000100010001000100010001000100010043
:1005B0000100010001000100010001000100010033
:1005C0000100010001000100010001000100010023
:1005D0000100010001000000010001000100010014
:1005E0000000010001000100010000000100010005
:1005F00001000100010001000100010001000100F3
:1006000001000100010001000100010001000100E2
:1006100001000100010001000100010001000100D2
:1006200001000100010001000100010001000100C2
:1006300001000100010000000100010001000100B3
:1006400000000100010001000100000001000100A4
:100650000100010001000100010001000100010092
:100660000100010001000100010001000100010082
:100670000100010001000100010001000100010072
:100680000100010001000100010001000100010062
:100690000100010001000000010001000100010053
:1006A0000000010001000100010000006432146438
:1006B0003214783C1E1E140A0500000000010101DE
:1006C0000202030405050607090A0B0C0E0F11129E
:1006D000141517191B1D1F212325282A2C2F3134EF
:1006E00036393B3E414346494C4F5255585A5D615D
:1006F00064676A6D707376797C7F8386898C8F924C
:1007000095989B9EA2A5A7AAADB0B3B6B9BCBEC131
:10071000C4C6C9CBCED0D3D5D7DADCDEE0E2E4E67E
:10072000E8EAEBEDEEF0F1F3F4F5F6F8F9FAFAFB9E
:10073000FCFDFDFEFEFEFFFFFFFFFFFFFFFEFEFED6
:10074000FDFDFCFBFAFAF9F8F6F5F4F3F1F0EEED45
:10075000EBEAE8E6E4E2E0DEDCDAD7D5D3D0CECBD4
:10076000C9C6C4C1BEBCB9B6B3B0ADAAA7A5A29E46
:100770009B9895928F8C898683807C797673706D37
:100780006A6764615D5A5855524F4C494643413E31
:100790003B393634312F2C2A282523211F1D1B19C4
:1007A00017151412110F0E0C0B0A09070605050484
:1007B000030202010101000000000000000001012D
:1007C0000101010101010102020202020202020210
:1007D00003030303030303030404040404040505DF
:1007E00005050506060606060707070708080808A0
:1007F0000909090A0A0A0A0B0B0B0C0C0C0D0D0D4A
:100800000E0E0F0F0F1010111111121213131414DA
:10081000151516161717181819191A1A1B1C1C1D4E
:100820001D1E1F1F202021222223242525262727A5
:1008300028292A2B2B2C2D2E2F2F303132333435D3
:1008400036363738393A3B3C3D3E3F4041424344DF
:10085000464748494A4B4C4D4F50515253555657B5
:10086000585A5B5C5E5F606263646667696A6C6D60
:100870006E707173747678797B7C7E8081838486D8
:10088000888A8B8D8F91929496989A9B9D9FA1A315
:10089000A5A7A9ABADAFB1B3B5B7B9BBBDBFC1C417
:1008A000C6C8CACCCFD1D3D6D8DADCDFE1E4E6E8DB
:1008B000EBEDF0F2F5F7FAFCFF12036B006500793F
:1008C0000062006F00610072006400000016037196
:1008D000006D006B006200750069006C00640065CB
:1008E00000720000000403090409026D0004010005
:1008F000A0FA09040000010301010009211101000F
:10090000012240000705810308000A0904010001D3
:1009100003010200092111010001224D0007058297
:100920000308000A09040200010300000009211164
:100930000100012236000705830308000A090403A9
:100940000001030000000921110100012239000704
:100950000584032000011201100100000008EDFED3
:10096000606001000102000105010906A1010507FF
:1009700019E029E715002501950875018102050890
:1009800019012905950575019102950175039101DC
:100990000507190029F71500250195F87501810251
:1009A000C005010980A10185021601002603001A75
:1009B00081002A8300751095018100C0050C090192
:1009C000A1018503160100269C021A01002A9C023F
:1009D000751095018100C005010902A1010901A15D
:1009E00000050919012905150025019505750181E5
:1009F0000295017503810105010930093115812531
:100A00007F95027508810609381581257F95017546
:100A1000088106050C0A38021581257F95017508A5
:100A20008106C0C005010906A101050719E029E7F3
:100A30001500250195087501810295017508810150
:100A400005081901290595057501910295017503A0
:100A500091010507190029FF150026FF009506756D
:100A6000088100C011241FBECFEFDAE0DEBFCDBF8A
:100A700004B603FE27C080915F0290916002A091AE
:100A80006102B09162028730904BA740B04BD1F425
:100A900010925F0210926002109261021092620244
:100AA00014BE84B7877F84BF0FB6F894A895809151
:100AB0006000886180936000109260000FBEE0E0EB
:100AC000F8E3099511E0A0E0B1E0E2E9F3E502C046
:100AD00005900D92A633B107D9F722E0A6E3B1E065
:100AE00001C01D92AF35B207E1F70E94C2220C94FB
:100AF00092290C94000090E080E0089508950895F4
:100B000081E00895089581E008950C9480050E9485
:100B1000CD142FEF84E39CE0215080409040E1F71A
:100B200000C000000C94051DEF92FF920F931F93DD
:100B3000CF93DF937C01DC010D911C911197809183
:100B40007B01811143C012968C918823D1F1C80199
:100B50000E94511AC82F682FC8010E94FB19B801C2
:100B60008C2F0E94FF06EC01B7010E9485058823A7
:100B700009F468C0B701CE010E940909882309F46D
:100B800061C0CE33B0E7DB0770F4C433E0E7DE07C3
:100B900010F5C130F0E7DF0709F45CC050F5C1156E
:100BA000D04709F44AC081E080933801809339012D
:100BB000C701DF91CF911F910F91FF90EF900C949F
:100BC0008305C8010E94281AC82FC9CFC8010E94F6
:100BD000511AB801C6CFFE01E553F047D70112966E
:100BE0008C91E930F10508F040C0EC56F64D0C94BC
:100BF0004429CE01825090474397A8F6F70182819D
:100C00008823B1F20E94131C811102C00E94F21BC2
:100C10000E94301C90E09093510280935002FE019C
:100C2000E350F047809150028160E231F10508F015
:100C300047C0E356F64D0C944429F7018281811197
:100C40000E94870580E0DF91CF911F910F91FF9067
:100C5000EF900895D70112968C91882399F3809193
:100C6000FF0181608093FF01EDCF882359F30E943B
:100C7000430DE8CF882331F30E94390DE3CF882359
:100C800009F30E94160CDECF8823E1F20E942E0C9D
:100C9000D9CF8823B9F20E944D0CD4CF882391F28A
:100CA0000E94650CCFCF882369F20E947D0CCACFC9
:100CB000882341F20E94950CC5CF8091500282603A
:100CC00080935002809150020E94341C0E94CD14E7
:100CD000B9CF809150028460F3CF80915002886038
:100CE000EFCF809150028061EBCF80915002806203
:100CF000E7CF809150028064E3CF809150028068FA
:100D0000DFCF809150028C60DBCF809150028E7FCC
:100D1000D7CF809150028D7FD3CF809150028B7FAF
:100D2000CFCF80915002877FCBCF809150028F7EB2
:100D3000C7CF809150028F7DC3CF809150028F7BAF
:100D4000BFCF809150028F77BBCF80915002837FBD
:100D5000B7CF90915002892F97FB87F98058B0CF79
:100D6000882361F0109238010E94B11C90933701E2
:100D70008093360182E00E94321264CF8091380164
:100D800081110FC080913601909137010E94BD1CE6
:100D9000883C910530F486E20E94071186E20E94A9
:100DA000E31182E00E9439124DCF882351F0109256
:100DB00039010E94B11C909337018093360180E283
:100DC000DACF8091390181110FC080913601909165
:100DD00037010E94BD1C883C910530F487E20E94D7
:100DE000071187E20E94E31180E2DCCF0C945809DE
:100DF0000C945A090C9482050C94FA060895E72F76
:100E0000F0E096E0899FE00DF11D112483E0EE0FE4
:100E1000FF1F8A95E1F7E60FF11DEE0FFF1FE45566
:100E2000FF4F859194910895FC01EE0FFF1FE4554B
:100E3000F94F8591949108950E94FF060E948D08B4
:100E40009C01811540E4940708F097C0211580E3C8
:100E5000380708F0FAC0203E310508F074C0203C85
:100E6000310508F0E5C0283A310588F4253A310506
:100E700008F0E2C02130310509F477C0C9010497B8
:100E8000813A910508F471C030E020E06EC0C901DC
:100E9000885A91094597C0F7283A310509F4FEC0F0
:100EA000293A310509F4FDC02A3A310509F4FCC09C
:100EB0002B3A310509F4FBC02C3A310509F4FAC08C
:100EC0002B3B310509F4F9C02C3B310509F4F8C07E
:100ED0002D3A310509F4F7C0203B310509F4F6C07D
:100EE0002E3A310509F4F5C02F3A310509F4F4C062
:100EF000213B310509F4F3C0223B310509F4F2C06E
:100F0000233B310509F4F1C0243B310509F4F0C05D
:100F1000253B310509F4EFC0263B310509F4EEC04D
:100F2000273B310509F4EDC0283B310509F4ECC03D
:100F3000293B310509F4EBC02A3B310509F4EAC02D
:100F400020E034E412C0211590E2390780F42F3FED
:100F5000310509F050F4283E310538F0C901805FB1
:100F600091093065409708F08FCFC9010895C901F4
:100F70009F700E9414079C01F8CF8115944508F0DA
:100F800041C0211583E5380708F06AC0211592E5B4
:100F9000390738F5211541E5340708F05CC0211503
:100FA00080E5380708F454C0C90134E09695879568
:100FB0003A95E1F78370422F46954695437090E24B
:100FC000499FA0011124582B822F837021E030E02B
:100FD00002C0220F331F8A95E2F7242B352B3C6881
:100FE000C4CFC9018370992741E050E002C0440F8B
:100FF000551F8A95E2F72695269580E2289F900155
:101000001124EBCF211596E5390748F4922F882754
:1010100021153545C8F59C01246F306AA6CFC9015A
:1010200090563F708115904108F02ECF30629DCFD1
:10103000C901805C91099DCF253A310549F1263AD5
:10104000310549F522E830E490CF3327306C8DCF5D
:101050003F70306A8ACF322F2227216F306A85CFC6
:10106000C9018370992741E050E002C0440F551F29
:101070008A95E2F72695269580E2289F9001112413
:10108000242B352B3A6871CF88279F719C01CECFD6
:1010900021E830E46ACF23E830E467CF22EE34E47D
:1010A00064CF29EE34E461CF2AEE34E45ECF25EB41
:1010B00034E45BCF26EB34E458CF23EB34E455CF54
:1010C00024EB34E452CF27EB34E44FCF2CEC34E460
:1010D0004CCF2DEC34E449CF23E835E446CF2AE861
:1010E00035E443CF22E935E440CF24E935E43DCF70
:1010F00021E236E43ACF23E236E437CF24E236E485
:1011000034CF25E236E431CF26E236E42ECF27E293
:1011100036E42BCF2AE236E428CF803E910581F1D8
:10112000C8F48133910509F462C048F4893291050D
:1011300009F456C08A32910509F460C008958933D4
:101140009105B9F082389105A1F08533910509F434
:1011500040C00895863E910561F138F4823E9105C4
:10116000B1F0833E9105E1F00895873E910551F17C
:101170000895209150022370D9F080EE90E00895F8
:101180002091500220FF14C089E390E0089520913F
:10119000500222FF0DC024FD09C083EE90E00895A7
:1011A0002091500222FD31C024FF02C090E080E077
:1011B00008952091500223FFFBCF24FDF7CF87EE47
:1011C00090E008952091500223FFEECF86EE90E04C
:1011D00008952091500225FFEBCF89E290E0089519
:1011E0002091500225FFE4CF85E390E008952091FF
:1011F000500226FFDDCF8AE290E008952091500250
:1012000026FFD6CF81E390E0089582EE90E0089526
:1012100008950F931F93CF938C01FB01828181115D
:1012200006C0C1E08C2FCF911F910F910895C091FE
:101230004701C11125C00531104799F70E940809DF
:1012400081E0809347010E94B11C909346018093F6
:10125000450110923A0110923C0110923B0110920C
:101260003E0110923D011092400110923F011092F8
:101270004201109241011092440110924301D2CFD9
:1012800080914501909146010E94BD1C883C9105CA
:1012900040F680913A01E82FF0E0EE0FFF1FE55C89
:1012A000FE4F118300838F5F80933A01C0E0BACF75
:1012B0000C947E050C947F0585B7806885BF85B743
:1012C000806885BFACE1B1E061E070E08D91E82F0E
:1012D000E295EF70F0E041A18F709B0101C0220FF9
:1012E0008A95EAF7922F9095942391A382A1822B5D
:1012F00082A381E0A232B80749F7A4E1B1E061E03E
:1013000070E08D91E82FE295EF70F0E041A18F70D1
:101310009B0101C0220F8A95EAF7922F90959423A2
:1013200091A382A1822B82A381E0AC31B80749F757
:10133000EEE4F1E0A8E4B1E084E591E011921D92C1
:101340008E179F07D9F70C94F6064F925F926F9213
:101350007F928F929F92AF92BF92CF92DF92EF9245
:10136000FF920F931F93CF93DF9308E411E08CE17A
:10137000C82E81E0D82E2801EE24E394F12CBB2462
:10138000B394D2019D902D011E92E60189916E01C8
:10139000E82FE295EF70F0E091A18F70970101C006
:1013A000220F8A95EAF7892F822B81A382A1822EB0
:1013B0008094882182A3D0EADA95F1F764E171E0A4
:1013C00090E080E0EB01A990BE014A2D42954F705C
:1013D00050E0EA0168A07C905A2D5F70E70102C0DE
:1013E000CC0FDD1F5A95E2F7AE01462109F04FC040
:1013F0004E2D082E01C0440F0A94EAF747294C935A
:10140000019688309105F1F681A1882181A382A1FE
:10141000282B22A38C91981641F0B09254010E947F
:10142000B11C9093560180935501DEE44D16D1E036
:101430005D0609F0A6CF809154018823A1F0809128
:101440005501909156010E94BD1C069760F0EEE494
:10145000F1E0D8018D918D018193B1E00E341B072D
:10146000C1F7109254010E94F80681E0DF91CF91FC
:101470001F910F91FF90EF90DF90CF90BF90AF90B2
:101480009F908F907F906F905F904F90089540E075
:10149000B5CFE82FF0E0E25BFE4F8081089508951C
:1014A0009C01CB0165B1542F5095562365B1462B55
:1014B0006FB7F894820F931F2817390711F46FBF85
:1014C0000895F90171919F01E8E045B9000000C05D
:1014D00077FF55B9770F000000C000C000C055B9B4
:1014E00000C0EA9591F7E8CFFC0194B1942B94B930
:1014F0009B01220F331F620F731FCF010E94500AFE
:1015000087EC90E00197F1F700C00000089542E0F9
:101510000C94740AAF92BF92CF92DF92EF92FF9237
:101520000F931F93CF93DF937C01E901842F242F26
:10153000662309F43FC0C42ED12C8FEF90E0861BA8
:101540009109489F8001499F100D1124212F812F5F
:101550009927C81AD90A9CE3A92EB12CC701B50155
:101560000E941C29FB01BC01C69EC001C79E900DB4
:10157000D69E900D1124B5010E941C29E330F1057F
:1015800009F443C080EFE816F10468F4E130F10596
:1015900091F13297A1F18CE3E816F10440F180E07B
:1015A00020E040E007C0E430F10599F1842F861B6C
:1015B0003597A9F7E42FF0E0E754F84F4491E22F74
:1015C000F0E0E754F84F9491E82FF0E0E754F84F3B
:1015D000E49149839883EA83DF91CF911F910F9122
:1015E000FF90EF90DF90CF90BF90AF900895812F44
:1015F000262F210FDFCF812F242F461BDBCF862FF5
:10160000810FE42F412F2E2FD5CFE42FE61B842FFF
:10161000F9CF842F462F410FCDCF88E090E00C9476
:101620005229AB01BC0188E090E00C947029CF9363
:10163000DF9300D000D0CDB7DEB7ECE2F2E083E07C
:10164000808311828FEF8283838380912C0290911B
:101650002D02A0912E02B0912F0289839A83AB8331
:10166000BC83BC01CD010F900F900F900F90DF91C4
:10167000CF910C94110B80912C02E4E3F2E080FFF7
:1016800006C068E070E084E392E00C94870A11825F
:1016900010821282339682E0EC34F807C1F7F1CF62
:1016A000E4E3F2E0818360834283339692E0EC349A
:1016B000F907C1F70C943B0BEF92FF920F931F9326
:1016C000CF93DF9300D00F92CDB7DEB7182FE92E5E
:1016D000F62E042F80912C0290912D02A0912E02C3
:1016E000B0912F028093300290933102A093320286
:1016F000B093330280912C0280FF1FC09E012F5FA8
:101700003F4F812F9E2D0E948A0A8091300210FB4C
:1017100087F9809330021695809131028078182BDA
:10172000E0FA17F910933102F0923202009333027B
:101730004B8169818A810E94500B0F900F900F900E
:10174000DF91CF911F910F91FF90EF9008950F932C
:101750001F93CF93DF9300D000D00F92CDB7DEB7A9
:1017600089839D83062F142F80912C0280FF54C003
:10177000982F9E77923091F589819D810E945C0B14
:1017800080912C02B981B0FB87F980932C02B69529
:1017900080912D028078B82B8D8180FBB7F9B093B2
:1017A0002D0200932E0210932F0280912C02909113
:1017B0002D02A0912E02B0912F0289839A83AB83D0
:1017C000BC83BC01CD010F900F900F900F900F9034
:1017D000DF91CF911F910F910C94110B982F96953B
:1017E0009F732EE3290F2F73243018F410912F02CA
:1017F000C7CF965C9F73993018F6881F8827881F7B
:1018000090912D029D83990F982B9983AD81A7FB11
:10181000AA27A0F9AD83B4CF0F900F900F900F902F
:101820000F90DF91CF911F910F910895ECE2F2E0BC
:101830002081221F2227221F30912D02432F440F87
:10184000842F822B37FB992790F9089668E671E080
:101850000E943029438162810C94A70B20912C02B5
:10186000221F2227221F30912D02432F440F842F45
:10187000822B37FB992790F98830910540F4805AE4
:101880009E4F40912F0260912E020C94A70B089757
:1018900068E671E00E943029F4CF60912E02683F23
:1018A00090F4685F80912C02881F8827881F909190
:1018B0002D02292F220F97FB992790F940912F0293
:1018C000822B0C94A70B6FEFEDCF60912E02683046
:1018D00090F0685080912C02881F8827881F909173
:1018E0002D02292F220F97FB992790F940912F0263
:1018F000822B0C94A70B60E0EDCF40912F02483F64
:1019000090F4485F80912C02881F8827881F90914F
:101910002D02292F220F97FB992790F960912E0213
:10192000822B0C94A70B4FEFEDCF40912F02483044
:1019300090F0485080912C02881F8827881F909132
:101940002D02292F220F97FB992790F960912E02E3
:10195000822B0C94A70B40E0EDCFCF93DF9300D008
:1019600000D0CDB7DEB790912C0290FF47C09178A0
:10197000811132C0926090932C0280912C02909140
:101980002D02A0912E02B0912F0289839A83AB83FE
:10199000BC83BC01CD010E94110B80912C02982FB9
:1019A0009E77923009F510926C01881F8827881F56
:1019B00090912D02292F220F97FB992790F94091A2
:1019C0002F0260912E02822B0F900F900F900F909C
:1019D000DF91CF910C94A70B893110F09063CBCF9E
:1019E0008F73880F982BC7CF982F9695925C9F7313
:1019F0009631D8F691E090936C01D7CF0F900F906D
:101A00000F900F90DF91CF9108958091FF01816039
:101A10008093FF0181E080936D010E94131C81116E
:101A200004C00E94F21B0E94170B0E940D0B6093D2
:101A30002C0270932D0280932E0290932F026E77CA
:101A400061F40E94170B0E940D0B60932C0270939F
:101A50002D0280932E0290932F0281E080936C01DF
:101A600080912C0280FF04C086958F730C94AD0C7E
:101A7000089580912C0286958F738F5F893108F0CD
:101A800081E00C94AD0CCF93DF9300D000D0CDB7A4
:101A9000DEB790912C02892F8E7F90FF816080931A
:101AA0002C0280912C0290912D02A0912E02B091D7
:101AB0002F0289839A83AB83BC83BC01CD010E9432
:101AC000110B80912C0280FF0AC086958F730F90B6
:101AD0000F900F900F90DF91CF910C94AD0C10925E
:101AE0006C019FEFA0E7B2E09150A040B040E1F759
:101AF00000C000000F900F900F900F90DF91CF91DA
:101B00000C943B0BCF93C82F80916A0190916B018D
:101B10000E94BD1CEC2FF0E0EB54F94FE491E81764
:101B2000190609F010F50E94B11C90936B01809387
:101B30006A01E0916901F0E0E754F94F4491809126
:101B40002C02881F8827881F90912D02292F220F91
:101B500097FB992790F960912E02822B0E945C0BD3
:101B6000809169018F5F80936901CF910895CF9330
:101B7000C82F80916701909168010E94BD1CEC2FD5
:101B8000F0E0EE54F94FE491E817190609F0E8F493
:101B90000E94B11C909368018093670140912F02CD
:101BA00060912E0280916501909166010E945C0B0C
:101BB0008091650190916601019668E671E00E944E
:101BC0001C299093660180936501CF910895CF926F
:101BD000DF92EF92FF921F93CF93DF93182F8091A4
:101BE0006301909164010E94BD1CE12FE695F0E035
:101BF000EE54F94FE491E817190609F0C0F50E9478
:101C0000B11C909364018093630184E3E82E82E029
:101C1000F82ED0E0C0E098E6C92EDD24D394809160
:101C20006101909162018C0F9D1FB6010E941C29D9
:101C3000970140912F0260912E020E948A0AAD9670
:101C400083E0E80EF11CC83681E0D80741F70E9416
:101C50003B0B809161019091620110FF10C00196D1
:101C6000BE010E941C299093620180936101DF9163
:101C7000CF911F91FF90EF90DF90CF900895019743
:101C8000F2CFAF92BF92CF92DF92EF92FF920F937B
:101C90001F93CF93DF93C82FDD24DA9480FD02C019
:101CA000DD24D39480915F01909160010E94BD1C5E
:101CB000C695EC2FF0E0E155F94FE491E8171906CD
:101CC00011F008F053C00E94B11C90936001809302
:101CD0005F01C4E3D2E010E000E097E0A92EB12C50
:101CE000198218821A8287E0E82EF12CC12C80918B
:101CF0005E018C0D87FD885F082E000C990B801704
:101D00009107E9F420912F022E9DC0012F9D900D87
:101D10001124B5010E943029462F80912C02881F82
:101D20008827881F90912D02592F550F97FB9927CF
:101D300090F99E0160912E02852B0E948A0ACD0C9B
:101D400081E0E81AF10899F60F5F1F4F23960830DB
:101D5000110531F60E943B0B80915E0191E0D91292
:101D600012C081110EC087E080935E01DF91CF9198
:101D70001F910F91FF90EF90DF90CF90BF90AF90A9
:101D800008958150F1CF90E0019687709927ECCFAC
:101D9000BF92CF92DF92EF92FF920F931F93CF9358
:101DA000DF93CDB7DEB768970FB6F894DEBF0FBEEE
:101DB000CDBF182F80915C0190915D010E94BD1CE8
:101DC000E12FF0E0E455F94FE491E817190611F01E
:101DD00008F071C00E94B11C90935D0180935C017A
:101DE0008E010F5F1F4FF12CE12C6801F801118269
:101DF00010821282B12C9091000180915B01B99EFA
:101E0000800D112488300CF087E087FD80E0082EDB
:101E1000000C990B8E159F05A1F480912C02881F50
:101E20008827881F90912D02592F550F97FB9927CE
:101E300090F9980140912F0260912E02852B0E940B
:101E40008A0AB394F7E0BF12D6CF8FEFE81AF80AE8
:101E50000D5F1F4FE8E0EE16F10441F6A4E3B2E097
:101E600089E090E09C0127703327F901EE0FFF1FF6
:101E7000E20FF31FEC0DFD1D218111962C9311979C
:101E800020812C93228112962C93129701961396FF
:101E90008131910539F70E943B0B909100018091AF
:101EA0005B019130E1F48A3FB4F489EF80935B01E8
:101EB0008FEF8093000168960FB6F894DEBF0FBED7
:101EC000CDBFDF91CF911F910F91FF90EF90DF90E9
:101ED000CF90BF900895815080935B01ECCF8F30FD
:101EE0002CF08EE080935B0181E0E3CF8F5FF4CF35
:101EF000CF93DF938091590190915A010E94BD1CAC
:101F0000883E934028F10E94B11C90935A0180931F
:101F1000590180915701909158010196817099273C
:101F20009093580180935701C4E3D2E09E01409101
:101F30002F0260912E0290E080E00E948A0A239690
:101F400082E0CC34D80791F7DF91CF910C943B0B12
:101F5000DF91CF91089580916C01882371F1809178
:101F60002C0286958F739EE3980F9F73943018F41C
:101F700082500C94820D9AE3980F9F73933018F45B
:101F800086500C94B70D97E3980F9F73963018F412
:101F900089500C94E70D91E3980F9F73963018F4D5
:101FA0008F500C94410E9BE2980F9F73933018F45E
:101FB00085510C94C80E0C94780F0895909373017A
:101FC000809372010895E0917201F091730130974E
:101FD00021F00190F081E02D099480E00895E091D6
:101FE0007201F0917301309721F00280F381E02DAE
:101FF00009940895E0917201F0917301309721F0F6
:102000000480F581E02D09940895209170013091AC
:1020100071012817390771F0909371018093700155
:10202000E0917201F0917301309721F00680F78101
:10203000E02D0994089520916E0130916F012817C9
:10204000390771F090936F0180936E01E0917201F6
:10205000F0917301309721F00084F185E02D09940F
:10206000089508950C9431100E94A81C0E945C09E8
:102070000E946A1D0C94050DBF92CF92DF92EF92E1
:10208000FF920F931F93CF93DF9300D000D00F9256
:10209000CDB7DEB70E94A50985E7C82E81E0D82E0E
:1020A00010E000E0E02E802F0E94490AB82EF601D1
:1020B000F1906F01F81609F45BC08091FF0181FD7A
:1020C0000E944F0A30E020E0FB244F2D50E0922F79
:1020D000BA01022E02C0759567950A94E2F760FF77
:1020E00041C02983EA8221E030E0790102C0EE0C90
:1020F000FF1C9A95E2F72B2D30E02E213F2181E045
:10210000232B09F480E08B830E94B11C8160782F1F
:102110009D838C8349815A816B818D810E94DE1061
:10212000F801EB58FE4F80818E2580830E94172096
:102130000E94E30F90917401891789F10E94E30FC7
:10214000809374010F900F900F900F900F90DF917C
:10215000CF911F910F91FF90EF90DF90CF90BF90A4
:102160000C94FC062F5F3F4F2830310509F0AFCFAC
:102170000F5F1F4F0630110509F094CF8FEF898351
:102180008A831B820E94B11C8160782F9D838C837F
:1021900049815A816B818D810E94DE10C7CF0F90DB
:1021A0000F900F900F900F90DF91CF911F910F9193
:1021B000FF90EF90DF90CF90BF900895CF93DF9383
:1021C000CDB7DEB72B970FB6F894DEBF0FBECDBFED
:1021D0004F83588769877A878B871E8285E0FE0147
:1021E0003796DE01119601900D928A95E1F74981AB
:1021F0005A816B817C818D819E812B960FB6F894DC
:10220000DEBF0FBECDBFDF91CF910C945517882351
:1022100009F4D8C0823871F40E94E30F81FDD2C066
:1022200089E30E94F91A0E94C31B89E30E94361BAE
:102230000C94C31B833859F40E94E30F80FDC2C085
:1022400083E50E94F91A0E94C31B83E5EFCF84380F
:1022500059F40E94E30F82FDB5C087E40E94F91A89
:102260000E94C31B87E4E2CF9CEF980F913A18F4C9
:102270000E94F91ADDCF90E2980F983050F48770E1
:1022800091E001C0990F8A95EAF7892F0E947A1B85
:10229000CFCF9BE5980F933070F4853A31F0863AB2
:1022A00039F083E890E00C94051081E890E0FBCFD2
:1022B00082E890E0F8CF98E5980F953108F082C059
:1022C000883A09F440C0893A09F440C08A3A09F4CE
:1022D00040C08B3A09F440C08C3A09F440C08B3BB3
:1022E00009F440C08C3B09F440C08D3A09F440C069
:1022F000803B09F440C08E3A09F440C08F3A09F49B
:1023000040C0813B09F440C0823B09F440C0833B9C
:1023100009F440C0843B09F440C0853B09F440C047
:10232000863B09F440C0873B09F440C0883B09F470
:1023300040C0893B09F440C08A3B09F440C090E0AA
:1023400080E00C941B1082EE90E0FBCF89EE90E0D1
:10235000F8CF8AEE90E0F5CF85EB90E0F2CF86EBF8
:1023600090E0EFCF83EB90E0ECCF84EB90E0E9CF0F
:1023700087EB90E0E6CF8CEC90E0E3CF8DEC90E043
:10238000E0CF83E891E0DDCF8AE891E0DACF82E91F
:1023900091E0D7CF84E991E0D4CF81E292E0D1CF30
:1023A00083E292E0CECF84E292E0CBCF85E292E06E
:1023B000C8CF86E292E0C5CF87E292E0C2CF8AE240
:1023C00092E0BFCF0895882309F44BC0823871F49E
:1023D0000E94E30F81FF45C089E30E94F91A0E9421
:1023E000C31B89E30E94361B0C94C31B833859F42A
:1023F0000E94E30F80FF35C083E50E94F91A0E9416
:10240000C31B83E5EFCF843859F40E94E30F82FFAA
:1024100028C087E40E94F91A0E94C31B87E4E2CF18
:102420009CEF980F913AF0F290E2980F983050F4A8
:10243000877091E001C0990F8A95EAF7892F0E9471
:10244000801BD2CF9BE5980F933020F490E080E082
:102450000C940510885A853120F490E080E00C94AB
:102460001B100895882321F00E947A1B0C94C31B33
:102470000895882321F00E94801B0C94C31B0895AB
:102480008F929F92AF92BF92DF92EF92FF920F9343
:102490001F93CF93DF9300D000D00F92CDB7DEB75C
:1024A0007C016D837983FC01058102950F70128197
:1024B00011110E94991B0E94F21AD82E882371F0E4
:1024C0001123A1F08D81805E883080F082E00E942F
:1024D000DC1A0E94F21A91E0D82ED926E981E29501
:1024E000EF70F0E0E155F64D0C944429D12CF6CF75
:1024F00009810F70F981F07F11F00295007F11239F
:10250000B1F0002361F08D81805E883018F02D815C
:10251000211109C0802F0E947A1B0E94C31B8D814C
:102520000E94071115C0802F0E948B1BF6CF8D8152
:102530000E94E311002361F08D81805E883018F0E5
:102540003D81311129C0802F0E94801B0E94C31B36
:10255000DD2009F4D3C10E94CF1A80FDCFC1F7015D
:1025600012820E94C91A0E941319C7010E948F1477
:102570000E94C91A0F900F900F900F900F90DF914B
:10258000CF911F910F91FF90EF90DF90BF90AF9090
:102590009F908F900C943519802F0E94911BD6CF5D
:1025A00049814F70B42E5981507F503219F0B29446
:1025B00080EFB8228D81882369F0813029F11123C1
:1025C00069F1002359F0F701858180FFA8CF8F7052
:1025D000858304C0112361F0011104C08B2D0E947A
:1025E0003212B6CF8B2D0130D1F70E94AD1BB0CF88
:1025F000011106C00E94B01B8B2D0E943912A8CF7A
:10260000013009F4A5CFF6CF112321F0063008F0F0
:102610009FCFE4CF053008F09BCFEECF002361F3CE
:102620008D810E94E31194CF898186958695837070
:1026300069F0813009F08CCF8D81998193701111EF
:1026400002C090E080E00E941B1082CF8D819981B2
:102650009370111102C090E080E00E94051078CFC5
:102660008D81112329F00E94251F0E940C2070CF1C
:102670000E948D1FFACF8981837009F05FC011110C
:1026800067CF2D81229526952770220F220F8D81ED
:102690008F7090E0B0E0A0E04C015D01022E04C01C
:1026A000880C991CAA1CBB1C0A94D2F7FD8160E01F
:1026B00070E0CB01F4FF0FC06FE070E080E090E0CD
:1026C00004C0660F771F881F991F2A95D2F760955F
:1026D00070958095909529812695269523702D8358
:1026E0002230B1F0233019F19B01AC01282939299E
:1026F0004A295B2929833A834B835C833D81698125
:102700007A818B819C813130B1F00E94A01820CF5A
:102710009B01AC01282939294A295B2929833A835D
:102720004B835C83CA01B9010E94CA1811CF0E9471
:10273000A018C501B4010E9476180ACF869511230E
:1027400011F089818170882309F402CF2D812295AF
:1027500026952770220F220F8D818F7090E0B0E0B8
:10276000A0E04C015D01022E04C0880C991CAA1C3B
:10277000BB1C0A94D2F73D8160E070E0CB0134FFCE
:102780000FC06FE070E080E090E004C0660F771F3C
:10279000881F991F2A95D2F760957095809590951E
:1027A00049814695469543704D834230B1F04330A0
:1027B00019F19B01AC01282939294A295B29298370
:1027C0003A834B835C833D8169817A818B819C81D3
:1027D0003130B1F00E94A619BBCE9B01AC01282973
:1027E00039294A295B2929833A834B835C83CA01AF
:1027F000B9010E94D019ACCE0E94A619C501B4013E
:102800000E947C19A5CE3D81323F09F447C080F477
:10281000303F79F1313FD9F1832F805E8031D0F0A4
:10282000112309F456C001117ACE89818F7133C00A
:102830004D81433FD1F1443F99F7112309F43FC043
:1028400089818F7189830E94131963E089810E94B5
:10285000D31A7ECE5D815F705D8389818F71112374
:1028600021F00E9413198D81BACE0E9435198D81F5
:10287000C4CE112341F0053008F06ACE89818F71F2
:102880000E945A1965CE063008F062CEF7CF8981D2
:102890008F71112339F00E9413195ACE89818F71DB
:1028A0001123C9F30E94351953CE112329F08981D0
:1028B0008F710E94FE184CCE0E94F41849CE81E020
:1028C0000E94DC1A023008F443CE82E00E94DC1A37
:1028D0003FCE0111A5CE89818F71E4CF49814F7020
:1028E0006D81C7010E947B050E94EF1731CE49819F
:1028F0004F706D81C7010E94FE062ACE0F900F9087
:102900000F900F900F90DF91CF911F910F91FF903B
:10291000EF90DF90BF90AF909F908F9008950F93AE
:102920001F93CF93DF93EC018B819C81892B29F03E
:102930008881998189238F3F29F4DF91CF911F915D
:102940000F910895CE010E9494058823B1F3688108
:1029500079818A810E949F1A8C010E94FA190E9433
:102960006B18B801CE01DF91CF911F910F910C949C
:1029700040120E94991B0E94AA1B0E946C1B0E947D
:10298000C31B0E94FD200E940C2090E080E00E946A
:10299000051090E080E00C941B100E94881B0C94A2
:1029A000B9140E94931A282F892F82958F70903C1A
:1029B00080F48A30B0F4843020F4823090F480E0E7
:1029C00008958630E1F781E0203E88F0213FB9F795
:1029D0000EC08C3011F08F3091F793FB882780F96F
:1029E000089581E0203F39F018F4203E40F7089523
:1029F000243F29F7FCCF0895CF93DF9300D000D078
:102A00000F92CDB7DEB70F900F900F900F900F90F1
:102A1000DF91CF910895CF93DF9300D000D000D005
:102A2000CDB7DEB726960FB6F894DEBF0FBECDBF8A
:102A3000DF91CF9108951F93CF93DF93E0917C01B5
:102A400016E080917D018E1304C0DF91CF911F911C
:102A50000895CE2FD0E01E9FF0011124E258FE4FC2
:102A60004081518162817381848195810E940B151F
:102A7000FE013196E770E5CF4091AE015091AF0174
:102A80006091B0017091B1018091B2019091B30158
:102A90000C940B151F93CF93DF938091B301807F2C
:102AA000C1F48091B0018823A1F080917C01C09194
:102AB0007D016091AE017091AF014091B1015091E3
:102AC000B201D62FD723DA01A095B09516E0C8132E
:102AD00004C0DF91CF911F91089590E041155105F9
:102AE00011F0DF3F31F401968770F1CF2A0F3B1FC1
:102AF00017C0189FF001199FF00D1124E258FE4FE6
:102B000021812713F0CF20812613EDCF22812111BF
:102B1000EACF238134812417350740F3241B350B7A
:102B2000283C310500F72091B3012F7020612093DC
:102B3000B30126E0289FF001299FF00D1124ED57E5
:102B4000FE4F80818F70806180838EEA91E00E94C9
:102B50008F14DF91CF911F910C941B159F92AF9210
:102B6000BF92CF92DF92EF92FF920F931F93CF937A
:102B7000DF93CDB7DEB72B970FB6F894DEBF0FBE4D
:102B8000CDBF8C0185E0F801DE01179601900D9212
:102B90008A95E1F7D8014C9111965C9111971296A4
:102BA000EC9012978091B1019091B201009709F4D5
:102BB0006BC12091AE013091AF01632F62236F3F53
:102BC00009F462C11396CD90DC909090B0019920E9
:102BD00009F4F8C0C816D90608F43FC0F601E81B8E
:102BE000F90BCF01FF24F394883C910508F0F12CF8
:102BF0008EEAA82E81E0B82E8091B301982F907FA5
:102C0000FF2009F4B7C0911180C0FE2C35132AC0F3
:102C1000241328C0E11026C08F7080618093B30117
:102C20000E943C15C5010E948F148091B301D80108
:102C300015968C938F2D2B960FB6F894DEBF0FBE92
:102C4000CDBFDF91CF911F910F91FF90EF90DF905B
:102C5000CF90BF90AF909F900895809590958C0DE8
:102C60009D1DC0CFCD2829F0842F85238F3F09F0EB
:102C700019C180E0B82FB170DB2EE0917C0120916A
:102C80007D0136E080FD1CC0EE20A1F28091B301F1
:102C900081608093B301F12CCDCF8E2F90E03E9FC9
:102CA000F0011124E258FE4F6181651306C0608176
:102CB000641303C062816E11E7CFFC013196E770A7
:102CC000E213EBCF4F8358878F8198850E94931A28
:102CD000292F22952F70903260F0225F2F702230C2
:102CE00078F49F7051F0F8019581907F31F4D12CE8
:102CF0000AC09F7011F08823D1F3805E8830B8F34A
:102D0000C8010E948F14FD2C95CF351306C02413E3
:102D100004C0D801EE2009F47BC04F8358878F810F
:102D200098850E94D114882309F4B8C0EE2009F4D4
:102D3000B5C08091B301803270F02091AE01309126
:102D4000AF013A8329831B82DD82CC828E83CE0140
:102D500001960E948F1486E0F801AEEAB1E001907E
:102D60000D928A95E1F70E944A150E943C15FF24B6
:102D7000F39460CF911113C07C2DDB86CA866E2D33
:102D80008B850E94FC148EEA91E00E948F1486E0ED
:102D9000F50111928A95E9F70E943C154BCF351346
:102DA000BCCF2413BACFE110B8CFD80115968C93BD
:102DB000C8010E948F1486E0F50111928A95E9F707
:102DC000F92C38CFC816D90688F1B601681B790BE3
:102DD000CB01F12C883C910508F047C0FE2CEE2079
:102DE00009F45CC0351330C024132EC08091B301A8
:102DF00080FD21C0982F907FF1F0D80115968C931B
:102E00001597903F39F0982F907F905F8F70892BA6
:102E100015968C93C8010E948F1486E0F801AEEAE3
:102E2000B1E001900D928A95E1F7B6CF809590952B
:102E30008C0D9D1DCECF86E0F801AEEAB1E0019089
:102E40000D928A95E1F7F6CE4F8358878F8198854A
:102E50000E94D11481117FCF8091B3018160809352
:102E6000B301C8010E948F14E5CE7C2DDB86CA8693
:102E70006E2D8B850E94FC1486E0EEEAF1E0DF0106
:102E80001D928A95E9F788CFEE2041F04F8358874D
:102E90008F8198850E94D11481115DCFC8010E9455
:102EA0008F1465CF81E08E25E5CE1F93CF93DF93FE
:102EB000CDB7DEB72C970FB6F894DEBF0FBECDBFEF
:102EC0004F83588769877A878B879C87CE010796BF
:102ED0000E94AE15882369F08A859B85892B39F07D
:102EE0004F815885842F85238F3F09F071C016E0EC
:102EF0005FC086E0FE013796DE01119601900D92CB
:102F00008A95E1F78A859B85892B89F388859F813E
:102F100089238F3F61F320917D0130E0C901019643
:102F20008770992740917C014817190671F40E9417
:102F3000CD1410927D0110927C0186E0EEEAF1E062
:102F4000DF011D928A95E9F7D2CF96E0929FD001DA
:102F5000939FB00D1124A258BE4FFE0131960190EF
:102F60000D929A95E1F780937D010E941B15BFCFCA
:102F7000819FC001112482589E4F0E94AE15882364
:102F8000E9F0E0917C011E9FF0011124E258FE4F10
:102F90004081518162817381848195810E940B15EA
:102FA00080917C0190E001968770992780937C0145
:102FB00080917C0190917D018913DACF2C960FB618
:102FC000F894DEBF0FBECDBFDF91CF911F91089562
:102FD00069857A858B859C850E940B1588CFEF9239
:102FE000FF920F931F93CF93DF938C01892B89F06E
:102FF000F12CEE24E394E8012196F80184918437C2
:1030000009F457C0A0F4823009F43EC048F481307E
:10301000D1F0DF91CF911F910F91FF90EF90089524
:103020009CEF980F9037A8F70E9407110AC08537C8
:1030300009F44CC09CE7980F903758F78F770E949F
:10304000E3118E0116C00E5F1F4FFE01849190E2C6
:10305000980F983060F48770FE2D01C0FF0F8A959D
:10306000EAF78F2F0E949C1B0E94C31B02C00E9484
:1030700007118F2D815008F4BECFEFE9FFE03197A3
:10308000F1F700C00000F6CF0E5F1F4FFE018491E4
:1030900090E2980F983050F48770FE2D01C0FF0F1A
:1030A0008A95EAF78F2F0E94A21BDECF0E94E311C0
:1030B000E0CF0E5F1F4FFE01C491C150D0F28FE9E7
:1030C0009FE00197F1F700C00000F7CF0E5F1F4FA0
:1030D000FE01F490CECF08956093D6017093D7018E
:1030E0008093D8019093D9010C94B914CF93DF93B6
:1030F00000D000D0CDB7DEB769837A838B839C8301
:103100008091D6019091D701A091D801B091D901B9
:1031100029813A814B815C81822B932BA42BB52B87
:103120008093D6019093D701A093D801B093D90191
:103130000F900F900F900F90DF91CF910C94B914D6
:10314000CF93DF9300D000D0CDB7DEB769837A8309
:103150008B839C838091D6019091D701A091D80157
:10316000B091D90129813A814B815C8182239323DB
:10317000A423B5238093D6019093D701A093D801BF
:10318000B093D9010F900F900F900F90DF91CF91D6
:103190000C94B914CF93DF9300D000D0CDB7DEB735
:1031A00069837A838B839C838091D6019091D70128
:1031B000A091D801B091D90129813A814B815C81DC
:1031C00082279327A427B5278093D6019093D70110
:1031D000A093D801B093D9010F900F900F900F904A
:1031E000DF91CF910C94B9141092D2011092D301B7
:1031F0001092D4011092D5010C94B91441E050E022
:1032000060E070E004C0440F551F661F771F8A9569
:10321000D2F74093D2015093D3016093D4017093BD
:10322000D5010C94B914282F81E090E0A0E0B0E023
:1032300004C0880F991FAA1FBB1F2A95D2F740917F
:10324000D2015091D3016091D4017091D501842BAA
:10325000952BA62BB72B8093D2019093D301A093EB
:10326000D401B093D5010C94B91441E050E060E072
:1032700070E004C0440F551F661F771F8A95D2F770
:1032800040955095609570958091D2019091D301B1
:10329000A091D401B091D50184239523A623B7230F
:1032A0008093D2019093D301A093D401B093D50120
:1032B0000C94B914282F81E090E0A0E0B0E004C0A5
:1032C000880F991FAA1FBB1F2A95D2F74091D201E0
:1032D0005091D3016091D4017091D5018427952735
:1032E000A627B7278093D2019093D301A093D4014E
:1032F000B093D5010C94B914CF93DF9300D000D0D4
:10330000CDB7DEB769837A838B839C838091D201AA
:103310009091D301A091D401B091D50129813A8136
:103320004B815C81822B932BA42BB52B8093D201F4
:103330009093D301A093D401B093D5010F900F9037
:103340000F900F90DF91CF910C94B914CF93DF932E
:1033500000D000D0CDB7DEB769837A838B839C839E
:103360008091D2019091D301A091D401B091D50167
:1033700029813A814B815C8182239323A423B52345
:103380008093D2019093D301A093D401B093D5013F
:103390000F900F900F900F90DF91CF910C94B91474
:1033A000CF93DF9300D000D0CDB7DEB769837A83A7
:1033B0008B839C838091D2019091D301A091D40101
:1033C000B091D50129813A814B815C818227932775
:1033D000A427B5278093D2019093D301A093D40161
:1033E000B093D5010F900F900F900F90DF91CF9178
:1033F0000C94B9140895990F990F990FE92FE80FBC
:10340000877041E001C0440F8A95EAF7E695E6959A
:10341000E69585E0E89FF0011124EC54FE4F30E082
:1034200020E070E05191DF011197CB01022E02C024
:10343000969587950A94E2F7817081958527842374
:1034400085278C932F5F3F4F2530310559F708951D
:10345000E92FEE0FEE0FEE0FE80F982F9770E6951D
:10346000E695E69585E0E89FF0011124EC54FE4FC7
:1034700050E040E080E0219130E0092E02C0369516
:1034800027950A94E2F721703327042E01C0220FFA
:103490000A94EAF7822B4F5F5F4F4530510559F789
:1034A0000895BF92CF92DF92EF92FF920F931F93F6
:1034B000CF93DF938C01C090D201D090D301E090E4
:1034C000D401F090D5018091D6019091D701A091BF
:1034D000D801B091D901C82AD92AEA2AFB2ACFE11A
:1034E000D0E0BC2ED701C6010C2E04C0B695A7951E
:1034F000979587950A94D2F780FD0EC0219788F79B
:10350000B12C8B2DDF91CF911F910F91FF90EF90F8
:10351000DF90CF90BF900895B8018C2F0E941C07B8
:10352000019761F3EECFCF93DF93D82FC92F0E947D
:10353000511A6D2F7C2FDF91CF910C941C071F9394
:10354000CF93DF93162FD72F90917B01992339F0DA
:10355000862F972FDF91CF911F910C94931A882378
:1035600091F0862F972F0E94511AC82F682F812F14
:103570009D2F0E94FB19612F7D2F8C2FDF91CF9102
:103580001F910C941C07862F972F0E94281AC82F72
:10359000F2CF8091DA018595859585950895809182
:1035A000DA018770089598E0899F90011124622BB9
:1035B0006093DA010C9413199091DA0180958923B4
:1035C0008093DA01282F277061F4282F082E000C31
:1035D000330B9217130629F08595859585950C94E4
:1035E000351908959091DA01977081E009F480E02F
:1035F0000895909113019923E1F09091500297FF63
:1036000018C0E82FE695E695E695EF3139F120915F
:10361000010130910201E20FF32FF11D877021E0CB
:1036200030E001C0220F8A95EAF78181822B8183E5
:1036300008952091010130910201F90132969FEF26
:1036400040E05191851751F09F3F19F4511101C08D
:10365000942F4F5F4E31A9F79F3F09F40895290F2A
:10366000311D97FD3A95F9018283089590911301D8
:10367000992301F19091500297FF1CC0E82FE69525
:10368000E695E695EF3139F1209101013091020183
:10369000E20FF32FF11D877021E030E0A90102C095
:1036A000440F551F8A95E2F7CA01809591818923BD
:1036B000818308952091010130910201F901329630
:1036C000205E3F4F9191891303C0DF0111971C9237
:1036D000E217F307B9F7089581E090E0E091010166
:1036E000F0910201E80FF91F1082019680329105D6
:1036F000A9F708959091FE01982B9093FE010895EB
:10370000982F90958091FE0189238093FE01089562
:103710001092FE0108959091FD01982B9093FD0168
:103720000895982F90958091FD0189238093FD0144
:1037300008951092FD0108959091FC01982B9093AB
:10374000FC010895982F90958091FC018923809326
:10375000FC0108951092FC0108958093DB01089507
:103760001092DB0108952091010130910201F901CD
:103770003196205E3F4F80E0919191118F5FE2176B
:10378000F307D1F70895E0910101F09102018091D2
:10379000FE018083E0910101F0910201808190910E
:1037A000FD01892B8083E0910101F091020180816C
:1037B0009091FC01892B80839091DB01992361F02A
:1037C000E0910101F09102018081892B80830E94A8
:1037D000B31B81111092DB018091010190910201D4
:1037E0000C94EF0F6DEE7EEF90E080E00E947C295C
:1037F00060E082E090E00E945E2960E083E090E07B
:103800000E945E2960E084E090E00E945E2960E012
:1038100085E090E00E945E2940E050E0BA0188E037
:1038200090E00C94702990E080E00E9458299C015F
:1038300081E02D3E3E4F09F080E0089582E090E067
:103840000C944A29682F82E090E00C945E2983E072
:1038500090E00C944A29682F83E090E00C945E2954
:1038600084E090E00C944A29682F84E090E00C9466
:103870005E2980915602843039F11092000288E16D
:1038800090E020E40FB6F894A895809360000FBEF6
:103890002093600080E00E94FC0683B7817F8460F3
:1038A00083BF83B7816083BF7894889583B78E7F09
:1038B00083BF0FB6F894A8958091600088618093CB
:1038C0006000109260000FBE089508950895CF9390
:1038D0000E94651C0E94A5090E94661CC0E08C2FF6
:1038E0000E94490A811105C0CF5FC630C1F7CF9150
:1038F000089581E0FCCF0E94CD140E94E30F0C9448
:10390000FC061F921FB61F9211248F939F93AF93B3
:10391000BF9380910002811113C080914C0290915D
:103920004D02A0914E02B0914F024196A11DB11DD2
:1039300080934C0290934D02A0934E02B0934F029D
:10394000BF91AF919F918F911F901FBE1F901895AF
:1039500082E084BD93E095BD9AEF97BD80936E00A1
:1039600008952FB7F89480914C0290914D02A09148
:103970004E02B0914F022FBF0895CF92DF92EF9287
:10398000FF929C014FB7F89480914C0290914D02A8
:10399000A0914E02B0914F024FBF6C017D01EE2409
:1039A000FF24A90170E060E0C416D506E606F7061C
:1039B00038F0821B930BFF90EF90DF90CF9008952B
:1039C0000197F7CF1F921FB61F9211248F939F93D9
:1039D000AF93BF9380914C0290914D02A0914E0203
:1039E000B0914F020196A11DB11D80934C0290939E
:1039F0004D02A0934E02B0934F02BF91AF919F91A1
:103A00008F911F901FBE1F9018950E94F324F89469
:103A10002FEF87EA91E6215080409040E1F700C007
:103A2000000087E090EBDC0180935F0290936002DE
:103A3000A0936102B093620288E19CE00FB6F89413
:103A4000A895809360000FBE90936000FFCFCF9247
:103A5000DF92EF92FF920F931F93CF93C0E0E82E77
:103A6000F12C8C2F0E94490A10E000E0C82ED12CC6
:103A7000C601002E02C0959587950A94E2F780FF53
:103A800011C0602F7C2F80E00E94FF06E816F90627
:103A900049F481E0CF911F910F91FF90EF90DF905B
:103AA000CF9008950F5F1F4F0830110509F7CF5FC2
:103AB000C630B9F680E0EECFCF93C82F8CE20E94DB
:103AC000271D882321F08C2FCF910C94271D80E097
:103AD000CF910895CF93DF9300D000D0CDB7DEB75C
:103AE0000E94131C811102C00E94F21B95E699836B
:103AF00008C00E94A5098FE39CE90197F1F700C077
:103B00000000A981A150A983A111F3CF89E20E94ED
:103B10005C1D811110C18AE20E945C1D81110E940E
:103B2000F21B85E00E945C1D81110E94051D0E9410
:103B30001E1C8093FF0187E00E945C1D882371F0AA
:103B40008BE10E945C1D882309F4D1C09091FF0194
:103B5000892F8D7F91FF82608093FF018091FF010B
:103B60000E94221C0E94301C90E09093510280938E
:103B7000500280EE0E945C1D882341F0909150021B
:103B8000892F8E7F90FF81608093500289E30E948D
:103B90005C1D882341F090915002892F8D7F91FF09
:103BA00082608093500282EE0E945C1D882341F067
:103BB00090915002892F8B7F92FF846080935002F6
:103BC00086EE0E945C1D882341F090915002892F5F
:103BD000877F93FF88608093500283EE0E945C1D74
:103BE000882341F090915002892F8F7E94FF80614D
:103BF0008093500285E30E945C1D882341F09091E0
:103C00005002892F8F7D95FF80628093500281E35F
:103C10000E945C1D882341F090915002892F8F7B78
:103C200096FF80648093500281E10E945C1D88238E
:103C300041F090915002892F97FB87F9805880932B
:103C40005002809150020E94341C87E20E945C1D49
:103C500089838EE10E945C1D882319F0B981B260CE
:103C6000B9838FE10E945C1D882319F029812460AB
:103C7000298380E20E945C1D882319F03981386015
:103C8000398381E20E945C1D882319F049814061DB
:103C9000498382E20E945C1D882319F05981506299
:103CA000598383E20E945C1D882319F08981806416
:103CB000898384E20E945C1D8823B1F19981906818
:103CC000998389810E942B1C3981232F30E050E099
:103CD00040E029833A834B835C83CA01B9010F908A
:103CE0000F900F900F90DF91CF910C946C188EE095
:103CF0000E945C1D882339F09091FF01892F8B7FF2
:103D000092FF846029CF80E10E945C1D9091FF01A9
:103D1000882329F0892F877F93FF88601DCF892F03
:103D20008E7F90FF816018CFA981A111CACF0E9418
:103D3000271C282FCBCF0F900F900F900F90DF9163
:103D4000CF9108958091030280FF12C06091060117
:103D500085E0689FB0011124759567957595679505
:103D600060387105A8F561157105A1F1862F0895D8
:103D700081FF09C06091060185E0689FB0011124B0
:103D800075956795EDCF6091060182FD0AC080911F
:103D900004028823D1F090910501609106018917F2
:103DA00028F085E0689FB0011124DACF869FB0012A
:103DB000112485E0869F9001879F300D1124692F83
:103DC00070E0C9010E943029CBCF65E070E0CECF12
:103DD0008FE7089581E008958091030280FF0CC071
:103DE0006091040170E0759567957595679561150B
:103DF000710549F1862F089581FF06C06091040185
:103E000070E075956795F3CF6091040182FD0BC05A
:103E1000909104029923A1F0609103018091040123
:103E2000961738F0682F70E06038710500F38FE75F
:103E30000895899FC001112470E00E943029F4CFB9
:103E400061E070E0D7CF81E00895803F31F40E94B7
:103E5000A21E8195809307020895813F19F40E9464
:103E6000A21EF8CF823F31F40E94A21E819580935A
:103E700006020895833F19F40E94A21EF8CF893FDD
:103E800029F40E94EC1E8093080208958A3F21F4D1
:103E90000E94EC1E8195F7CF8B3F31F40E94EC1EFF
:103EA00081958093090208958C3F19F40E94EC1EBD
:103EB000F8CF843F31F48091050281608093050240
:103EC0000895853F21F4809105028260F7CF863FF7
:103ED00021F4809105028460F1CF873F21F4809125
:103EE00005028860EBCF883F21F480910502806154
:103EF000E5CF8D3F31F4809103028160809303020E
:103F000008958E3F21F4809103028260F7CF8F3FA6
:103F1000B9F7809103028460F1CF90910602803F4F
:103F200041F48091070287FD10920702992371F0F6
:103F30000895813F29F4809107021816ACF3F6CF5B
:103F4000823F81F497FFF2CF109206028091070220
:103F500090910802892B90910902892B49F71092C0
:103F600004020895833F19F4191674F3DFCF893FD3
:103F700039F4809108021816CCF610920802D6CFB8
:103F80008A3F29F48091080287FFD0CFF6CF8B3F7C
:103F900039F48091090287FFC9CF10920902C6CF78
:103FA0008C3F29F4809109021816BCF3BFCF843FDF
:103FB00031F4809105028E7F80930502B7CF853F53
:103FC00021F4809105028D7FF7CF863F21F4809107
:103FD00005028B7FF1CF873F21F480910502877F17
:103FE000EBCF883F21F4809105028F7EE5CF8D3F96
:103FF00031F4809103028E7F8093030297CF8E3F2E
:1040000021F4809103028D7FF7CF8F3F09F08ECF8F
:10401000809103028B7FF0CF85E092E00E94FA0F3F
:104020000E94B11C909302028093010208951F9395
:10403000CF93DF9300D000D000D0CDB7DEB7809112
:104040000102909102020E94BD1CAC018091040209
:104050002091070130E0811106C0209108019AE00B
:10406000299F900111244217530788F020910602DE
:10407000A0910702A98310910802B0910902BE83A2
:1040800021110FC09A2F912B9B2B09F0B2C02696BD
:104090000FB6F894DEBF0FBECDBFDF91CF911F9159
:1040A00008958F3F19F08F5F80930402121624F455
:1040B0000E94A21E809306028091060287FF05C01F
:1040C0000E94A21E8195809306022981121624F473
:1040D0000E94A21E809307028091070287FF05C0FD
:1040E0000E94A21E81958093070280910602882378
:1040F00009F455C0309107023D83332309F44FC0C2
:10410000282F880F330B440B550B29833A834B839D
:104110005C83CA01B9010E94232823E333E343E30C
:104120005FE369837A838B839C8369817A818B8146
:104130009C810E94872869837A838B839C83698111
:104140007A818B819C810E94EB27609306028D818E
:10415000082E000C990BAA0BBB0B89839A83AB83A7
:10416000BC83BC01CD010E94232823E333E343E356
:104170005FE369837A838B839C8369817A818B81F6
:104180009C810E94872869837A838B839C836981C1
:104190007A818B819C810E94EB2760930702111624
:1041A00024F40E94EC1E809308028091080287FF8D
:1041B00005C00E94EC1E8195809308029E8119160D
:1041C00024F40E94EC1E809309028091090287FF6B
:1041D00005C00E94EC1E81958093090226960FB6B9
:1041E000F894DEBF0FBECDBFDF91CF911F910C942D
:1041F0000C208F3F09F057CF68CF85E0E5E0F2E073
:10420000DF011D928A95E9F71092040210920302D1
:10421000089580912A020895CF93DF9300D00F92E2
:10422000CDB7DEB720915602243019F523E029835B
:104230008A839B832093E9008FEF9091E80081505F
:1042400095FD06C095ED9A95F1F700008111F5CF27
:104250008091E80085FF0DC050E040E063E070E031
:10426000CE0101960E946B238091E8008E778093A7
:10427000E8000F900F900F90DF91CF910895CF93AA
:10428000DF9300D00F92CDB7DEB79C01809156022C
:10429000843031F582E08983205831093B832A83B9
:1042A00083E08093E9008FEF9091E800815095FDC5
:1042B00006C095ED9A95F1F700008111F5CF809138
:1042C000E80085FF0DC050E040E063E070E0CE0103
:1042D00001960E946B238091E8008E778093E8001E
:1042E0000F900F900F90DF91CF910895209156027B
:1042F0002430F1F422E02093E9002FEF3091E80020
:10430000215035FD06C035ED3A95F1F70000211139
:10431000F5CF2091E80025FF0BC050E040E065E0BC
:1043200070E00E946B238091E8008E778093E80014
:104330000895CF93DF93D82FC92F809156028430F0
:10434000F1F4909113019923E9F09091500297FFB5
:1043500019C08093E9008FEF9091E800815095FD9E
:1043600006C095E19A95F1F700008111F5CF809193
:10437000E80050E040E060E270E085FD1AC0DF91A7
:10438000CF91089581E08093E9008FEF9091E8004C
:10439000815095FD06C095ED9A95F1F700008111C9
:1043A000F5CF8091E80085FFEACF50E040E068E07B
:1043B00070E08D2F9C2F0E946B238091E8008E77F8
:1043C0008093E80080E2ED2FFC2FAAE0B2E001909C
:1043D0000D928A95E1F7D3CF80915502811109C0E2
:1043E0000E94F3240E9450258091E2008460809313
:1043F000E2000895109255020895089508950C94CE
:104400007B1C42E061EC81E00E946F2442E061ECA1
:1044100082E00E946F2442E061EC83E00E946F24FE
:1044200042E261EC84E00C946F2480915802893060
:1044300089F148F4823009F494C0833009F44FC004
:10444000813041F008958A3009F47BC08B3009F443
:1044500061C0089580915702813A09F03FC0809170
:10446000E800877F8093E80080915B0290915C0276
:10447000892B61F460E28AE092E070E00E94BA2346
:104480008091E8008B778093E800089560E090E0E9
:1044900080E0F3CF80915702813201F580915B0279
:1044A00090915C02009711F00397C1F48091E800AD
:1044B000877F8093E8008091E80082FF0BC08091A5
:1044C000F10080932A028091E8008B778093E800C6
:1044D0000C94A324809156028111EDCF0895809110
:1044E0005702813AD9F780915B0290915C02892B47
:1044F000A9F78091E800877F8093E8008091E80029
:1045000080FFFCCF809113018093F1008091E8003F
:104510008E77DCCF80915702813201F780915B0268
:1045200090915C02892BD1F68091E800877F80937F
:10453000E8000E94A32480915902809313010C94F7
:10454000CD1480915702813249F68091E800877F2F
:104550008093E8000E94A32480915A0280932B024A
:10456000089580915702813A09F0B8CF8091E80010
:10457000877F8093E8008091E80080FFFCCF8091E6
:104580002B02C2CF84B7877F84BF0FB6F894A8955B
:1045900080916000886180936000109260000FBE7F
:1045A00080E880936100109261000E9432100E94A6
:1045B000F3240E9450258091E20084608093E20001
:1045C00078940E94D0270E94341089E091E00E94E4
:1045D000DE0F80915602853029F00E943C100E9427
:1045E000AB0FF7CF0E94391C80915402882389F3C6
:1045F0000E94671C882369F30E945523EACF9C011F
:10460000DA01892F992783309105C1F068F4813050
:10461000910509F445C0029761F48DE690E029EE1A
:1046200038E02D933C93089581329105E1F0829713
:1046300039F190E080E030E020E0F3CFC901992724
:10464000213059F08230910559F0E5EEF8E0892BE0
:1046500081F7849190E09F01E4CFEDECF8E0F9CF91
:10466000E9EBF8E0F6CF643020F7E62FF0E0EE0F4C
:10467000FF1FE25DFE4F2081318189E090E0D1CFC4
:104680006430B8F670E0FB01EE0FFF1FEA5DFE4FED
:10469000208131816E5D7E4FFB01808190E0C1CF32
:1046A00082E190E026E539E0BCCF80E189BD82E17E
:1046B00089BD09B400FEFDCF8091D8008F7D809325
:1046C000D8008091E00082608093E0008091E0005B
:1046D00081FDFCCF0895AF92BF92CF92DF92FF92FF
:1046E0000F931F93CF93DF936C01EB018A010E941C
:1046F000C224F82E811123C00115110539F0F801EB
:1047000080819181C81BD90BC80ED91EB12CA12C58
:104710002097A9F08091E80085FD22C08091E800F3
:104720008E778093E80001151105A1F0F8018081D2
:104730009181A80EB91EB182A08285E0F82E8F2D3E
:10474000DF91CF911F910F91FF90DF90CF90BF909D
:10475000AF9008950E94C2248823D1F2F82EEFCFA3
:10476000F60181916F018093F1002197FFEFAF1A5D
:10477000BF0ACECFFC01CB0120915D0230915E02D9
:104780002617370790F0009729F42091E8002E773C
:104790002093E80040E0009751F4411108C0809157
:1047A000E80082FF31C080E00895C901F3CF209175
:1047B00056022223A9F12530A9F12091E80023FD1A
:1047C0002DC02091E80022FDEACF2091E80020FFD3
:1047D000E2CF3091F3002091F200009719F02830D9
:1047E000310558F041E02830310509F040E02091D2
:1047F000E8002E772093E800CECF41914093F1005E
:1048000001972F5F3F4FE9CF80915602882341F0F7
:10481000853041F08091E80083FFC1CF81E00895A9
:1048200082E0089583E00895FC01CB0120915D02B0
:1048300030915E022617370790F0009729F42091F7
:10484000E8002E772093E80040E0009751F44111F2
:1048500008C08091E80082FF32C080E00895C9015D
:10486000F3CF209156022223B1F12530B1F12091EE
:10487000E80023FD2EC02091E80022FDEACF209120
:10488000E80020FFE2CF3091F3002091F200009782
:1048900019F02830310558F041E02830310509F091
:1048A00040E02091E8002E772093E800CECF44919D
:1048B0004093F100319601972F5F3F4FE8CF8091F1
:1048C0005602882341F0853041F08091E80083FF53
:1048D000C0CF81E0089582E0089583E00895982F85
:1048E000973028F08F708093E90081E008959093CD
:1048F000E900242F762F50E0981731F07091EC00EA
:104900002091ED005091F00021FD02C09F5FE8CFA3
:104910003091EB003E7F3093EB003091ED003D7F16
:104920003093ED003091EB0031603093EB007093E9
:10493000EC002093ED005093F0002091EE0027FD55
:10494000E5CF80E008958091570287FF13C08091E2
:10495000E80082FF06C08091E8008B778093E80032
:1049600004C0809156028111F2CF089580915602C1
:104970008823D9F38091E80080FFF8CF8091E80088
:104980008E77ECCF2091E4003091E50095E6A90107
:104990002091EC00822F817020FF06C08091E800FA
:1049A00080FF06C080E008952091E80022FD1AC033
:1049B00080915602882389F0853089F08091EB0040
:1049C00085FD0FC02091E4003091E50042175307A8
:1049D000F9F29150E1F684E0089582E0089583E0D1
:1049E000089581E008950E9461250E946925E0EE06
:1049F000F0E0808181608083E8EDF0E080818F7756
:104A0000808319BCA7EDB0E08C918E7F8C93808160
:104A10008F7E80831092550208950F931F93CF933A
:104A2000DF930E9461250E946925C8EDD0E088814E
:104A30008F77888388818068888388818F7D888349
:104A400019BC109256021092520210925402109207
:104A5000530200EE10E0F80180818B7F8083888113
:104A60008160888342E060E080E00E946F24E1EE94
:104A7000F0E080818E7F8083E2EEF0E080818160D3
:104A80008083808188608083F80180818E7F80832D
:104A9000888180618883DF91CF911F910F91089564
:104AA000E8EDF0E080818F7E8083E7EDF0E08081AB
:104AB0008160808384E082BF81E0809355020C9402
:104AC0000D25E8EDF0E080818E7F80831092E2007A
:104AD00008951092DA001092E10008951F920F924B
:104AE0000FB60F9211242F933F934F935F936F93C1
:104AF0007F938F939F93AF93BF93EF93FF93809197
:104B0000E10082FF0BC08091E20082FF07C080912C
:104B1000E1008B7F8093E1000E94CF278091DA0033
:104B200080FF19C08091D80080FF15C08091DA0005
:104B30008E7F8093DA008091D90080FF94C080E15D
:104B400089BD82E189BD09B400FEFDCF81E080937B
:104B500056020E94EC218091E10080FF19C08091F3
:104B6000E20080FF15C08091E2008E7F8093E2001A
:104B70008091E20080618093E2008091D8008062A1
:104B80008093D80019BC85E0809356020E94FE21D4
:104B90008091E10084FF29C08091E20084FF25C05C
:104BA00080E189BD82E189BD09B400FEFDCF80911D
:104BB000D8008F7D8093D8008091E1008F7E809314
:104BC000E1008091E2008F7E8093E2008091E2001C
:104BD00081608093E20080915202882309F449C0E9
:104BE00084E0809356020E94FF218091E10083FFC0
:104BF00029C08091E20083FF25C08091E100877F7A
:104C00008093E10082E080935602109252028091DC
:104C1000E1008E7F8093E1008091E2008E7F80939F
:104C2000E2008091E20080618093E20042E060E077
:104C300080E00E946F248091F00088608093F000F3
:104C40000E94FD21FF91EF91BF91AF919F918F91B4
:104C50007F916F915F914F913F912F910F900FBE78
:104C60000F901F90189519BC109256020E94FA21BD
:104C700072CF8091E30087FD02C081E0B2CF83E074
:104C8000B0CF1F920F920FB60F9211242F933F9324
:104C90004F935F936F937F938F939F93AF93BF9344
:104CA000CF93DF93EF93FF93D091E900DF70809172
:104CB000EC00C82FC17080FDC0E81092E90080911F
:104CC000F000877F8093F00078940E9485261092F0
:104CD000E9008091F00088608093F000CD2BCF70C8
:104CE000C093E900FF91EF91DF91CF91BF91AF9118
:104CF0009F918F917F916F915F914F913F912F91F4
:104D00000F900FBE0F901F9018951F93CF93DF93B6
:104D1000CDB7DEB7AA970FB6F894DEBF0FBECDBFF2
:104D200087E592E0FC0101962091F100208322E0CA
:104D30008F359207B9F70E9415228091E80083FF12
:104D400016C180915702909158029A3008F00FC115
:104D5000E92FF0E0E154F64D0C944429803881F0BD
:104D6000823809F004C180915B028F708093E90062
:104D70008091EB0085FB882780F91092E90006C03E
:104D80008091530290915402911182609091E800B9
:104D9000977F9093E8008093F1001092F10080914A
:104DA000E8008E77E0C0882309F4CEC0823009F095
:104DB000DEC0809159028111D1C080915B028F7059
:104DC00009F4D5C08093E9002091EB0020FFC6C014
:104DD000933031F48091EB0080628093EB00BEC091
:104DE0009091EB0090619093EB0021E030E001C0E6
:104DF000220F8A95EAF72093EA001092EA00809148
:104E0000EB008860EACF8111B2C0109159021F7780
:104E10008091E3008078812B8093E3008091E8000B
:104E2000877F8093E8000E94A3248091E80080FFA0
:104E3000FCCF8091E30080688093E30082E0111151
:104E400083E08093560293C08058823008F08FC070
:104E50008091590290915A028C3D23E09207A1F56E
:104E600083E08A838AE289834FB7F894DE01139640
:104E700020E03EE051E2E32FF0E050935700E49150
:104E800020FF03C0E295EF703F5FEF708E2F90E040
:104E9000EA30C0F0C7968D939D932F5F243159F768
:104EA0004FBF8091E800877F8093E8006AE270E05E
:104EB000CE0101960E94BA238091E8008B778093FF
:104EC000E80055C0C096E7CFAE014F5F5F4F6091DD
:104ED0005B020E94FF22BC01892B09F448C080912B
:104EE000E800877F8093E80089819A810E941424DA
:104EF000E3CF8038E1F58091E800877F8093E80078
:104F0000809152028093F1004ACF811130C090917C
:104F10005902923060F58091E800877F8093E80025
:104F2000909352020E94A32480915202882311F090
:104F300084E005C08091E30087FDFACF81E0809393
:104F400056020E94012213C080915902813079F4E7
:104F500081E0933009F080E0809354021092E900E0
:104F60008091E800877F8093E8000E94A3248091CD
:104F7000E80083FF0AC08091E800877F8093E80003
:104F80008091EB0080628093EB00AA960FB6F894B4
:104F9000DEBF0FBECDBFDF91CF911F910895089561
:104FA000CF93809156028823A1F0C091E900CF7081
:104FB0009091EC00892F817090FD80E8C82B1092B1
:104FC000E9008091E80083FD0E948526CF70C093A0
:104FD000E900CF9108950E94F2276894B1110C94D2
:104FE000812808950E94662888F09F5798F0B92F6D
:104FF0009927B751B0F0E1F0660F771F881F991F0E
:105000001AF0BA95C9F714C0B13091F00E94802807
:10501000B1E008950C948028672F782F8827B85F17
:1050200039F0B93FCCF3869577956795B395D9F765
:105030003EF490958095709561957F4F8F4F9F4F6F
:105040000895E89409C097FB3EF49095809570957B
:1050500061957F4F8F4F9F4F9923A9F0F92F96E9C4
:10506000BB279395F695879577956795B795F11139
:10507000F8CFFAF4BB0F11F460FF1BC06F5F7F4FD6
:105080008F4F9F4F16C0882311F096E911C07723E8
:1050900021F09EE8872F762F05C0662371F096E8F1
:1050A000862F70E060E02AF09A95660F771F881FC0
:1050B000DAF7880F9695879597F9089557FD9058D8
:1050C000440F551F59F05F3F71F04795880F97FBCC
:1050D000991F61F09F3F79F0879508951216130686
:1050E0001406551FF2CF4695F1DF08C016161706B5
:1050F0001806991FF1CF86957105610508940895EA
:10510000E894BB2766277727CB0197F908950E947B
:105110009A280C940B290E94FD2838F00E9404293B
:1051200020F0952311F00C94F4280C94FA28112403
:105130000C9481280E945E2870F3959FC1F3950F0F
:1051400050E0551F629FF001729FBB27F00DB11D0B
:10515000639FAA27F00DB11DAA1F649F6627B00D9B
:10516000A11D661F829F2227B00DA11D621F739F84
:10517000B00DA11D621F839FA00D611D221F749F92
:105180003327A00D611D231F849F600D211D822FD9
:10519000762F6A2F11249F5750409AF0F1F0882300
:1051A0004AF0EE0FFF1FBB1F661F771F881F91502D
:1051B0005040A9F79E3F510580F00C94F4280C94C0
:1051C00081285F3FE4F3983ED4F386957795679501
:1051D000B795F795E7959F5FC1F7FE2B880F911D57
:1051E0009695879597F9089597F99F6780E870E0FD
:1051F00060E008959FEF80EC089500240A9416164D
:10520000170618060906089500240A9412161306B4
:10521000140605060895092E0394000C11F4882342
:1052200052F0BB0F40F4BF2B11F460FF04C06F5F5E
:105230007F4F8F4F9F4F0895AA1BBB1B51E107C0A3
:10524000AA1FBB1FA617B70710F0A61BB70B881F16
:10525000991F5A95A9F780959095BC01CD010895A5
:1052600097FB072E16F4009407D077FD09D00E9413
:105270001C2907FC05D03EF4909581959F4F089519
:10528000709561957F4F0895EE0FFF1F0590F49183
:10529000E02D0994F999FECF92BD81BDF89A992726
:1052A00080B50895A6E1B0E044E050E00C94842974
:1052B000A8E1B0E042E050E00C948429262FF9994F
:1052C000FECF92BD81BDF89A019700B4021639F065
:1052D0001FBA20BD0FB6F894FA9AF99A0FBE089536
:1052E0000396272F0E945F290E945E29252F0E9486
:1052F0005F29242F0C945F290196272F0E945F2994
:105300000C945E29DC01CB01FC01F999FECF06C0AB
:10531000F2BDE1BDF89A319600B40D924150504073
:10532000B8F70895F894FFCF3A063F0644064906B9
:105330004E0653065806B006D5065D0669066D068C
:105340007106750679067D068106850689068D0635
:105350009106950699069D06A106A506A90678124E
:105360007812D012D01214133013A812A8123B13C3
:10537000A812031403146E14A812A8127714AE26F0
:10538000D326B727D326B72703272427B72779277C
:0253900085276F
:10539200FFDC012808140A321E0921992176213FD7
:1053A200210C210197C63435F4F5F6F793929190CA
:1053B2009466404D3639240AD709A1096809FB08C9
:0653C20014092D09460943
:00000001FF
