:100000000C9466020C94AD020C94AD020C94AD02FB
:100010000C94AD020C94AD020C94AD020C94AD02A4
:100020000C94AD020C94AD020C94C8240C949C2545
:100030000C94FA190C94AD020C94AD020C94AD0220
:100040000C94AD020C94AD020C94AD020C94AD0274
:100050000C94AD020C94511A0C94AD020C94AD02A8
:100060000C94AD020C94AD020C94AD020C94AD0254
:100070000C94AD020C94AD020C94AD020C94AD0244
:100080000C94AD020C94AD020C94AD020C94AD0234
:100090000C94AD020C94AD020C94AD020C94AD0224
:1000A0000C94AD020C94AD020C94AD0229001E001C
:1000B0001F0020002100220023002400250026002C
:1000C00027002D002E022B0014001A000800150036
:1000D00017001C0018000C00120013002F0039003C
:1000E00004001600070009000A000B000D000E00B6
:1000F0000F00330034000000E1001D001B0006006B
:1001000019000500100037443744000000000000CB
:1001100000000000000000000000000000000000DF
:1001200000000000000000000000000000000000CF
:1001300000000000000000000000000000000000BF
:1001400000000000000000000000000000000000AF
:10015000000000000000000000000000000000009F
:10016000000000000000000000000000000000008F
:10017000000000000000000000000000000000007F
:10018000000000000000000000000000000000006F
:10019000000000000000000000000000000000005F
:1001A000000000000000000000000000000000004F
:1001B000000000000000000000000000000000003F
:1001C000000000000000000000000000000000002F
:1001D000000000000000000000000000000000001F
:1001E000000000000000000000000000000000000F
:1001F00000000000000000000000000000000000FF
:1002000000000000000000000000000000000000EE
:1002100000000000000000000000000000000000DE
:1002200000000000000000000000000000000000CE
:1002300000000000000000000000000000000000BE
:1002400000000000000000000000000000000000AE
:10025000000000000000000000000000000000009E
:10026000000000000000000000000000000000008E
:100270000000000000000000005C00000000000022
:10028000000000000000000000000000000000006E
:10029000000000002A2B28000000000000000000E1
:1002A0000000000000000029000000002C1E342087
:1002B000212224342627252E362D3738271E1F20AD
:1002C0002122232425263333362E37381F040506F2
:1002D0000708090A0B0C0D0E0F1011121314151636
:1002E0001718191A1B1C1D2F3130232D3504050634
:1002F0000708090A0B0C0D0E0F1011121314151616
:100300001718191A1B1C1D2F3130354C0000000026
:1003100000000000000000000000000000000000DD
:1003200000000000000000000000000000000000CD
:100330007E0F00D4FFFFFFC7000000780E034300CC
:100340006F006C0074003400350000000E03720072
:10035000700069006700750079000000040309045B
:1003600009029F00040100A0FA0904000001030132
:100370000100092111010001224000070581030845
:10038000000A090401000103000000092111010015
:1003900001227B000705820320000A080B020201EC
:1003A000010000090402000001010000092401000D
:1003B00001090001030904030002010300000724EE
:1003C000010001410006240201010006240202028C
:1003D00000092403010301020100092403020401AE
:1003E0000101000905040240000500000525010186
:1003F00001090583024000050000052501010312E3
:1004000001100100000008444B34630100010200A8
:100410000105010902A10185020901A100050919CF
:1004200001290815002501950875018102050109BA
:100430003009311581257F95027508810609381527
:1004400081257F950175088106050C0A3802158102
:10045000257F950175088106C0C005010980A101AD
:10046000850319012AB700150126B70095017510FB
:100470008100C0050C0901A101850419012AA0020F
:10048000150126A002950175108100C0050109061D
:10049000A101050719E029E7150025019508750157
:1004A00081029501750881010507190029FF1500D2
:1004B00026FF009506750881000508190129059594
:1004C0000575019102950175039101C011241FBEAC
:1004D000CFEFDAE0DEBFCDBF04B603FE27C08091C8
:1004E0007A0390917B03A0917C03B0917D038730C8
:1004F000904BA740B04BD1F410927A0310927B033B
:1005000010927C0310927D0314BE84B7877F84BF52
:100510000FB6F894A8958091600088618093600080
:10052000109260000FBEE0E0F8E3099511E0A0E052
:10053000B1E0EAE0F0E502C005900D92A03AB10703
:10054000D9F723E0A0EAB1E001C01D92AA37B207B3
:10055000E1F70E94AD210C94CE270C9400000C947E
:100560005906CF93DF939C013A9521153F4168F5D9
:10057000EC01CC27D170DC01AA27B270AC01442772
:1005800054709C012227387094FF11C080E1CD2B5C
:1005900009F480E0AB2B09F08062452B09F0806400
:1005A000232B09F08068FB01DF91CF91099481E052
:1005B000CD2B09F480E0AB2B09F08260452B09F0CC
:1005C0008460232B81F38860EECFDF91CF91089573
:1005D000CF93DF93EC01805E9109089720F06DE4E2
:1005E00072E1209711F46AEE7FE0CE010E94B10221
:1005F0008C2FDF91CF910C944E0FCF93DF93EC01B2
:100600000E949C0FCE01805E9109089720F064E55E
:1006100072E1209711F461EF7FE0CE01DF91CF917D
:100620000C94B102CF93DF93EC010E94E802CE015B
:10063000DF91CF910C94FD0281E0089581E008954F
:100640000C941E0308950C9422031F93CF93DF9301
:1006500000D000D00F92CDB7DEB749835A836B83A9
:100660003091CB0189819A8131111DC06623B9F087
:100670002223A9F00E945C17182F682F89819A8184
:100680000E94071769817A81812F0F900F900F9038
:100690000F900F90DF91CF911F910C944D040E9409
:1006A0003417182FEFCF0E945C1769817A81EDCF44
:1006B000FC01262F408151816281738184810C94D9
:1006C0002503CF93DF93EC0160E00E945803BE0145
:1006D000DF91CF910C9423030E94A518811102C0D1
:1006E0000E944E190E94240B0C94AF020C945B06DE
:1006F00008950E9471120E9478032FEF84E39CE01A
:10070000215080409040E1F700C000000C94751A21
:100710000F931F93CF93DF93EC0161E00E94580386
:100720008C01BE010E942003882359F1BE01C8013B
:100730000E94AF0B882329F1BE01C8010E94390C29
:100740008823F9F0BE01C8010E948B0C8823C9F0F0
:10075000BE01C8010E94AE0D882399F08A818823CA
:1007600039F001158CE5180751F00F3D1C4579F063
:10077000CE01DF91CF911F910F910C941C030E9429
:10078000790380E0DF91CF911F910F9108950E942E
:100790004E19F7CFDF92EF92FF920F931F93CF93F3
:1007A000DF93E82FF0E0E457FD4FD490282F2695F3
:1007B0002695269530E0F901E45DFC4F04918770A1
:1007C00010E0082E02C0159507950A94E2F7017013
:1007D0001127F901E45EFC4FE490F12C082E02C0D1
:1007E000F594E7940A94E2F791E0E922FF24F901F5
:1007F000E45FFC4FC491D0E002C0D595C7958A95BF
:10080000E2F7C170DD270115110519F081EE0E9494
:100810004E0FE114F10419F086EE0E944E0F8D2D5B
:100820000E94E20FEF2819F086EE0E949C0F012B28
:1008300019F081EE0E949C0FCD2B51F08CE2DF91DC
:10084000CF911F910F91FF90EF90DF900C94E20FEA
:10085000DF91CF911F910F91FF90EF90DF9008955E
:10086000982F9F709A50963018F0805D0C94CA03B0
:10087000895AFCCF08950C943A0481E008950C94B1
:100880003D04CF93C82F0E943B048C2FCF910C9432
:100890003F0490E080E008950895E72FF0E096E0AF
:1008A000899FE00DF11D112483E0EE0FFF1F8A9553
:1008B000E1F7E60FF11DEE0FFF1FE455FF4F8591A5
:1008C00094910895FC01EE0FFF1FE45CFC4F8591AD
:1008D00094910895CF93DF930E944D040E947F0569
:1008E000EC01811520E5920708F042C0811530E443
:1008F000930708F0BDC0883E910528F5803E91051C
:1009000008F09DC0883A910588F4853A910508F071
:100910008FC08130910509F492C0009709F48FC00F
:10092000049708F08CC0D0E0C0E089C08F3B9105EF
:1009300008F489C0805C9109C03CD105A0F30E94F5
:100940006204EC017CC08115904250F4C11581E035
:10095000D80708F074C0CD3ED10528F3D0656FC02C
:10096000C11590E3D90708F079C0CE019F70E7CF99
:10097000811525E5920758F5811534E5930708F0B0
:10098000A6C0811542E5940750F4C11581E5D8074A
:1009900008F471C0DC2FCC27C16FD06A50C0982FEB
:1009A000969596959E0123703327C115D34508F07F
:1009B0007FC0C1E0D0E002C0CC0FDD1F2A95E2F776
:1009C00020E2929FC0011124C82BD92B6FC0C11502
:1009D00089E5D807A8F4C11598E5D90708F07CC0C7
:1009E000C11526E5D20708F09ECF8C2F0E9416066F
:1009F000C82FD0E0DC2FCC27CC27DF71D0621FC0FE
:100A0000C1153AE5D30708F46CC0CE0190568115A4
:100A1000904208F088CF8D2F8F710E94160690E0CB
:100A2000982F882788279F719C012C2BE901E6CFFE
:100A3000C55AD0E0C15BDE4FC881D0E0D064CE01A2
:100A4000DF91CF910895C85AD0E0CC0FDD1FCF5D64
:100A5000DE4F0990D881C02DD464F1CFCE01992703
:100A6000D3FF03C0EC01D86CEACFEC01D06CE7CF28
:100A7000DF70D06AE4CFCE01E4E096958795EA95E1
:100A8000E1F783702C2F26952695237090E2299FFD
:100A900090011124382B8C2F8370C1E0D0E002C06C
:100AA000CC0FDD1F8A95E2F7C22BD32BDC68C7CFB2
:100AB000C1E0D0E002C0CC0FDD1F2A95E2F730E2A2
:100AC000939FC0011124C82BD92BDA68B8CFD82F37
:100AD000CC27C46FD06AB3CFDC2FCC27C06FD06ACD
:100AE000AECF8C2F8F700E94160634E0D695C79536
:100AF0003A95E1F7CF709C2FEC01D069A0CF8238F6
:100B00009105B1F1B0F48133910509F475C048F451
:100B10008932910509F469C08A32910509F473C0DC
:100B200008958533910509F459C08933910501F180
:100B30000895833E9105A9F138F4803E9105F9F0BE
:100B4000823E910549F10895863E9105A9F1873EBF
:100B50009105C9F1843E910519F520917F0221FF8D
:100B60001FC080917E0284FD14C087EE90E008953E
:100B700020917E022370A1F080EE90E008952091F4
:100B80007E0220FD47C030917F0230FF09C024FF64
:100B900044C090E080E004C020917E0222FDF7CFA7
:100BA000089520917E0222FD3BC030917F0230FDEE
:100BB000E3CF24FFF5CFEDCF20917E0223FFF0CFCE
:100BC00024FDE7CFD2CF20917E0223FD2CC03091AF
:100BD0007F0231FFEECF84EE90E0089520917E02F7
:100BE00025FFDECF89E290E0089520917E0225FF67
:100BF000D7CF85E390E0089520917E0226FFD0CFE5
:100C00008AE290E0089520917E0226FFC9CF81E319
:100C100090E0089589E390E0089583EE90E00895D0
:100C200082EE90E0089586EE90E0089590917E0225
:100C300092FF06C0282F28712830F9F4877F84603E
:100C400093FF06C0282F28712831F1F4877E846134
:100C500020917F0220FF06C0382F38713830D9F438
:100C6000877F816021FF06C0282F28712831D1F4A9
:100C7000877E816194FD877E0895282F247124301A
:100C8000F9F68B7F8860DCCF282F2471243101F79F
:100C90008B7E8861DDCF382F3171313019F78E7F2F
:100CA0008860E0CF282F2171213121F78E7E886165
:100CB000E1CF089508950C945A06E82FF0E0E25928
:100CC000FD4F80810895089580EA8A95F1F708958F
:100CD00000C008950C946406F894E82FE295EF7034
:100CE000F0E031A1282F2F7081E090E001C0880F43
:100CF0002A95EAF7982F9095932391A392A1892B97
:100D000082A3789408950F931F93CF93DF9383E981
:100D10000E946C0682E90E946C0681E90E946C06C2
:100D200080E90E946C0684E90E946C0686E60E94B7
:100D30006C06C2E5D1E00AE511E089910E946C06DB
:100D40000C171D07D1F7E8E6F2E0AEE6B2E011922B
:100D50001D9282E0EE36F807D1F786E00E94310757
:100D6000DF91CF911F910F910C946C03BF92CF92A2
:100D7000DF92EF92FF920F931F93CF93DF930AE5D9
:100D800011E0C8E6D2E0C12CD12CEE24E394F12C82
:100D9000F80181918F01F894E82FE295EF70F0E06F
:100DA00021A18F70A70102C0440F551F8A95E2F759
:100DB000CA01922F982B91A392A18095892382A397
:100DC00078940E946806E2E5F1E030E020E0B12C82
:100DD0004191A42FA295AF70B0E090968C9190E0D5
:100DE0004F7002C0959587954A95E2F780FD35C012
:100DF0008E2D022E01C0880F0A94EAF7B82A2F5FC1
:100E00003F4F2830310521F7F801319780810E944A
:100E10006C0655E0C5120E946A068881B816F9F082
:100E2000B88281E0D82AC394219686E0C812B0CF58
:100E30002D2D46E06EE672E088E692E00E943207D1
:100E40000E9476038D2DDF91CF911F910F91FF901E
:100E5000EF90DF90CF90BF90089580E0CFCF80E0FB
:100E6000E1CF0895FF920F931F93CF93DF93F82E56
:100E7000092F162FD72FC42F222349F081E080930A
:100E8000A4010E942A1A9093A3018093A201809149
:100E9000A4018823A1F08091A2019091A3010E9456
:100EA000421A069760F0EF2DF02FA12FBD2FCE0F25
:100EB000DF2FD11DEC17FD0741F41092A401DF9143
:100EC000CF911F910F91FF90089581918D93F2CF53
:100ED000EF92FF920F931F93CF93DF93CDB7DEB7BF
:100EE000AC970FB6F894DEBF0FBECDBF962FBA01F8
:100EF0002132310598F540EF49831A821B821C820A
:100F0000790142E0E40EF11C0CE210E00E191F0919
:100F1000E1E0F0E0EC0FFD1F0E0F1F1FF8018083D2
:100F20009183A901C80102960E948327A701B801F5
:100F3000CE0105960E94CC1DE5E0F0E0EC0FFD1F10
:100F4000E80FF91F27EF2083BC016B5F7F4FAE01D5
:100F50004F5F5F4F80E892E00E94E11AAC960FB6B7
:100F6000F894DEBF0FBECDBFDF91CF911F910F91DF
:100F7000FF90EF9008950E947C27FA0160837183AF
:100F800082839383089581E008950C94C3070C94A1
:100F9000C507EF92FF920F931F93CF93DF9300D07B
:100FA00000D0CDB7DEB7F82EE92E8B010E94C7071F
:100FB0008823A9F0D8018C918233E0F4803378F44F
:100FC000813169F040F4803111F12F2D3E2DA801BF
:100FD00060E080E83FC08032A1F08132B1F70F902D
:100FE0000F900F900F90DF91CF911F910F91FF9075
:100FF000EF900895803448F3823488F3803829F7DD
:10100000EECFF8018181823069F08430B9F0D801E7
:101010001196EC91E150ED3010F7F0E0E053F84D0F
:101020000C94762712968C910E94B818F801628170
:1010300070E090E080E00E940916E9CF12968C9152
:1010400090E00E94CB18E3CF30E020E050E040E099
:1010500061E081E10E946807C2CF82E090E00E94D7
:101060008C27898321E030E0AE014F5F5F4F68E05D
:10107000F0CF83E090E00E948C27898321E030E06C
:10108000AE014F5F5F4F62E0E4CF6091220270914A
:1010900023028091240290912502AE014F5F5F4FA1
:1010A0000E94BB0724E030E0AE014F5F5F4F63E07A
:1010B000D0CF30E020E050E040E069E0CACF30E03F
:1010C00020E050E040E065E0C4CF30E020E050E0B8
:1010D00040E066E0BECF0E94BD18898321E030E089
:1010E000AE014F5F5F4F64E0B4CF86E0898388E054
:1010F0008A8322E030E0AE014F5F5F4F6DE0A9CF01
:1011000080E892E00C940E1D8091AB0180FF12C02C
:101110006091050185E0689FB00111247595679580
:101120007595679560387105A8F561157105A1F190
:10113000862F089581FF09C06091050185E0689FB1
:10114000B001112475956795EDCF6091050182FD81
:101150000AC08091AA018823D1F090910401609186
:101160000501891728F085E0689FB0011124DACFC6
:10117000869FB001112485E0869F9001879F300DE6
:101180001124692F70E0C9010E946227CBCF65E06E
:1011900070E0CECF8FE7089581E008958091AB0194
:1011A00080FF0CC06091010170E0759567957595A1
:1011B00067956115710549F1862F089581FF06C075
:1011C0006091010170E075956795F3CF6091010121
:1011D00082FD0BC09091A9019923A1F060910001BB
:1011E00080910101961738F0682F70E06038710522
:1011F00000F38FE70895899FC001112470E00E94D9
:101200006227F4CF61E070E0D7CF81E008958D3E92
:1012100031F40E94840881958093AF0108958E3E39
:1012200019F40E948408F8CF8F3E31F40E9484089C
:1012300081958093AE010895803F19F40E9484083F
:10124000F8CF893F29F40E94CE088093B001089519
:101250008A3F21F40E94CE088195F7CF8B3F31F46D
:101260000E94CE0881958093B10108958C3F19F4B6
:101270000E94CE08F8CF9FE0980F983070F4815FFD
:10128000990B21E030E001C0220F8A95EAF78091A6
:10129000AD01822B8093AD0108958D3F31F4809193
:1012A000AB0181608093AB0108958E3F21F4809162
:1012B000AB018260F7CF8F3FB9F78091AB018460BB
:1012C000F1CF4091AE018D3E59F48091AF0187FF7F
:1012D0000DC01092AF0141110BC01092AA0108C0BD
:1012E0008E3E81F48091AF0118169CF3442381F067
:1012F0008091B0019091B101892B09F05AC01092F0
:10130000A90108958F3E49F447FFF0CF1092AE0136
:101310008091AF018111ECCFE0CF803F19F414161A
:10132000ACF3E4CF9091B001893F29F41916F4F69B
:101330001092B001DBCF8A3F19F497FFD7CFF8CFD7
:101340009091B1018B3F29F497FFD0CF1092B1015A
:10135000CDCF8C3F19F41916CCF3C8CF9FE0980F6E
:10136000983090F4815F990B21E030E0B90102C020
:10137000660F771F8A95E2F7CB0180959091AD01BA
:1013800089238093AD01B2CF8D3F31F48091AB01C1
:101390008E7F8093AB01AACF8E3F21F48091AB0169
:1013A0008D7FF7CF8F3F09F0A1CF8091AB018B7F6D
:1013B000F0CF08950E942A1A9C019091AE0180916D
:1013C000AF01982B21F03093A8012093A7019091B1
:1013D000B0018091B101982B21F03093A6012093A8
:1013E000A5018CEA91E00C94010EEF92FF920F930D
:1013F0001F93CF93DF9300D000D000D0CDB7DEB7DE
:1014000086E0ECEAF1E0DE01119601900D928A95FA
:10141000E1F7E090AE01F090AF010091B0011091C2
:10142000B1011092AE011092AF011092B001109272
:10143000B1018E2D8F2991F08091A7019091A80183
:101440000E94421AAC019091AA01992309F43FC06D
:10145000809106018417150608F447C0802F812B60
:1014600091F08091A5019091A6010E94421AAC01D1
:101470009091A901992309F477C080910201841702
:10148000150608F47FC08091AE019091AF01892BC1
:101490009091B001892B9091B101892B11F00E949C
:1014A000DA0986E0FE013196ACEAB1E001900D92D6
:1014B0008A95E1F726960FB6F894DEBF0FBECDBF32
:1014C000DF91CF911F910F91FF90EF9008952091A0
:1014D00007018AE0289F900111242417350708F09E
:1014E000BDCF9F5F9093AA0102C09F3FD1F7EE202E
:1014F00059F00E9484089FEF1E140CF491E0899F1C
:10150000802D11248093AE01FF2059F00E948408A1
:101510009FEF1F140CF491E0899F802D112480937C
:10152000AF013091AE01332309F498CF2091AF0180
:10153000222309F493CF45EB3403C00111249923EE
:1015400059F09093AE0145EB24039001112433230D
:1015500039F03093AF0182CF81E08093AE01F3CFB9
:1015600081E08093AF017ACF209103018AE0289F28
:10157000900111242417350708F085CF9F5F9093C1
:10158000A90102C09F3FD1F7002359F00E94CE0865
:101590009FEF10160CF491E0899F802D1124809309
:1015A000B001112359F00E94CE089FEF11160CF4E0
:1015B00091E0899F802D11248093B1013091B00179
:1015C000332309F460CF2091B101222309F45BCFCA
:1015D00045EB3403C0011124992359F09093B001D5
:1015E00045EB240390011124332339F03093B101EA
:1015F0004ACF81E08093B001F3CF81E08093B101C5
:1016000042CF86E0ECEAF1E0DF011D928A95E9F72E
:101610001092AA011092A9011092AB010895CF93E4
:10162000DF93EC0197FF0CC0FB018281882341F01E
:101630000E943A0BCE019F770E94940B0E94750B7B
:1016400081E0DF91CF9108958CE090E00E948C279B
:1016500090E0B0E0A0E08093740290937502A093B4
:101660007602B09377020895609174028CE090E066
:101670000C949A270E94E90D8695817080937902D7
:1016800090917402913029F4882319F089E30E9423
:10169000E20F0E94F117809378020E940418809153
:1016A0007402813089F0882359F0823091F08430BF
:1016B000B9F08FE39CE90197F1F700C000000895AD
:1016C00082EE0E944E0FF5CF88E193E00E94120354
:1016D000F0CF82EE0E944E0F87E50E94E20FE9CF25
:1016E00086EE0E94E20F88E1F8CF8091740281308B
:1016F00071F0882341F0823031F0843099F080918C
:1017000078020C94011882EE0E949C0FF8CF8CE2B4
:101710000E94E20F80917902882389F389E30E9475
:10172000E20FEDCF88E2FBCF0F931F93CF93DF93B0
:101730008C01CCE0D0E0C8010C2E02C096958795B4
:101740000A94E2F78F700E9430042497CC3F8FEF09
:10175000D80789F7DF91CF911F910F9108950F93CB
:101760001F93CF93DF93EC018B01FB0182818823D0
:1017700061F00E94F117CE01825E9C458530910593
:1017800020F4809374020E94340BB801CE01DF91E3
:10179000CF911F910F910C940F0B0F931F93CF9329
:1017A000DF93C42FD22FFC0182818823C9F040939C
:1017B000B4010E942A1A9093B3018093B20180E28F
:1017C0008C0F883008F050C0C77081E001C0880FCE
:1017D000CA95EAF7DF91CF911F910F910C94EA0F10
:1017E0001091B401141335C08091B2019091B301EE
:1017F0000E94421A883C910560F5C0E2CD0F1D178A
:10180000B9F080E2810F883040F4177081E001C0A8
:10181000880F1A95EAF70E94F10FC83048F481E06A
:101820009D2F977001C0880F9A95EAF70E94EA0FE2
:10183000802F0E94E20FC830B8F4D77081E001C059
:10184000880FDA95EAF7DF91CF911F910F910C94F1
:10185000F10F80E28C0F883038F4C77081E001C04E
:10186000880FCA95EAF7EFCFDF91CF911F910F91C3
:1018700008950F939C01CB01243F4CE5340759F1A7
:10188000A8F4293DFCE53F0701F12A3D4CE534076A
:10189000D1F1283D3C4591F406E221EE41EE68EDA0
:1018A0007CE50E94CD0B80E00F910895263FFCE57A
:1018B0003F07E9F0B0F0273F3C45F9F0FC01828199
:1018C000882339F11092B401EFCF07E225EE45EEFF
:1018D00069ED7CE5E6CF06E221EE40EE64EF7CE5C3
:1018E000E0CF07E225EE44EE65EF7CE5DACF06E2D5
:1018F00021EE42EE66EF7CE5D4CF07E225EE46EE20
:1019000067EF7CE5CECF08E221E045EE6AED7CE5AD
:10191000C8CF81E0C9CFCF93DF93EC01FB01828177
:10192000882309F419C1C230FCE5DF07C0F1C631D4
:101930009CE5D90730F09E012B5F3C4529303105ED
:1019400070F50E94BD1890937F0280937E02C03193
:10195000ECE5DE0709F4CFC008F05BC0C8308CE5C9
:10196000D80709F4B6C088F5C430ECE5DE0709F401
:10197000A8C0C0F4C2308CE5D80709F49CC080919F
:101980007E028260C330DC4509F498C080917E02FB
:1019900090917F020E94CB180E94711280E0DF912B
:1019A000CF91089580917E028061C630ECE5DE071C
:1019B00009F484C080917E028860C730DC4508F459
:1019C0007DC080917E02806279C0CC308CE5D807E2
:1019D00009F489C070F480917E028C60CA30ECE515
:1019E000DE0709F46BC008F478C080917E028E7F18
:1019F00065C0CE308CE5D80709F479C080917E02AD
:101A00008B7FCF30DC4508F459C080917E028F7EF9
:101A100055C0CC3FECE5DE0709F457C030F5C331C3
:101A20008CE5D80709F46FC078F4C131ECE5DE0726
:101A300009F465C0C231DC4509F0A8CF0E947112DB
:101A400080917E028F773AC0C5318CE5D80709F4C2
:101A500062C008F476C080917F028160CB3FDC4594
:101A600009F094CF80937F0291CFC115FDE5DF0788
:101A700009F44DC088F480917F028D7FCE3F9CE5B4
:101A8000D90781F380917F028E7FCF3FDC4550F3F1
:101A900080917F028360E6CFC230FDE5DF0709F465
:101AA00059C008F444C080E0C330DD4509F06ECF72
:101AB0000E9450196BCF80917E02816080937E02DC
:101AC00065CF80917E028460F9CF80917F02826031
:101AD000C9CF80917E028064F1CF0E947112809103
:101AE0007E028068EBCF80917E028D7FE7CF809170
:101AF0007E02877FE3CF80917E028F7DDFCF809152
:101B00007E028F7BDBCF80917E02837FD7CF809157
:101B10007F028C7FA7CF80917E0282FB992790F96C
:101B200021E0922790FB82F990FB83F9C7CF809147
:101B30007F02982F909591708E7F892B90FB81F971
:101B400091CF0E94711290917E02892F97FB87F9A5
:101B50008058B4CF81E0ACCF81E021CFCF93DF9329
:101B6000EB0186319C4511F50E94F1179A8199236A
:101B700099F08A7A91E009F490E09093B50181118F
:101B800009C089E20E94CC170E94401880E0DF91D2
:101B9000CF91089585E3F6CF8091B501811104C0FE
:101BA00089E20E94D317F0CF85E3FBCF81E0EFCF2E
:101BB0009093BB018093BA010895E091BA01F0912E
:101BC000BB01309721F00190F081E02D099480E075
:101BD0000895E091BA01F091BB01309711F480E0D3
:101BE00008950190F081E02D09950895E091BA01E2
:101BF000F091BB01309721F00280F381E02D099430
:101C00000895E091BA01F091BB01309739F022E0DC
:101C1000DC012C930480F581E02D09940895209136
:101C2000B8013091B9012817390771F09093B901C3
:101C30008093B801E091BA01F091BB01309721F097
:101C40000680F781E02D099408952091B601309126
:101C5000B7012817390771F09093B7018093B60147
:101C6000E091BA01F091BB01309721F00084F18539
:101C7000E02D099408950E94361A6093C70170936D
:101C8000C8018093C9019093CA016093C301709306
:101C9000C4018093C5019093C601089585B78068FB
:101CA00085BF85B7806885BF0895089508950C9411
:101CB000550E08950C94590E0E944E0E83EA98E139
:101CC0000E94861A0E94560E0C94570E81E00895C9
:101CD0000C94660E089508950E94211A0E948306AE
:101CE0000E948B1A0C945A0EAF92BF92CF92DF9241
:101CF000EF92FF920F931F93CF93DF93CDB7DEB791
:101D00002A970FB6F894DEBF0FBECDBF0E946A0EB1
:101D10000E946B0E0E94B60681110E943B0E8DEB55
:101D2000A82E81E0B82E10E000E0C02E802F0E9487
:101D30005D06E82EF501F1905F01F81609F44FC039
:101D40008091370281FD0E9463068F2D8E25D12C54
:101D5000FF24F394982F9F21E9F10E94680E8823B5
:101D600099F0DE82CF82EF2081E009F480E088875D
:101D70000E942A1A8160782F9A8789874E815F8115
:101D800068858A850E94170FF801E354FE4F808111
:101D9000F826F0820E94F5090E9480080E94DD0D5D
:101DA0009091BC01891791F10E94DD0D8093BC01D7
:101DB0002A960FB6F894DEBF0FBECDBFDF91CF914C
:101DC0001F910F91FF90EF90DF90CF90BF90AF9059
:101DD0000C944104D394FF0CF8E0DF12BBCF0F5FEB
:101DE0001F4F0630110509F0A0CF8FEF89838A833A
:101DF0001B820E942A1A8160782F9D838C834981DF
:101E00005A816B818D810E94170FC4CF2A960FB61D
:101E1000F894DEBF0FBECDBFDF91CF911F910F9120
:101E2000FF90EF90DF90CF90BF90AF900895DF923A
:101E3000EF92FF920F931F93CF93DF93CDB7DEB74F
:101E40002B970FB6F894DEBF0FBECDBF7A878B8776
:101E5000F42E052F162FE72ED82E61110E9414188C
:101E60001E821D827E2DEC82DD824F2D502F612F30
:101E70008D2D9E812B960FB6F894DEBF0FBECDBF81
:101E8000DF91CF911F910F91FF90EF90DF900C9415
:101E9000E714FC01808191810C949E17CF93C82F89
:101EA000882309F447C08CEF8C0F813AA0F46C2F83
:101EB00080910801909109010E946719882329F0F7
:101EC0008C2F0E94D3170E9440188C2F0E94CC1791
:101ED000CF910C94401880E28C0F883048F4C77082
:101EE00081E001C0880FCA95EAF70E94F417F0CF8D
:101EF000EBE5EC0FE33040F4F0E0E257FE4F808179
:101F000090E0CF910C940F0EE8E5EC0FE73150F420
:101F1000F0E0EE0FFF1FE05AFE4F80819181CF91DC
:101F20000C94250ECD3E30F08C2F0E940709CF91E6
:101F30000C94DA09CF910895882361F19CEF980FF2
:101F4000913A20F40E94D3170C94401890E2980F15
:101F5000983050F4877091E001C0990F8A95EAF7A4
:101F6000892F0E94FA17F0CF9BE5980F933020F449
:101F700090E080E00C940F0E98E5980F973120F4D4
:101F800090E080E00C94250E8D3E20F00E946109C7
:101F90000C94DA0908951F93CF93DF93182FEB0168
:101FA0000E944E0F209731F4812FDF91CF911F9126
:101FB0000C949C0F8FE99FE00197F1F700C000009F
:101FC0002197F0CF70E060E0893311F460E570E0B4
:101FD0000C94CB0F882321F00E94F4170C94401826
:101FE0000895882321F00E94FA170C944018089550
:101FF000BF92CF92DF92EF92FF920F931F93CF93F6
:10200000DF936C01D62FC72FFC0112810581029549
:102010000F700E94EA17E82E8823A1F0E12E112309
:1020200089F08C2F807F803429F080E28D0FE12CA5
:10203000883040F082E00E948B180E94EA1791E0FD
:10204000E82EE926BC2EB2949FE0B922EB2DF0E0F9
:10205000E352F84D0C9476270C2F0F70C07F11F0CF
:102060000295007F1123A9F0002359F080E28D0F23
:10207000883010F0D11109C0802F0E94F4170E94FF
:1020800040188D2F0E944E0F14C0802F0E940718F9
:10209000F6CF8D2F0E949C0F002359F080E28D0F08
:1020A000883010F0D1112CC0802F0E94FA170E94A6
:1020B00040182B2D2850330B2430310520F40E947A
:1020C000DD0D0E944104EE2009F49EC10E94E61736
:1020D00080FD9AC1F60112820E94E0170E946B16E1
:1020E000C6010E9425120E94E017DF91CF911F9137
:1020F0000F91FF90EF90DF90CF90BF900C948C16D3
:10210000802F0E940D18D3CFFC2FFF70FF2EC07FB1
:10211000C03219F0F29480EFF822DD2369F0D1305B
:1021200049F1112391F1002351F1F601858180FFDE
:10213000A8CF8F70858323C0112381F0011106C0C1
:102140000E9427188F290E94EA0FB3CF0130C1F7F0
:102150000E9427188F290E942D18ABCF011106C0AD
:102160000E9436188F2D0E94F10FA3CF013009F481
:10217000A0CFF6CF112329F0063008F09ACF8F2D8B
:10218000E2CF053008F095CFEDCF002359F3D933D6
:1021900049F4FFEF27EE33E0F15020403040E1F703
:1021A00000C000008D2F0E949C0F83CF8C2F86953E
:1021B0008695837069F0813009F07BCF8D2F9C2F3D
:1021C0009370111102C090E080E00E94250E71CF43
:1021D0008D2F9C2F9370111102C090E080E00E941F
:1021E0000F0E67CF8D2F112329F00E9407090E943F
:1021F000DA095FCF0E946109FACF8C2F837009F052
:1022000041C0111156CF4D2F429546954770440F4E
:10221000440F0D2F0F7010E030E020E0042E04C0BA
:10222000000F111F221F331F0A94D2F760E070E0E5
:10223000CB01D4FF0FC06FE070E080E090E004C0FD
:10224000660F771F881F991F4A95D2F76095709582
:1022500080959095C695C695C370602B712B822B87
:10226000932BC23049F058F4C13019F00E941D166A
:1022700020CF0E940B161DCF0E942F161ACF0E944E
:10228000091617CF8695112311F08C2F81708823A2
:1022900009F40FCF4D2F429546954770440F440FD8
:1022A0000D2F0F7010E030E020E0042E04C0000F6E
:1022B000111F221F331F0A94D2F760E070E0CB0198
:1022C000D4FF0FC06FE070E080E090E004C0660FC4
:1022D000771F881F991F4A95D2F760957095809552
:1022E0009095C695C695C370602B712B822B932B4E
:1022F000C23049F058F4C13019F00E94E216D9CE2C
:102300000E94D016D6CE0E94F416D3CE0E94451657
:10231000D0CECF70112329F08C2F0E946B168D2FF9
:1023200012CF8D2F0E94F10F8C2F0E948C16C1CEE0
:10233000D23F89F160F4D03FC9F0D13F29F1112398
:1023400009F442C001119DCE8C2F8F7121C0D33F63
:1023500039F1D43FA1F7112369F1CF718C2F0E947D
:102360006B1663E08C2F0E947618A3CE112341F0E8
:10237000053008F09ECE8C2F8F710E94AF1699CE3B
:10238000063008F096CEF7CF8C2F8F71112369F2AB
:102390000E946B168ECE8C2F8F711123C9F3C5CF7F
:1023A000112329F08C2F8F710E94561682CE0E9425
:1023B00051167FCE81E00E948B18023008F479CE4E
:1023C00082E00E948B1875CE002359F0D93309F0B2
:1023D000E9CE8FEF97EEE3E081509040E040E1F7E7
:1023E000DFCE8C2F8F71A1CF4C2F4F706D2FC60178
:1023F0000E9449040E9481155CCE4C2F4F706D2FB6
:10240000C6010E944C0455CEDF91CF911F910F91D0
:10241000FF90EF90DF90CF90BF9008950F931F93A0
:10242000CF93DF93EC01688179818A810E94A8179C
:102430008C010E9406170E940816B801CE01DF9198
:10244000CF911F910F910C94F80FCF93DF93EC0174
:102450008B819C81892B29F08881998189238F3FE9
:1024600059F4DF91CF910895CE010E940E12CE0152
:10247000DF91CF910C946103CE010E9488038111FA
:10248000F3CF0E94EA17882361F38A81882349F3F6
:1024900082E0DF91CF910C948B18882321F00E9469
:1024A00007180C9440180895882321F00E940D18F5
:1024B0000C944018089590E080E00E940F0E90E088
:1024C00080E00E94250E0E9414180E9424180E9489
:1024D00040180E94010B0C94DA090E94DA170C9440
:1024E0005B120E9404180C946D12E92FE295EF70B4
:1024F000E250EE3070F4F0E0E351F84D0C947627A2
:10250000803F19F020F4883E20F481E00895843F54
:10251000E1F380E00895883EC0F3813FD1F7F5CF25
:1025200093FB882780F908950E949E170C947512DA
:10253000CF93DF9300D000D00F92CDB7DEB70F90CE
:102540000F900F900F900F90DF91CF910895CF9340
:10255000DF9300D000D000D0CDB7DEB726960FB6FF
:10256000F894DEBF0FBECDBFDF91CF9108951F93CA
:10257000CF93DF93C091CC0116E08091CD018C13F5
:1025800004C0DF91CF911F910895D0E01C9FF0010E
:102590001D9FF00D1124E253FE4F40815181628155
:1025A0007381848195810E94A7122196C770E5CF1F
:1025B0004091FE015091FF01609100027091010273
:1025C00080910202909103020C94A7121F93CF9363
:1025D000DF9380910302807FA9F480910002882319
:1025E00089F08091CC01C091CD016091FE01709184
:1025F000FF01A0910102B0910202D62FD72316E06D
:10260000C81304C0DF91CF911F91089590E01097F7
:1026100011F0DF3F19F401968770F2CF189F9001F7
:10262000199F300D1124F901E253FE4F41814713E8
:10263000F2CF40814613EFCF42814111ECCF43816D
:1026400054814A1B5B0B483C510528F780910302DB
:102650008F70806180930302F901ED52FE4F8081FB
:102660008F70806180838EEF91E00E942512DF9150
:10267000CF911F910C94B712AF92BF92CF92DF927D
:10268000EF92FF920F931F93CF93DF93CDB7DEB7F7
:1026900061970FB6F894DEBF0FBECDBF8C0185E009
:1026A000F801DE011D9601900D928A95E1F7F8017F
:1026B00040815181E2808EEFC82E81E0D82E60915A
:1026C0000102709102026115710509F461C19091D6
:1026D000FE012091FF01892F82238F3F09F458C109
:1026E000A380B480F0900002F501E61BF70BFF20F9
:1026F00009F4FCC080910302382F307FE83CF105DB
:1027000008F0B2C0311179C0FE2C251323C09413F8
:1027100021C0E1101FC08F708061809303020E946E
:10272000D812C6010E94251280910302F801858308
:102730008F2D61960FB6F894DEBF0FBECDBFDF912F
:10274000CF911F910F91FF90EF90DF90CF90BF90AE
:10275000AF900895AB2829F0842F85238F3F09F08F
:1027600033C180E0F82FF170DF2E80FF3CC08091F4
:10277000CC012091CD0136E0821315C04D875E87D4
:102780008D859E850E949E17292F22952F702230BD
:10279000F0F0243018F59F70F1F0F8019581907FEA
:1027A000D1F4D12C1EC090E0389FF001399FF00D7C
:1027B0001124E253FE4F6181651306C060816413EA
:1027C00003C062816E110FC001968770D5CF9F70D4
:1027D00011F0882331F3805E883018F3C8010E941D
:1027E0002512FD2CA5CFEE2009F4A2CF8091030283
:1027F000816080930302F12C9BCF251306C09413B4
:1028000004C0F801EE2009F48DC04D875E878D85E8
:102810009E850E949412882319F1EE2009F180917F
:102820000302803270F02091FE013091FF01388761
:102830002F831986BB86AA868C87CE0107960E94B5
:10284000251286E0F801AEEFB1E001900D928A9575
:10285000E1F70E94E6120E94D812FF24F39468CF99
:10286000C8010E942512F9CF311113C07A2DB98AFF
:10287000A88A6E2D89890E9498128EEF91E00E949D
:10288000251286E0F60111928A95E9F70E94D81286
:10289000B2CF25130FC094130DC0E1100BC0F80187
:1028A0008583C8010E94251286E0F60111928A955F
:1028B000E9F73ECF4D875E878D859E850E949412F5
:1028C000882371F2EE2061F280910302803208F4D5
:1028D000B8CF2091FE013091FF013A8329831B82FA
:1028E000BD82AC828E83CE010196A9CFE83CF10572
:1028F00008F041C0FE2CEE2009F4B2CF25132AC007
:10290000941328C08091030280FD1BC0982F907FF4
:10291000C1F0F8018583903F31F0982F907F905F50
:102920008F70892B8583C8010E94251286E0F801EB
:10293000AEEFB1E001900D928A95E1F70E94D812B6
:10294000F7CE86E0F801AEEFB1E001900D928A95E6
:10295000E1F7EECE4D875E878D859E850E949412AD
:1029600081116FCF80910302816080930302C801BF
:102970000E942512DDCE7A2DB98AA88A6E2D89890A
:102980000E94981286E0F60111928A95E9F7D6CF57
:10299000EE2009F465CF4D875E878D859E850E9468
:1029A0009412F82E882309F45BCF86E0F801AEEF8D
:1029B000B1E001900D928A95E1F78EEF91E00E94CF
:1029C000490F0E94E612BACF81E08E25CBCE1F932D
:1029D000CF93DF93CDB7DEB72C970FB6F894DEBF59
:1029E0000FBECDBF4F83588769877A878B879C87B7
:1029F000CE0107960E943C13882369F08A859B8547
:102A0000892B39F04F815885842F85238F3F09F01A
:102A100071C016E05FC086E0FE013796DE011196B8
:102A200001900D928A95E1F78A859B85892B89F320
:102A30008F81988589238F3F61F32091CD0130E00C
:102A4000C9010196877099274091CC014817190652
:102A500071F40E9471121092CD011092CC0186E0A7
:102A6000EEEFF1E0DF011D928A95E9F7D2CF96E013
:102A7000929FD001939FB00D1124A253BE4FFE012F
:102A8000319601900D929A95E1F78093CD010E94C5
:102A9000B712BFCF819FC001112482539E4F0E9465
:102AA0003C138823E9F0E091CC011E9FF001112432
:102AB000E253FE4F4081518162817381848195810F
:102AC0000E94A7128091CC0190E00196877099270F
:102AD0008093CC018091CC019091CD018913DACF04
:102AE0002C960FB6F894DEBF0FBECDBFDF91CF910D
:102AF0001F91089569857A858B859C850E94A71210
:102B000088CFEF92FF920F931F93CF93DF938C01A7
:102B1000892B81F0F12CEE24E394E8012196F80151
:102B20008491843770F4843008F05FC08130B1F054
:102B30008230A1F1DF91CF911F910F91FF90EF9023
:102B40000895853709F44CC008F43DC09CE7980F00
:102B5000903780F78F770E949C0F49C00E5F1F4F00
:102B6000FE01849190E2980F983060F48770FE2DFA
:102B700001C0FF0F8A95EAF78F2F0E9417180E9455
:102B8000401802C00E944E0F8F2D815030F2EFE9A5
:102B9000FFE03197F1F700C00000F7CF0E5F1F4F45
:102BA000FE01849190E2980F983050F48770FE2DCA
:102BB00001C0FF0F8A95EAF78F2F0E941D18DFCF03
:102BC0000E949C0FE1CF0E5F1F4FFE01C491C150C8
:102BD000D8F28FE99FE00197F1F700C00000F7CF2E
:102BE0000E5F1F4FFE01F490CFCF0E944E0F8E015B
:102BF000CBCF08950C94F9150E94FA156093260224
:102C00007093270280932802909329020C945B1200
:102C100008950C94FC150F931F93009126021091B8
:102C200027022091280230912902602B712B822BE0
:102C3000932B1F910F910C94FC150F931F930091F0
:102C40002602109127022091280230912902602348
:102C50007123822393231F910F910C94FC150F93E2
:102C60001F93009126021091270220912802309193
:102C7000290260277127822793271F910F910C94B7
:102C8000FC150C94F9150C9441160E9443166093A0
:102C900022027093230280932402909325020C94C5
:102CA0005B1260E070E0CB010C9445160F931F930C
:102CB00041E050E060E070E08A019B0104C0000F39
:102CC000111F221F331F8A95D2F7C901B8011F9126
:102CD0000F910C9445160F931F9341E050E060E074
:102CE00070E004C0440F551F661F771F8A95D2F706
:102CF0008091220290912302A0912402B09125029A
:102D00008A019B01082B192B2A2B3B2BC901B801E7
:102D10001F910F910C9445160F931F9341E050E0C3
:102D200060E070E004C0440F551F661F771F8A954E
:102D3000D2F7CB01BA01609570958095909500917E
:102D40002202109123022091240230912502602357
:102D50007123822393231F910F910C9445160F9397
:102D60001F9341E050E060E070E004C0440F551F45
:102D7000661F771F8A95D2F78091220290912302D5
:102D8000A0912402B09125028A019B0108271927EE
:102D90002A273B27C901B8011F910F910C944516B2
:102DA0000F931F930091220210912302209124027D
:102DB00030912502602B712B822B932B1F910F9149
:102DC0000C9445160F931F93009122021091230239
:102DD00020912402309125026023712382239323C2
:102DE0001F910F910C9445160F931F93009122028F
:102DF000109123022091240230912502602771272F
:102E0000822793271F910F910C9445160895990FCF
:102E1000990F990F890F982F977041E001C0440FC7
:102E20009A95EAF786958695869595E0899FF001B3
:102E30001124EC5FFD4F30E020E070E05191DF01A4
:102E40001197CB01022E02C0969587950A94E2F75E
:102E5000817081958527842385278C932F5F3F4F31
:102E60002530310559F70895990F990F990F890F5A
:102E7000982F977086958695869525E0829FF0011C
:102E80001124EC5FFD4F50E040E080E0219130E004
:102E9000092E02C0369527950A94E2F72170332750
:102EA000042E01C0220F0A94EAF7822B4F5F5F4F76
:102EB0004530510559F70895BF92CF92DF92EF92B6
:102EC000FF920F931F93CF93DF938C01C090220248
:102ED000D0902302E0902402F090250280912602F7
:102EE00090912702A0912802B0912902C82AD92ADC
:102EF000EA2AFB2ACFE1D0E0BC2ED701C6010C2E76
:102F000004C0B695A795979587950A94D2F780FD4A
:102F10000EC0219788F7B12C8B2DDF91CF911F9197
:102F20000F91FF90EF90DF90CF90BF900895B80180
:102F30008C2F0E946A04019761F3EECFCF93DF9349
:102F4000EC010E945C17BE01DF91CF910C946A04E2
:102F50001F93CF93DF93EB019091CB01992331F035
:102F6000CB01DF91CF911F910C949E17882379F0AC
:102F7000CB010E945C17182F682FCE010E94071703
:102F8000BE01812FDF91CF911F910C946A04CB0178
:102F90000E943417182FF4CF682F80910801909168
:102FA00009010C949D19682F8091080190910901E5
:102FB0000C949F1980910801909109010C94A1191A
:102FC00080912A02859585958595089580912A029C
:102FD0008770089590912A02977081E009F480E04B
:102FE000089580913602089590913602892B80933E
:102FF0003602089580959091360298239093360278
:1030000008958093360208951092360208959091A3
:103010003502892B80933502089580959091350271
:103020009823909335020895109235020895909157
:103030003402892B80933402089580959091340254
:103040009823909334020895109234020895809149
:103050002B02089508950C942A1890912B0298172A
:1030600021F080932B020C942B18089580912B0251
:10307000882329F010922B0280E00C942B180895DD
:10308000E0910801F0910901809136028083E0917E
:103090000801F0910901808190913502892B80838C
:1030A000E0910801F0910901808190913402892B0F
:1030B000808390912B02992381F0E0910801F09197
:1030C00009018081892B80838091080190910901F9
:1030D0000E94551981110E94361880910801909123
:1030E00009010C94F60D08950C94731898E0899FCB
:1030F00090011124622B60932A020E946B1680912A
:103100002A028595859585950C94741810922A024B
:1031100080E00C94741890912A0280958923809302
:103120002A02282F277071F4282F082E000C330B49
:103130009217130639F08595859585950E948C1612
:103140000C948618089580E0089590E080E00E9435
:10315000942721E08B3E9E4F09F020E0822F0895B6
:1031600082E090E00C948C2783E090E00C948C2714
:10317000682F83E090E00C949A27CF9384E090E04E
:103180000E948C27C82F81E290E00E948C27982F04
:103190008C2FCF910895CF93C92F682F84E090E0B2
:1031A0000E949A276C2F81E290E0CF910C949A278D
:1031B000AB01BC018FE090E00C94AC27AB01BC01EB
:1031C00083E190E00C94AC2760E070E0CB010C94BC
:1031D000DE1860E070E0CB010E94D8180C94E4186F
:1031E0006BEE7EEF90E080E00E94B82760E082E026
:1031F00090E00E949A2760E083E090E00E949A2786
:103200001092260210922702109228021092290290
:1032100060E084E090E00E949A2760E081E290E024
:103220000E949A2760E085E090E00E949A2760E083
:1032300086E090E00E949A276FEF87E090E00E947E
:103240009A2740E050E0BA0188E090E00E94AC2765
:1032500060E08DE090E00E949A2740E050E0BA01E3
:1032600088E190E00E94AC2760E087E190E00E9456
:103270009A2740E050E0BA018CE190E00E94AC2730
:1032800060E080E290E00E949A2740E050E0BA01BE
:1032900088E190E00E94AC270C94E9180C94F01897
:1032A000682F8EE090E00C949A279C012E5F3F4F90
:1032B000AC01485F5F4F80E02417350709F408959B
:1032C000F90191919F019923B9F38F5FF5CF66239F
:1032D00049F0FC01329608962191261729F0E8174B
:1032E000F907D1F780E0089581E008959C01FC0181
:1032F00032969FEF80E04191461751F09F3F19F4BD
:10330000411101C0982F8F5F8630A9F79F3F09F4C4
:103310000895290F311D97FD3A95F90162830895AB
:10332000FC01329608962191261303C0DF01119704
:103330001C92E817F907B9F708950C9476190C94C4
:103340009019029626E0FC0111922A95E9F708955A
:10335000089508950C94A91980917103843049F15E
:103360000E94AA1980E00E9441041092380288E16C
:1033700090E020E40FB6F894A895809360000FBE0B
:103380002093600083B7817F846083BF83B78160AF
:1033900083BF7894889583B78E7F83BF0FB6F894E8
:1033A000A895809160008861809360001092600011
:1033B0000FBE08950895CF930E94A8190E94B606E3
:1033C0000E94DA19C0E08C2F0E945D06811105C0B1
:1033D000CF5FC630C1F7CF91089581E0FCCF08954B
:1033E0000C94EF190E9471120E94DD0D0E9441049D
:1033F0000C94F0191F921FB61F9211248F939F9364
:10340000AF93BF9380913802811113C080917A02EB
:1034100090917B02A0917C02B0917D024196A11D0A
:10342000B11D80937A0290937B02A0937C02B093AB
:103430007D02BF91AF919F918F911F901FBE1F90F2
:10344000189582E084BD93E095BD9AEF97BD809377
:103450006E0008952FB7F89480917A0290917B02C4
:10346000A0917C02B0917D022FBF08952FB7F894F0
:1034700060917A0270917B0280917C0290917D0232
:103480002FBF08959C014FB7F89480917A029091D4
:103490007B02A0917C02B0917D024FBF821B930BF7
:1034A000089578941F921FB61F9211248F939F93B3
:1034B000AF93BF9380917A0290917B02A0917C029E
:1034C000B0917D020196A11DB11D80937A02909367
:1034D0007B02A0937C02B0937D02BF91AF919F913C
:1034E0008F911F901FBE1F90189587E797E79093C5
:1034F00001088093000888E19AE00FB6F894A89537
:10350000809360000FBE90936000FFCF9093A10165
:103510008093A00108950E94A518811102C00E9405
:103520004E190E94B018809337020E94BD189093E4
:103530007F0280937E020E94B418682F70E090E0B2
:1035400080E00E940916609122027091230280910E
:103550002402909125020C944316881F8827881F07
:10356000089591E0883F08F490E0892F0895982FFE
:10357000907F903BE9F040F49039D1F0903AC1F05F
:103580009038B1F080E00895903D19F020F4903C1F
:10359000C9F782E00895903E59F0903F99F7815F16
:1035A0008F3080F7E82FF0E0EF56FE4F80810895CE
:1035B00083E008950F93DC01ED91FC9109950F9143
:1035C00008956F927F928F929F92AF92BF92CF9207
:1035D000DF92EF92FF920F93CF93DF9300D00F9281
:1035E000CDB7DEB74C015B013A01F12CE12CEA14B6
:1035F000FB0488F00F900F900F90DF91CF910F9107
:10360000FF90EF90DF90CF90BF90AF909F908F9002
:103610007F906F90089519821A821B826501CE18DF
:10362000DF0884E0C816D10418F083E0C82ED12C3E
:10363000B3016E0D7F1DA601CE0101960E94832766
:103640000B812A814981B601C4010E94DA1A83E004
:10365000E80EF11CCCCFFC01738362830895FC015A
:10366000738F628F0895FC01758F648F0895CF93D7
:10367000DF93EC011DA21FA21EA2BC01685D7F4F5B
:1036800040EC88519F4F0E94421D1B821A821D826E
:103690001C821F821E82198618861B861A861D862A
:1036A0001C861F861E86198A188A1B8A1A8A1D8AFA
:1036B0001C8A1F8A1E8A198E188E1B8E1A8E1D8ECA
:1036C0001C8E1F8E1E8E19A218A2DF91CF91089515
:1036D000EF92FF920F931F93CF93DF93EA018A013A
:1036E000060F111D88519F4F7C01C017D10739F477
:1036F000DF91CF911F910F91FF90EF900895699105
:10370000C7010E94491DF1CFFC01718360830895B8
:10371000FC0171A360A30895AF92BF92CF92DF9294
:10372000EF92FF920F931F93CF93DF9300D00F92EE
:10373000CDB7DEB77C016B01142FB22EA02EDC01B9
:1037400095968C9195978430A9F55A96ED91FC91B8
:103750003097E9F1CB01019763E070E00E944E27BA
:10376000CB01880F991F860F971F4983BA820B835D
:103770004C2D481B9E012F5F3F4FBC01C70109958F
:10378000D7015E96ED91FC91309731F00A2D2B2DEB
:10379000412FB601C70109950F900F900F90DF914F
:1037A000CF911F910F91FF90EF90DF90CF90BF903E
:1037B000AF9008956230710509F455C0633071050A
:1037C00099F06130710509F481C0D12CC12CD70169
:1037D0005C96ED91FC91309799F20A2D2B2D412F9B
:1037E000B601C7010995CCCF842F807F803A11F1B3
:1037F00048F48038D1F0803951F7D7011496ED9113
:10380000FC910AC0803ED9F0803FF1F0803BF9F690
:10381000D7011296ED91FC913097C9F2123FE9F071
:103820002A2D4B2D612F6F701BC0D7011696ED917D
:10383000FC91F2CFD7011896ED91FC91EDCFD70115
:103840001A96ED91FC91E8CF423F09F6D7011C96FC
:10385000ED91FC91309709F4BACF2A2D4B2D62EFF0
:10386000C70109958DCF842F807F803DB1F0803FC7
:10387000C9F0803C09F0ABCFD7011E96ED91FC91C9
:10388000309709F4A4CF812F8D7F4B2D612F6F705E
:10389000813F89F0C701099573CFD7015096ED910B
:1038A000FC91EECF433F51F4D7015296ED91FC913C
:1038B000309709F48CCF4B2D612FECCF413F09F0AD
:1038C00086CFD7015496ED91FC91F2CF842F0E94C0
:1038D000B11A882359F0D7015696ED91FC91309793
:1038E00009F475CF612FC70109954ACF163F09F03A
:1038F0006ECFD7015896ED91FC91F1CFFF920F93C7
:103900001F93CF93DF93EC01162F862F0E94B11ADD
:10391000882391F0FDA081E08DA300E020E0412FFD
:1039200061E070E0CE010E948C1BFDA2DF91CF917F
:103930001F910F91FF900895812F0E94AD1A4DA104
:10394000882309F443C0443029F01AA381E090E0B1
:103950009FA38EA3812F0E94B71A813051F0882334
:10396000A9F0823089F0833079F01DA21FA21EA237
:10397000DDCF8DA300E020E0412F61E070E0CE01BB
:103980000E948C1B1DA2D2CF8DA3D0CF103FB1F0CF
:10399000173F59F72EA13FA1C90163E070E00E94D3
:1039A0004E27FE01E80FF91F12A3B9016F5F7F4F89
:1039B0007FA36EA30CA12BA14AA1E1CF84E08DA32C
:1039C0001AA381E090E09FA38EA3B0CF442309F413
:1039D000ADCF2EA13FA1C90163E070E00E944E2748
:1039E000FE01E80FF91F12A3B9016F5F7F4F7FA39C
:1039F0006EA38130910569F0029709F097CF0CA171
:103A00002BA14AA1CE010E948C1B8DA18430C9F646
:103A10008DCF00E0423009F089CFF2CFCF92DF9214
:103A2000EF92FF920F931F93CF93DF93EC01E8A1E6
:103A3000F9A1309709F009956E0188EEC80ED11CE6
:103A4000C6010E94781D10E000E0E82EF12C0E1552
:103A50001F0548F0DF91CF911F910F91FF90EF90DC
:103A6000DF90CF90089560E0C6010E948C1D682F02
:103A7000CE010E947E1C61E0C6010E949C1D0F5F6A
:103A80001F4FE5CFFC014283748363831182108250
:103A900008951F93CF93DF93EC01162F0E94B31D5F
:103AA000482F298130E0C90101966A8170E00E94A7
:103AB000622758815817190641F4842F0E94B61DB9
:103AC00080E0DF91CF911F9108958B819C81280F19
:103AD000391FF9011083898190E001966A8170E0B5
:103AE0000E9462278983842F0E94B61D81E0E9CF5E
:103AF000CF93DF93EC010E94B31D99812881921727
:103B000040F0C92FC21B0E94B61D8C2FDF91CF91B0
:103B10000895CA819C0FF5CFFC018081860F9927FB
:103B2000991F628170E00E94622723813481280FEF
:103B3000391FF901808108951F93CF93DF93EC0122
:103B4000162F0E94B31D282F8881810F9927991F56
:103B50006A8170E00E9462278883822FDF91CF9173
:103B60001F910C94B61D8FB7F89408958FBF0895D8
:103B7000482F47709C0183E0369527958A95E1F799
:103B800057E0529FC001539F900D1124442319F018
:103B90000197840F911D08958F929F92BF92CF92AB
:103BA000DF92EF92FF920F931F93CF93DF934C011D
:103BB000EB017A01CA0167E070E00E944E278E0196
:103BC000D40130E020E02617370709F046C0C701CE
:103BD00067E070E00E944E27D90143E0AA0FBB1FA7
:103BE0004A95E1F7009761F1F401EA0FFB1F10829B
:103BF00067E0629FA001639F500D11248E01040FA6
:103C0000151F30E020E0E80179918E012F5F3F4FD2
:103C1000472F407850E0022E02C0559547950A94F0
:103C2000E2F75081452B4083AF01420F531F7F774E
:103C3000EA0178838217930731F70196A80FB91F1D
:103C4000CD01DF91CF911F910F91FF90EF90DF9009
:103C5000CF90BF909F908F9008951C92A80190E004
:103C600080E0FA01B190AF010196FB2DF078CF2EE4
:103C7000D12C082E02C0D594C7940A94E2F7DC90A8
:103C8000CD28CC926D01C80ED91EE894B7F8F60184
:103C9000B0828730910529F72F5F3F4F095F1F4F93
:103CA000189691CF6F927F929F92AF92BF92CF92D0
:103CB000DF92EF92FF920F931F93CF93DF933C011C
:103CC00090E080E04230510560F15A0183E0B69403
:103CD000A7948A95E1F78301EB01B0E0A0E0AA1573
:103CE000BB0569F5242F277037E03A9FC0013B9F41
:103CF000900D11242223A9F0487F640F751FEB015A
:103D00005301A80EB91EB0E0A0E0422F50E08A0196
:103D1000015011092196A017B107B0F10197840F46
:103D2000951FDF91CF911F910F91FF90EF90DF9042
:103D3000CF90BF90AF909F907F906F900895780143
:103D400081E090E09E01280F391FF9012081922E19
:103D5000E89497F8F70191927F016F01F1E0CF1A93
:103D6000D1082881082E01C0220F0A94EAF7207892
:103D70002929F601208301968830910519F71196BB
:103D8000095F1F4F2896ABCF2881D22EE894D7F831
:103D9000F501D1925F0111967F01F1E0EF1AF10870
:103DA000FB013081232F0A2E01C0220F0A94EAF76B
:103DB00020782D29F7012083ADCF08950895EF9243
:103DC000FF920F931F93CF93DF93CDB7DEB7A097EA
:103DD0000FB6F894DEBF0FBECDBFF9018B010450C2
:103DE000110990E080E08417C8F417FD2BC0DF01B3
:103DF000A80FB91F3C91373FF1F4C8010E94B81DCC
:103E00007C01A80169E372E0CE0101960E94521E76
:103E1000BE016F5F7F4FC7010E94C907A0960FB612
:103E2000F894DEBF0FBECDBFDF91CF911F910F91F0
:103E3000FF90EF9008950532110584F7D801A75C33
:103E4000BD4F3C930F5F1F4F0196CDCF0F931F9334
:103E5000CF93DF9300D000D000D00F92CDB7DEB764
:103E60008C01CE0101960E94A82181110BC02796DA
:103E70000FB6F894DEBF0FBECDBFDF91CF911F917B
:103E80000F9108958A810E94B71A9A819D839B8120
:103E90009E839C819F8381110AC08981843079F03F
:103EA000873069F0863069F08530D9F681E0AE015F
:103EB0004B5F5F4F682FC8010E94681BD2CF83E021
:103EC000F6CF82E0F4CFDF92EF92FF920F931F9331
:103ED000CF93DF9300D000D0CDB7DEB77B01142F96
:103EE000D22E4A832B830C83842F0E94B71A811110
:103EF00029C082E0E816F10401F183E0E816F1043C
:103F000039F0EA94EF2869F485E0173F21F404C002
:103F100087E0073F09F084E08983CE0101960E9483
:103F2000A3210F900F900F900F90DF91CF911F91D1
:103F30000F91FF90EF90DF90089587EFD812EBCFAD
:103F400086E0EACF12951F701983E7CF80E892E0F0
:103F50000E94371B63E67FE180E892E00E94841BA9
:103F600066E27FE180E892E00E94881B6DED7EE1D1
:103F700080E892E00E94331B6EED7EE180E892E0E3
:103F80000E942B1B6FED7EE180E892E00C942F1BCA
:103F90009B01409171034430C1F4FC0191819F70F9
:103FA0009093E90050E040E064E070E0C9010E94B5
:103FB0006E2281110BC09091E80095FD07C0909191
:103FC000E8009E779093E800089582E0089520919C
:103FD0007103243091F4FC0181818F708093E9009A
:103FE0009091F3008091F200892B49F08091E800D4
:103FF0008E778093E8000C941C2482E0089580E082
:104000000895FC0180917103843059F491819F706F
:104010009093E9008091E80080FF03C0CF010C94E9
:10402000E71F08959B0140917103443011F080E037
:104030000895FC0196819F709093E9008091E800BB
:1040400082FFF5CF8091E80085FFF1CF50E040E09E
:1040500064E070E0C9010E94BD228091E80085FD06
:1040600005C08091E8008B778093E80081E0089597
:10407000809166020895CF93DF9300D00F92CDB761
:10408000DEB790917103943019F589837B836A833D
:1040900082E08093E9008FEF9091E800815095FDD8
:1040A00006C095ED9A95F1F700008111F5CF80914A
:1040B000E80085FF0DC050E040E063E070E0CE0115
:1040C00001960E946E228091E8008E778093E8002E
:1040D0000F900F900F90DF91CF910895BC0184E075
:1040E0000C943B20BC0183E00C943B209C0182E0BB
:1040F0008093E9009FEF8091E800915085FD06C014
:1041000085ED8A95F1F700009111F5CF8091E800D7
:1041100085FF0CC050E040E066E070E0C9010E94FD
:104120006E228091E8008E778093E8000895CF9307
:10413000DF93EC0181E08093E9008FEF9091E8003C
:10414000815095FD06C095ED9A95F1F7000081111B
:10415000F5CF8091E80085FF14C050E040E068E0B2
:1041600070E0CE010E946E228091E8008E778093ED
:10417000E80088E0FE01AEE5B2E001900D928A957C
:10418000E1F7DF91CF91089580917003811109C00B
:104190000E944D240E94AA248091E20084608093B2
:1041A000E200089510927003089508950895089507
:1041B00042E061EC81E00E94C92342E261EC82E0CE
:1041C0000E94C92342E361E883E00E94C92342E3DD
:1041D00061E884E00C94C92380917303833009F46F
:1041E0005FC030F48130C1F1823009F49BC0089582
:1041F0008A3009F487C08B3009F46DC0893009F02A
:104200004EC080917203813209F049C080917603DB
:1042100090917703029708F042C08091E800877F71
:104220008093E8008091E80082FF35C09091F30010
:104230008091F200029729F48091F1008B7F813008
:1042400021F48091F100809366028091E8008B77E1
:104250008093E8000C94FD2380917203813AF9F475
:104260008091E800877F8093E800809176039091A9
:104270007703892B61F468E08EE592E070E00E949C
:104280000C238091E8008B778093E800089560E02C
:1042900090E080E0F3CF809171038111C3CF089546
:1042A00080917203813AD9F78091760390917703D8
:1042B000892BA9F78091E800877F8093E80080919F
:1042C000E80080FFFCCF809120018093F100809175
:1042D000E8008E77BDCF80917203813201F7809123
:1042E000760390917703892BD1F68091E800877F40
:1042F0008093E8000E94FD23809174038093200145
:104300000C94711280917203813249F68091E80019
:10431000877F8093E8000E94FD238091750380933E
:104320006702089580917203813A09F0B8CF8091B5
:10433000E800877F8093E8008091E80080FFFCCF51
:1043400080916702C2CFBC018AE091E00C94C81F43
:10435000BC018AE091E00C9412200E94A61F84B751
:10436000877F84BF0FB6F894A8958091600088611C
:1043700080936000109260000FBE80E890E00FB65E
:10438000F89480936100909361000FBE0E945C0ED0
:104390000E944D240E94AA248091E20084608093B0
:1043A000E20078940E9433270E946C0E86E191E02F
:1043B0000E94D80D809171038530C9F00E94740E5F
:1043C0008AE091E00E9401200E946A0E0E946B0E1A
:1043D000F1CF0E94AC1980916F03882341F00E94B5
:1043E000DB19882321F00E9458220E9471128091CB
:1043F0007103853071F30E94F219E0CF0C94002212
:10440000292F33272330310519F168F42130310584
:1044100009F444C02230310509F445C090E080E041
:1044200030E020E025C02132310549F1223231054A
:10443000A9F780E490E02CE834E061157105C1F043
:104440008BE790E021E134E06130710589F0E6CF3F
:1044500099278130910581F0009729F00297F1F6B4
:10446000ECE3F3E002C0ECE5F3E0849190E09F011F
:10447000FA01318320830895ECE4F3E0F6CF89E07C
:1044800090E022E733E06115710591F389E090E057
:104490002BE833E06130710559F3C0CF82E190E041
:1044A0002FEF33E0E5CF8FE990E020E633E0E0CF77
:1044B00080E189BD82E189BD09B400FEFDCF809114
:1044C000D8008F7D8093D8008091E0008260809337
:1044D000E0008091E00081FDFCCF0895AF92BF9293
:1044E000CF92DF92FF920F931F93CF93DF936C01D4
:1044F000EB018A010E941C24F82E811123C00115B2
:10450000110539F0F80180819181C81BD90BC80EC3
:10451000D91EB12CA12C2097A9F08091E80085FD2F
:1045200022C08091E8008E778093E8000115110584
:10453000A1F0F80180819181A80EB91EB182A082FC
:1045400085E0F82E8F2DDF91CF911F910F91FF9075
:10455000DF90CF90BF90AF9008950E941C248823D5
:10456000D1F2F82EEFCFF60181916F018093F10027
:104570002197FFEFAF1ABF0ACECFAF92BF92CF9273
:10458000DF92FF920F931F93CF93DF936C01EB01A8
:104590008A010E941C24F82E811123C001151105E7
:1045A00039F0F80180819181C81BD90BC80ED91E42
:1045B000B12CA12C2097A9F08091E80085FD22C0A4
:1045C0008091E8008B778093E80001151105A1F038
:1045D000F80180819181A80EB91EB182A08285E088
:1045E000F82E8F2DDF91CF911F910F91FF90DF90CB
:1045F000CF90BF90AF9008950E941C248823D1F2E1
:10460000F82EEFCF8091F100F60181936F01219791
:10461000FFEFAF1ABF0ACECFFC01809178039091D3
:10462000790386179707A0F06115710529F4909119
:10463000E8009E779093E80090E06115710551F4D1
:10464000911108C08091E80082FF34C080E0089595
:10465000BC01F2CF809171038823C1F18530C1F193
:104660008091E80083FD30C08091E80082FDEACFB0
:104670008091E80080FFE1CF8091F3002091F2006B
:10468000382F6115710519F02830310558F091E087
:104690002830310509F090E02091E8002E77209332
:1046A000E800CBCF81918093F100615071092F5FB9
:1046B0003F4FE7CF80917103882341F0853041F06F
:1046C0008091E80083FFBECF81E0089582E00895E5
:1046D00083E00895FC018091780390917903861717
:1046E0009707A0F06115710529F48091E8008E7795
:1046F0008093E80090E06115710551F4911108C0B4
:104700008091E80082FF35C080E00895BC01F2CFBF
:10471000809171038823C9F18530C9F18091E80047
:1047200083FD31C08091E80082FDEACF8091E800EE
:1047300080FFE1CF8091F3002091F200382F6115C6
:10474000710519F02830310558F091E02830310515
:1047500009F090E08091E8008E778093E800CBCF5D
:1047600084918093F1003196615071092F5F3F4F22
:10477000E6CF80917103882341F0853041F080912C
:10478000E80083FFBDCF81E0089582E0089583E0D3
:104790000895982F973028F08F708093E90081E07A
:1047A00008959093E900242F762F50E0981731F068
:1047B0007091EC002091ED005091F00021FD02C0BD
:1047C0009F5FE8CF3091EB003E7F3093EB0030915C
:1047D000ED003D7F3093ED003091EB003160309380
:1047E000EB007093EC002093ED005093F0002091CB
:1047F000EE0027FDE5CF80E008958091720387FFEA
:1048000013C08091E80082FF06C08091E8008B779A
:104810008093E80004C0809171038111F2CF089564
:10482000809171038823D9F38091E80080FFF8CF4D
:104830008091E8008E77ECCF2091E4003091E50084
:1048400095E6A9012091EC00822F817020FF06C01F
:104850008091E80080FF06C080E008952091E80084
:1048600022FD1AC080917103882389F0853089F078
:104870008091EB0085FD0FC02091E4003091E500B0
:1048800042175307F9F29150E1F684E0089582E06F
:10489000089583E0089581E008950E94BB240E945A
:1048A000C324E0EEF0E0808181608083E8EDF0E0F9
:1048B00080818F77808319BCA7EDB0E08C918E7FCB
:1048C0008C9380818F7E80831092700308950F9364
:1048D0001F93CF93DF930E94BB240E94C324C8ED93
:1048E000D0E088818F7788838881806888838881F9
:1048F0008F7D888319BC1092710310926D03109202
:104900006F0310926E0300EE10E0F80180818B7F40
:10491000808388818160888342E060E080E00E943B
:10492000C923E1EEF0E080818E7F8083E2EEF0E04B
:10493000808181608083808188608083F8018081AC
:104940008E7F8083888180618883DF91CF911F91E2
:104950000F910895E8EDF0E080818F7E8083E7ED90
:10496000F0E080818160808384E082BF81E0809379
:1049700070030C946724E8EDF0E080818E7F8083E3
:104980001092E20008951092DA001092E10008956A
:104990001F920F920FB60F9211242F933F934F93B4
:1049A0005F936F937F938F939F93AF93BF93EF9397
:1049B000FF938091E10082FF0BC08091E20082FFB3
:1049C00007C08091E1008B7F8093E1000E94322735
:1049D0008091DA0080FF19C08091D80080FF15C057
:1049E0008091DA008E7F8093DA008091D90080FF79
:1049F00096C080E189BD82E189BD09B400FEFDCF8A
:104A000081E0809371030E94C4208091E10080FFC7
:104A100019C08091E20080FF15C08091E2008E7F76
:104A20008093E2008091E20080618093E2008091B7
:104A3000D80080628093D80019BC85E08093710310
:104A40000E94D6208091E10084FF2BC08091E2007B
:104A500084FF27C080E189BD82E189BD89B5982F97
:104A6000917080FFFBCF8091D8008F7D8093D8001C
:104A70008091E1008F7E8093E1008091E2008F7E43
:104A80008093E2008091E20081608093E200809157
:104A90006D03882309F449C084E0809371030E9468
:104AA000D7208091E10083FF29C08091E20083FF3D
:104AB00025C08091E100877F8093E10082E08093B0
:104AC000710310926D038091E1008E7F8093E1006D
:104AD0008091E2008E7F8093E2008091E20080610D
:104AE0008093E20042E060E080E00E94C923809170
:104AF000F00088608093F0000E94D520FF91EF9134
:104B0000BF91AF919F918F917F916F915F914F91E5
:104B10003F912F910F900FBE0F901F90189519BCC9
:104B2000109271030E94D22070CF8091E30087FD24
:104B300093E090937103B3CF1F920F920FB60F9231
:104B400011242F933F934F935F936F937F938F9392
:104B50009F93AF93BF93CF93DF93EF93FF93D09146
:104B6000E900DF708091EC00C82FC17080FDC0E8C3
:104B70001092E9008091F000877F8093F000789494
:104B80000E94E0251092E9008091F00088608093F7
:104B9000F000CD2BCF70C093E900FF91EF91DF9132
:104BA000CF91BF91AF919F918F917F916F915F91C5
:104BB0004F913F912F910F900FBE0F901F9018951E
:104BC0001F93CF93DF93CDB7DEB7AA970FB6F894B4
:104BD000DEBF0FBECDBF82E793E02091F100FC0164
:104BE0002193CF01F3E08A379F07B9F70E94EC20A9
:104BF0008091E80083FF1EC180917203909173033E
:104C00009A3008F017C1E92FF0E0E550F84D0C9408
:104C10007627803899F0823809F00CC180917603AC
:104C20008F70873008F006C18093E9008091EB0017
:104C300085FB882780F91092E90006C080916E03F9
:104C400090916F03911182609091E800977F90930B
:104C5000E8008093F1001092F1008091E8008E77D7
:104C6000E5C0882309F4D3C0823009F0E3C0809105
:104C700074038111D6C0809176038F702FEF280FB7
:104C8000263008F0D7C08093E9002091EB0020FF88
:104C9000C8C0933031F48091EB0080628093EB00C8
:104CA000C0C09091EB0090619093EB0021E030E068
:104CB00001C0220F8A95EAF72093EA001092EA00D9
:104CC0008091EB008860EACF8111B4C01091740329
:104CD0001F778091E3008078812B8093E30080919F
:104CE000E800877F8093E8000E94FD238091E80020
:104CF00080FFFCCF8091E30080688093E30082E036
:104D0000111183E08093710395C08058823008F0C0
:104D100091C080917403909175038C3D23E09207BC
:104D2000A1F583E08A838AE289834FB7F894DE0194
:104D3000139620E03EE051E2E32FF0E0509357005D
:104D4000E49120FF03C0E295EF703F5FEF708E2F7C
:104D500090E0EA30C0F0C7968D939D932F5F243189
:104D600059F74FBF8091E800877F8093E8006AE29F
:104D700070E0CE0101960E940C238091E8008B77B1
:104D80008093E80057C0C096E7CF6091760370919A
:104D90007703AE014F5F5F4F0E94FE21BC01892B5C
:104DA00009F448C09091E800977F9093E8008981CA
:104DB0009A810E946A23E1CF8038E1F58091E80072
:104DC000877F8093E80080916D038093F10045CF49
:104DD000811130C090917403923060F58091E800A9
:104DE000877F8093E80090936D030E94FD2380915C
:104DF0006D03882311F084E005C08091E30087FDF6
:104E0000FACF81E0809371030E94D82013C0809173
:104E10007403813079F481E0933009F080E080936D
:104E20006F031092E9008091E800877F8093E8008B
:104E30000E94FD238091E80083FF0AC08091E80072
:104E4000877F8093E8008091EB0080628093EB0085
:104E5000AA960FB6F894DEBF0FBECDBFDF91CF91FB
:104E60001F9108950895CF93809171038823A1F035
:104E7000C091E900CF709091EC00892F817090FD76
:104E800080E8C82B1092E9008091E80083FD0E9421
:104E9000E025CF70C093E900CF910895AA1BBB1BFA
:104EA00051E107C0AA1FBB1FA617B70710F0A61B2A
:104EB000B70B881F991F5A95A9F780959095BC014B
:104EC000CD01089597FB072E16F4009407D077FDC7
:104ED00009D00E944E2707FC05D03EF4909581959D
:104EE0009F4F0895709561957F4F0895EE0FFF1FB6
:104EF0000590F491E02D0994692796276927782772
:104F0000872778270895FB01DC0102C001900D92EC
:104F100041505040D8F70895F999FECF92BD81BD18
:104F2000F89A992780B50895A8E1B0E042E050E0F2
:104F30000C94C027262FF999FECF92BD81BDF89A17
:104F4000019700B4021639F01FBA20BD0FB6F894CD
:104F5000FA9AF99A0FBE08950396272F0E949B276D
:104F60000E949A27252F0E949B27242F0C949B2771
:104F70000196272F0E949B270C949A27DC01CB01D6
:104F8000FC01F999FECF06C0F2BDE1BDF89A319659
:104F900000B40D9241505040B8F70895F894FFCFF7
:104FA0002408390845086B085F086508EF072D08D5
:104FB0005908EF07EF07EF0775082C102C10841025
:104FC0008410D610F21059105910FD108911981143
:104FD0009811F41159105910FD1180128012891284
:104FE00089128B12891289128912801280129012F2
:104FF000891289129012092631261A2731261A277A
:0A500000642685261A27DC26E82620
:10500A002808641E140A321E2C0203834000000181
:10501A0004400000010038209720762072206E207C
:10502A0001E200E900EA00B500B600B700CD00834E
:10503A0001CC008A01920194012102230224022553
:10504A0002260227022A02B300B4006F0070008110
:10505A00828397C63435F4F5F6F793929190946665
:10506A00E200E900EA00B500B600B700CD0083010E
:10507A00CC008A0192019401210223022402250212
:10508A00260227022A02B300B4006F007000818250
:10509A008302030200000100010101010100010174
:00000001FF
